{
  "_format": "hh-sol-artifact-1",
  "contractName": "FixedRateAgreement",
  "sourceName": "contracts/FixedRateAgreement.sol",
  "abi": [
    {
      "inputs": [
        {
          "internalType": "string",
          "name": "_employerId",
          "type": "string"
        },
        {
          "internalType": "string",
          "name": "_employeeId",
          "type": "string"
        },
        {
          "internalType": "address",
          "name": "_employerAddress",
          "type": "address"
        },
        {
          "internalType": "address",
          "name": "_currency",
          "type": "address"
        },
        {
          "internalType": "uint256",
          "name": "_fixedPayment",
          "type": "uint256"
        }
      ],
      "stateMutability": "nonpayable",
      "type": "constructor"
    },
    {
      "anonymous": false,
      "inputs": [
        {
          "indexed": true,
          "internalType": "address",
          "name": "employeeAddress",
          "type": "address"
        },
        {
          "indexed": true,
          "internalType": "address",
          "name": "employerAddress",
          "type": "address"
        }
      ],
      "name": "FixedPaymentMade",
      "type": "event"
    },
    {
      "anonymous": false,
      "inputs": [
        {
          "indexed": true,
          "internalType": "address",
          "name": "agreementAddress",
          "type": "address"
        }
      ],
      "name": "PaymentMade",
      "type": "event"
    },
    {
      "inputs": [],
      "name": "agreementStatus",
      "outputs": [
        {
          "internalType": "enum Agreement.AgreementStatus",
          "name": "",
          "type": "uint8"
        }
      ],
      "stateMutability": "view",
      "type": "function"
    },
    {
      "inputs": [],
      "name": "cancel",
      "outputs": [],
      "stateMutability": "nonpayable",
      "type": "function"
    },
    {
      "inputs": [],
      "name": "close",
      "outputs": [],
      "stateMutability": "nonpayable",
      "type": "function"
    },
    {
      "inputs": [
        {
          "internalType": "address",
          "name": "tokenAddress",
          "type": "address"
        },
        {
          "internalType": "uint256",
          "name": "requiredAmount",
          "type": "uint256"
        }
      ],
      "name": "collectTokens",
      "outputs": [
        {
          "internalType": "bool",
          "name": "",
          "type": "bool"
        }
      ],
      "stateMutability": "nonpayable",
      "type": "function"
    },
    {
      "inputs": [],
      "name": "contractType",
      "outputs": [
        {
          "internalType": "string",
          "name": "",
          "type": "string"
        }
      ],
      "stateMutability": "view",
      "type": "function"
    },
    {
      "inputs": [],
      "name": "currency",
      "outputs": [
        {
          "internalType": "address",
          "name": "",
          "type": "address"
        }
      ],
      "stateMutability": "view",
      "type": "function"
    },
    {
      "inputs": [
        {
          "internalType": "address",
          "name": "_paymentAddress",
          "type": "address"
        }
      ],
      "name": "employeeEnterContract",
      "outputs": [],
      "stateMutability": "nonpayable",
      "type": "function"
    },
    {
      "inputs": [],
      "name": "employeeId",
      "outputs": [
        {
          "internalType": "string",
          "name": "",
          "type": "string"
        }
      ],
      "stateMutability": "view",
      "type": "function"
    },
    {
      "inputs": [],
      "name": "employerAddress",
      "outputs": [
        {
          "internalType": "address",
          "name": "",
          "type": "address"
        }
      ],
      "stateMutability": "view",
      "type": "function"
    },
    {
      "inputs": [],
      "name": "employerId",
      "outputs": [
        {
          "internalType": "string",
          "name": "",
          "type": "string"
        }
      ],
      "stateMutability": "view",
      "type": "function"
    },
    {
      "inputs": [],
      "name": "paymentAddress",
      "outputs": [
        {
          "internalType": "address",
          "name": "",
          "type": "address"
        }
      ],
      "stateMutability": "view",
      "type": "function"
    },
    {
      "inputs": [],
      "name": "paymentStatus",
      "outputs": [
        {
          "internalType": "enum FixedRateAgreement.PaymentStatus",
          "name": "",
          "type": "uint8"
        }
      ],
      "stateMutability": "view",
      "type": "function"
    },
    {
      "inputs": [],
      "name": "sendPayment",
      "outputs": [
        {
          "internalType": "bool",
          "name": "",
          "type": "bool"
        }
      ],
      "stateMutability": "nonpayable",
      "type": "function"
    },
    {
      "inputs": [],
      "name": "suspend",
      "outputs": [],
      "stateMutability": "nonpayable",
      "type": "function"
    },
    {
      "inputs": [],
      "name": "withdrawFunds",
      "outputs": [],
      "stateMutability": "view",
      "type": "function"
    }
  ],
  "bytecode": "0x60806040526007805460ff191690553480156200001b57600080fd5b506040516200100f3803806200100f8339810160408190526200003e91620001c7565b848484846040518060400160405280600a8152602001696669786564207261746560b01b8152508460009081620000769190620002f1565b506001620000858582620002f1565b50600280546001600160a01b0319166001600160a01b0385811691909117909155600480546001600160a81b0319169184169190911790556005620000cb8282620002f1565b50505060069390935550620003bd95505050505050565b634e487b7160e01b600052604160045260246000fd5b600082601f8301126200010a57600080fd5b81516001600160401b0380821115620001275762000127620000e2565b604051601f8301601f19908116603f01168101908282118183101715620001525762000152620000e2565b81604052838152602092508660208588010111156200017057600080fd5b600091505b8382101562000194578582018301518183018401529082019062000175565b6000602085830101528094505050505092915050565b80516001600160a01b0381168114620001c257600080fd5b919050565b600080600080600060a08688031215620001e057600080fd5b85516001600160401b0380821115620001f857600080fd5b6200020689838a01620000f8565b965060208801519150808211156200021d57600080fd5b506200022c88828901620000f8565b9450506200023d60408701620001aa565b92506200024d60608701620001aa565b9150608086015190509295509295909350565b600181811c908216806200027557607f821691505b6020821081036200029657634e487b7160e01b600052602260045260246000fd5b50919050565b601f821115620002ec576000816000526020600020601f850160051c81016020861015620002c75750805b601f850160051c820191505b81811015620002e857828155600101620002d3565b5050505b505050565b81516001600160401b038111156200030d576200030d620000e2565b62000325816200031e845462000260565b846200029c565b602080601f8311600181146200035d5760008415620003445750858301515b600019600386901b1c1916600185901b178555620002e8565b600085815260208120601f198616915b828110156200038e578886015182559484019460019091019084016200036d565b5085821015620003ad5787850151600019600388901b60f8161c191681555b5050505050600190811b01905550565b610c4280620003cd6000396000f3fe608060405234801561001057600080fd5b50600436106100f55760003560e01c806384ab30a511610097578063e5a6b10f11610066578063e5a6b10f146101e5578063e6400bbe146101f8578063ea8a1af014610200578063ef838f881461020857600080fd5b806384ab30a51461019b578063900feb3b146101b057806398b9f004146101ca578063cb2ef6f7146101dd57600080fd5b80633fb4fe6f116100d35780633fb4fe6f1461015557806343d726d614610178578063633423be146101805780636720ceb11461019357600080fd5b80630d0175a9146100fa57806310ccb04c1461012a57806324600fc31461014b575b600080fd5b60025461010d906001600160a01b031681565b6040516001600160a01b0390911681526020015b60405180910390f35b60045461013e90600160a01b900460ff1681565b6040516101219190610a1e565b610153610210565b005b610168610163366004610a54565b610245565b6040519015158152602001610121565b610153610439565b60035461010d906001600160a01b031681565b6101686104bb565b6101a3610670565b6040516101219190610a7e565b6007546101bd9060ff1681565b6040516101219190610acd565b6101536101d8366004610ae1565b6106fe565b6101a36107ae565b60045461010d906001600160a01b031681565b6101536107bb565b6101536108b6565b6101a3610937565b6002546001600160a01b031633146102435760405162461bcd60e51b815260040161023a90610b03565b60405180910390fd5b565b604051636eb1769f60e11b8152336004820152306024820152600090839083906001600160a01b0383169063dd62ed3e90604401602060405180830381865afa158015610296573d6000803e3d6000fd5b505050506040513d601f19601f820116820180604052508101906102ba9190610b4f565b10156103085760405162461bcd60e51b815260206004820152601c60248201527f496e73756666696369656e7420746f6b656e20616c6c6f77616e636500000000604482015260640161023a565b6040516370a0823160e01b815233600482015283906001600160a01b038316906370a0823190602401602060405180830381865afa15801561034e573d6000803e3d6000fd5b505050506040513d601f19601f820116820180604052508101906103729190610b4f565b10156103b75760405162461bcd60e51b8152602060048201526014602482015273496e73756666696369656e742062616c616e636560601b604482015260640161023a565b6040516323b872dd60e01b8152336004820152306024820152604481018490526001600160a01b038216906323b872dd906064016020604051808303816000875af115801561040a573d6000803e3d6000fd5b505050506040513d601f19601f8201168201806040525081019061042e9190610b68565b506001949350505050565b6002546001600160a01b031633146104635760405162461bcd60e51b815260040161023a90610b03565b600360048054600160a01b900460ff169081111561048357610483610a08565b036104a05760405162461bcd60e51b815260040161023a90610b8a565b60048054819060ff60a01b1916600160a01b825b0217905550565b6002546000906001600160a01b031633146104e85760405162461bcd60e51b815260040161023a90610b03565b600160048054600160a01b900460ff169081111561050857610508610a08565b1461055f5760405162461bcd60e51b815260206004820152602160248201527f5468697320636f6e7472616374206973206e6f206c6f6e6765722061637469766044820152606560f81b606482015260840161023a565b600160075460ff16600181111561057857610578610a08565b036105c55760405162461bcd60e51b815260206004820152601d60248201527f5061796d656e742068617320616c7265616479206265656e2073656e74000000604482015260640161023a565b6003546006546105de916001600160a01b031690610944565b6007805460ff1916600117905560048054600160a21b60ff60a01b1990911617905560405130907f960f80c1468168314e9bb3daa45c4819ef0a7969615e253bbc73477997b1eb5890600090a26002546003546040516001600160a01b0392831692909116907f80cc066594d46a1c222dffb998d2a0b113cba551c911573a088260abc6cbebd690600090a350600190565b6001805461067d90610bd2565b80601f01602080910402602001604051908101604052809291908181526020018280546106a990610bd2565b80156106f65780601f106106cb576101008083540402835291602001916106f6565b820191906000526020600020905b8154815290600101906020018083116106d957829003601f168201915b505050505081565b600060048054600160a01b900460ff169081111561071e5761071e610a08565b146107765760405162461bcd60e51b815260206004820152602260248201527f5468697320636f6e7472616374206973206e6f206c6f6e6765722070656e64696044820152616e6760f01b606482015260840161023a565b600380546001600160a01b0319166001600160a01b038316179055600480546001919060ff60a01b1916600160a01b83021790555050565b6005805461067d90610bd2565b6002546001600160a01b031633146107e55760405162461bcd60e51b815260040161023a90610b03565b600360048054600160a01b900460ff169081111561080557610805610a08565b036108225760405162461bcd60e51b815260040161023a90610b8a565b6004808054600160a01b900460ff169081111561084157610841610a08565b0361089c5760405162461bcd60e51b815260206004820152602560248201527f5468697320636f6e74726163742068617320616c7265616479206265656e20636044820152641b1bdcd95960da1b606482015260840161023a565b600480546002919060ff60a01b1916600160a01b836104b4565b6002546001600160a01b031633146108e05760405162461bcd60e51b815260040161023a90610b03565b600360048054600160a01b900460ff169081111561090057610900610a08565b0361091d5760405162461bcd60e51b815260040161023a90610b8a565b600480546003919060ff60a01b1916600160a01b836104b4565b6000805461067d90610bd2565b6004805460405163a9059cbb60e01b81526001600160a01b038581169382019390935260248101849052911690819063a9059cbb906044016020604051808303816000875af115801561099b573d6000803e3d6000fd5b505050506040513d601f19601f820116820180604052508101906109bf9190610b68565b610a035760405162461bcd60e51b8152602060048201526015602482015274151bdad95b881d1c985b9cd9995c8819985a5b1959605a1b604482015260640161023a565b505050565b634e487b7160e01b600052602160045260246000fd5b6020810160058310610a3257610a32610a08565b91905290565b80356001600160a01b0381168114610a4f57600080fd5b919050565b60008060408385031215610a6757600080fd5b610a7083610a38565b946020939093013593505050565b60006020808352835180602085015260005b81811015610aac57858101830151858201604001528201610a90565b506000604082860101526040601f19601f8301168501019250505092915050565b6020810160028310610a3257610a32610a08565b600060208284031215610af357600080fd5b610afc82610a38565b9392505050565b6020808252602c908201527f596f7520617265206e6f7420616c6c6f77656420746f206361727279206f757460408201526b103a3434b99030b1ba34b7b760a11b606082015260800190565b600060208284031215610b6157600080fd5b5051919050565b600060208284031215610b7a57600080fd5b81518015158114610afc57600080fd5b60208082526028908201527f5468697320636f6e74726163742068617320616c7265616479206265656e2063604082015267185b98d95b1b195960c21b606082015260800190565b600181811c90821680610be657607f821691505b602082108103610c0657634e487b7160e01b600052602260045260246000fd5b5091905056fea2646970667358221220ceb3d58a90407fcb6224e829cecec5320e412a7df000beb0d977e968cca440c564736f6c63430008180033",
  "linkReferences": {},
  "deployedLinkReferences": {}
}