{"abi":[{"type":"function","name":"createNewFixedRateAgreement","inputs":[{"name":"_employerId","type":"string","internalType":"string"},{"name":"_employeeId","type":"string","internalType":"string"},{"name":"_employerAddress","type":"address","internalType":"address"},{"name":"_currency","type":"address","internalType":"address"},{"name":"_fixedPayment","type":"uint256","internalType":"uint256"},{"name":"_wormholeRelayer","type":"address","internalType":"address"},{"name":"_tokenBridge","type":"address","internalType":"address"},{"name":"_wormhole","type":"address","internalType":"address"}],"outputs":[{"name":"","type":"address","internalType":"address"}],"stateMutability":"nonpayable"},{"type":"function","name":"createNewPayAsYouGoAgreement","inputs":[{"name":"_employerId","type":"string","internalType":"string"},{"name":"_employeeId","type":"string","internalType":"string"},{"name":"_employerAddress","type":"address","internalType":"address"},{"name":"_currency","type":"address","internalType":"address"},{"name":"_monthlyPayment","type":"uint256","internalType":"uint256"},{"name":"_wormholeRelayer","type":"address","internalType":"address"},{"name":"_tokenBridge","type":"address","internalType":"address"},{"name":"_wormhole","type":"address","internalType":"address"}],"outputs":[],"stateMutability":"nonpayable"},{"type":"function","name":"fixedRateAgreements","inputs":[{"name":"","type":"uint256","internalType":"uint256"}],"outputs":[{"name":"","type":"address","internalType":"contract FixedRateAgreement"}],"stateMutability":"view"},{"type":"function","name":"getFixedRateAgreements","inputs":[],"outputs":[{"name":"","type":"address[]","internalType":"contract FixedRateAgreement[]"}],"stateMutability":"view"},{"type":"function","name":"getNumberOfFixedRateAgreements","inputs":[],"outputs":[{"name":"","type":"uint256","internalType":"uint256"}],"stateMutability":"view"},{"type":"function","name":"getPayAsYouGoAgreements","inputs":[],"outputs":[{"name":"","type":"address[]","internalType":"contract PayAsYouGoAgreement[]"}],"stateMutability":"view"},{"type":"function","name":"payAsYouGoAgreements","inputs":[{"name":"","type":"uint256","internalType":"uint256"}],"outputs":[{"name":"","type":"address","internalType":"contract PayAsYouGoAgreement"}],"stateMutability":"view"},{"type":"event","name":"FixedRateAgreementDeployed","inputs":[{"name":"contractAddress","type":"address","indexed":true,"internalType":"address"}],"anonymous":false},{"type":"event","name":"PayAsYoGoAgreementDeployed","inputs":[{"name":"contractAddress","type":"address","indexed":true,"internalType":"address"}],"anonymous":false}],"bytecode":{"object":"0x6080604052348015600f57600080fd5b50615ffa8061001f6000396000f3fe608060405234801561001057600080fd5b506004361061007d5760003560e01c8063a828171c1161005b578063a828171c146100d3578063c0901d10146100e6578063efb7d3c9146100f9578063f29bf7601461010a57600080fd5b80632fcc400b14610082578063392c31eb146100a0578063a6c76fd2146100cb575b600080fd5b61008a61011f565b60405161009791906103c3565b60405180910390f35b6100b36100ae3660046104d0565b610181565b6040516001600160a01b039091168152602001610097565b61008a610249565b6100b36100e1366004610596565b6102a9565b6100b36100f4366004610596565b6102d3565b600054604051908152602001610097565b61011d6101183660046104d0565b6102e3565b005b6060600080548060200260200160405190810160405280929190818152602001828054801561017757602002820191906000526020600020905b81546001600160a01b03168152600190910190602001808311610159575b5050505050905090565b6000808989898989898989604051610198906103a9565b6101a99897969594939291906105f5565b604051809103906000f0801580156101c5573d6000803e3d6000fd5b50600080546001810182558180527f290decd9548b62a8d60345a988386fc84ba6bc95484008f6362f93160ef3e5630180546001600160a01b0319166001600160a01b038416908117909155604051929350917f594c8763b5f61f9e3e2055698c14caa5f56c241a6c40906bf0dcef89145f77419190a29998505050505050505050565b60606001805480602002602001604051908101604052809291908181526020018280548015610177576020028201919060005260206000209081546001600160a01b03168152600190910190602001808311610159575050505050905090565b600181815481106102b957600080fd5b6000918252602090912001546001600160a01b0316905081565b600081815481106102b957600080fd5b600088888888888888886040516102f9906103b6565b61030a9897969594939291906105f5565b604051809103906000f080158015610326573d6000803e3d6000fd5b5060018054808201825560009182527fb10e2d527612073b26eecdfd717e6a320cf44b4afac2b0732d9fcbe2b7fa0cf60180546001600160a01b0319166001600160a01b038416908117909155604051929350917f1bf2df903eba33537e2be628317f35584fc802f3b23885b2725dce1e1c4121eb9190a2505050505050505050565b612c068061066083390190565b612d5f8061326683390190565b602080825282518282018190526000918401906040840190835b818110156104045783516001600160a01b03168352602093840193909201916001016103dd565b509095945050505050565b634e487b7160e01b600052604160045260246000fd5b600082601f83011261043657600080fd5b813567ffffffffffffffff8111156104505761045061040f565b604051601f8201601f19908116603f0116810167ffffffffffffffff8111828210171561047f5761047f61040f565b60405281815283820160200185101561049757600080fd5b816020850160208301376000918101602001919091529392505050565b80356001600160a01b03811681146104cb57600080fd5b919050565b600080600080600080600080610100898b0312156104ed57600080fd5b883567ffffffffffffffff81111561050457600080fd5b6105108b828c01610425565b985050602089013567ffffffffffffffff81111561052d57600080fd5b6105398b828c01610425565b97505061054860408a016104b4565b955061055660608a016104b4565b94506080890135935061056b60a08a016104b4565b925061057960c08a016104b4565b915061058760e08a016104b4565b90509295985092959890939650565b6000602082840312156105a857600080fd5b5035919050565b6000815180845260005b818110156105d5576020818501810151868301820152016105b9565b506000602082860101526020601f19601f83011685010191505092915050565b6101008152600061060a61010083018b6105af565b828103602084015261061c818b6105af565b6001600160a01b03998a16604085015297891660608401525050608081019490945291851660a0840152841660c083015290921660e0909201919091529291505056fe60e06040526009805460ff1916905534801561001a57600080fd5b50604051612c06380380612c06833981016040819052610039916101e1565b82828282818c8c8c8c6040518060400160405280600a8152602001696669786564207261746560b01b81525084600090816100749190610330565b5060016100818582610330565b50600280546001600160a01b0319166001600160a01b0385811691909117909155600480546001600160a81b03191691841691909117905560056100c58282610330565b5050506001600160a01b03948516608052505050811660a052600680546001600160a01b031916331790559190911660c052505050600892909255506103ee945050505050565b634e487b7160e01b600052604160045260246000fd5b600082601f83011261013357600080fd5b81516001600160401b0381111561014c5761014c61010c565b604051601f8201601f19908116603f011681016001600160401b038111828210171561017a5761017a61010c565b60405281815283820160200185101561019257600080fd5b60005b828110156101b157602081860181015183830182015201610195565b506000918101602001919091529392505050565b80516001600160a01b03811681146101dc57600080fd5b919050565b600080600080600080600080610100898b0312156101fe57600080fd5b88516001600160401b0381111561021457600080fd5b6102208b828c01610122565b60208b015190995090506001600160401b0381111561023e57600080fd5b61024a8b828c01610122565b97505061025960408a016101c5565b955061026760608a016101c5565b94506080890151935061027c60a08a016101c5565b925061028a60c08a016101c5565b915061029860e08a016101c5565b90509295985092959890939650565b600181811c908216806102bb57607f821691505b6020821081036102db57634e487b7160e01b600052602260045260246000fd5b50919050565b601f82111561032b57806000526020600020601f840160051c810160208510156103085750805b601f840160051c820191505b818110156103285760008155600101610314565b50505b505050565b81516001600160401b038111156103495761034961010c565b61035d8161035784546102a7565b846102e1565b6020601f82116001811461039157600083156103795750848201515b600019600385901b1c1916600184901b178455610328565b600084815260208120601f198516915b828110156103c157878501518255602094850194600190920191016103a1565b50848210156103df5786840151600019600387901b60f8161c191681555b50505050600190811b01905550565b60805160a05160c05161277961048d600039600081816102ed0152818161081a015281816108f701528181610a69015281816114d30152818161190f015281816119900152611b5501526000818161027d01528181610750015281816109810152818161120701528181611425015281816119bf0152611ac2015260008181610349015281816111960152818161175801526117c701526127796000f3fe6080604052600436106101355760003560e01c80639fd09854116100ab578063dd12d68b1161006f578063dd12d68b1461036b578063e508fe8b1461038b578063e5a6b10f146103b9578063e6400bbe146103d9578063ea8a1af0146103ee578063ef838f881461040357600080fd5b80639fd09854146102c6578063c6328a46146102db578063cb2ef6f71461030f578063cc165fe114610324578063da25b7251461033757600080fd5b8063529dca32116100fd578063529dca3214610201578063633423be146102145780636720ceb11461023457806384ab30a51461024957806384acd1bb1461026b578063900feb3b1461029f57600080fd5b80630d0175a91461013a57806310ccb04c1461017757806324600fc3146101a55780633fb4fe6f146101bc57806343d726d6146101ec575b600080fd5b34801561014657600080fd5b5060025461015a906001600160a01b031681565b6040516001600160a01b0390911681526020015b60405180910390f35b34801561018357600080fd5b5060045461019890600160a01b900460ff1681565b60405161016e9190611ba9565b3480156101b157600080fd5b506101ba610418565b005b3480156101c857600080fd5b506101dc6101d7366004611bdb565b61044d565b604051901515815260200161016e565b3480156101f857600080fd5b506101ba610647565b6101ba61020f366004611d7b565b6106c9565b34801561022057600080fd5b5060035461015a906001600160a01b031681565b34801561024057600080fd5b506101dc610be2565b34801561025557600080fd5b5061025e610da1565b60405161016e9190611ecd565b34801561027757600080fd5b5061015a7f000000000000000000000000000000000000000000000000000000000000000081565b3480156102ab57600080fd5b506009546102b99060ff1681565b60405161016e9190611ee0565b3480156102d257600080fd5b506101ba610e2f565b3480156102e757600080fd5b5061015a7f000000000000000000000000000000000000000000000000000000000000000081565b34801561031b57600080fd5b5061025e610ed3565b6101ba610332366004611ef4565b610ee0565b34801561034357600080fd5b5061015a7f000000000000000000000000000000000000000000000000000000000000000081565b34801561037757600080fd5b506101ba610386366004611f3f565b6110e3565b34801561039757600080fd5b506103ab6103a6366004611f5d565b611160565b60405190815260200161016e565b3480156103c557600080fd5b5060045461015a906001600160a01b031681565b3480156103e557600080fd5b506101ba611298565b3480156103fa57600080fd5b506101ba611393565b34801561040f57600080fd5b5061025e611414565b6002546001600160a01b0316331461044b5760405162461bcd60e51b815260040161044290611f7a565b60405180910390fd5b565b604051636eb1769f60e11b8152336004820152306024820152600090839083906001600160a01b0383169063dd62ed3e906044016020604051808303816000875af11580156104a0573d6000803e3d6000fd5b505050506040513d601f19601f820116820180604052508101906104c49190611fc6565b10156105125760405162461bcd60e51b815260206004820152601c60248201527f496e73756666696369656e7420746f6b656e20616c6c6f77616e6365000000006044820152606401610442565b6040516370a0823160e01b815233600482015283906001600160a01b038316906370a08231906024016020604051808303816000875af115801561055a573d6000803e3d6000fd5b505050506040513d601f19601f8201168201806040525081019061057e9190611fc6565b10156105c35760405162461bcd60e51b8152602060048201526014602482015273496e73756666696369656e742062616c616e636560601b6044820152606401610442565b6040516323b872dd60e01b8152336004820152306024820152604481018490526001600160a01b038216906323b872dd906064016020604051808303816000875af1158015610616573d6000803e3d6000fd5b505050506040513d601f19601f8201168201806040525081019061063a9190611fc6565b5060019150505b92915050565b6002546001600160a01b031633146106715760405162461bcd60e51b815260040161044290611f7a565b600360048054600160a01b900460ff169081111561069157610691611b93565b036106ae5760405162461bcd60e51b815260040161044290611fdf565b60048054819060ff60a01b1916600160a01b825b0217905550565b600084516001600160401b038111156106e4576106e4611c07565b60405190808252806020026020018201604052801561073d57816020015b6040805160a0810182526000808252602080830182905292820181905260608201819052608082015282526000199092019101816107025790505b50905060005b8551811015610bd95760007f00000000000000000000000000000000000000000000000000000000000000006001600160a01b031663a9e1189388848151811061078f5761078f612027565b60200260200101516040518263ffffffff1660e01b81526004016107b39190611ecd565b600060405180830381865afa1580156107d0573d6000803e3d6000fd5b505050506040513d6000823e601f3d908101601f191682016040526107f89190810190612181565b606081015160405163ad66a5f160e01b815261ffff90911660048201529091507f00000000000000000000000000000000000000000000000000000000000000006001600160a01b03169063ad66a5f190602401602060405180830381865afa158015610869573d6000803e3d6000fd5b505050506040513d601f19601f8201168201806040525081019061088d9190611fc6565b8160800151146108d85760405162461bcd60e51b81526020600482015260166024820152754e6f74206120546f6b656e204272696467652056414160501b6044820152606401610442565b60e081015160405163ea63738d60e01b81526000916001600160a01b037f0000000000000000000000000000000000000000000000000000000000000000169163ea63738d9161092a91600401611ecd565b600060405180830381865afa158015610947573d6000803e3d6000fd5b505050506040513d6000823e601f3d908101601f1916820160405261096f91908101906122ae565b9050308160800151148015610a1057507f00000000000000000000000000000000000000000000000000000000000000006001600160a01b0316639a8a05926040518163ffffffff1660e01b8152600401602060405180830381865afa1580156109dd573d6000803e3d6000fd5b505050506040513d601f19601f82011682018060405250810190610a019190612379565b61ffff168160a0015161ffff16145b610a675760405162461bcd60e51b815260206004820152602260248201527f546f6b656e20776173206e6f742073656e7420746f2074686973206164647265604482015261737360f01b6064820152608401610442565b7f00000000000000000000000000000000000000000000000000000000000000006001600160a01b031663c3f511c1898581518110610aa857610aa8612027565b60200260200101516040518263ffffffff1660e01b8152600401610acc9190611ecd565b6000604051808303816000875af1158015610aeb573d6000803e3d6000fd5b505050506040513d6000823e601f3d908101601f19168201604052610b139190810190612396565b506000610b2882606001518360400151611421565b90506000610b3582611554565b6020840151909150600860ff83161115610b6c57610b546008836123e0565b610b5f90600a6124e0565b610b6990826124ef565b90505b6040518060a0016040528085604001518152602001856060015161ffff168152602001846001600160a01b031681526020018281526020018560200151815250878781518110610bbe57610bbe612027565b60200260200101819052505050505050806001019050610743565b50505050505050565b6003546000906001600160a01b03163314610c535760405162461bcd60e51b815260206004820152602b60248201527f596f7520617265206e6f7420616c6f77656420746f206361727279206f75742060448201526a3a3434b99030b1ba34b7b760a91b6064820152608401610442565b600160048054600160a01b900460ff1690811115610c7357610c73611b93565b14610c905760405162461bcd60e51b815260040161044290612506565b600160095460ff166001811115610ca957610ca9611b93565b03610cf65760405162461bcd60e51b815260206004820152601d60248201527f5061796d656e742068617320616c7265616479206265656e2073656e740000006044820152606401610442565b600354600854610d0f916001600160a01b0316906115ef565b6009805460ff1916600117905560048054600160a21b60ff60a01b1990911617905560405130907f960f80c1468168314e9bb3daa45c4819ef0a7969615e253bbc73477997b1eb5890600090a26002546003546040516001600160a01b0392831692909116907f80cc066594d46a1c222dffb998d2a0b113cba551c911573a088260abc6cbebd690600090a350600190565b60018054610dae90612547565b80601f0160208091040260200160405190810160405280929190818152602001828054610dda90612547565b8015610e275780601f10610dfc57610100808354040283529160200191610e27565b820191906000526020600020905b815481529060010190602001808311610e0a57829003601f168201915b505050505081565b600060048054600160a01b900460ff1690811115610e4f57610e4f611b93565b14610ea75760405162461bcd60e51b815260206004820152602260248201527f5468697320636f6e7472616374206973206e6f206c6f6e6765722070656e64696044820152616e6760f01b6064820152608401610442565b600380546001600160a01b03191633179055600480546001919060ff60a01b1916600160a01b836106c2565b60058054610dae90612547565b600160048054600160a01b900460ff1690811115610f0057610f00611b93565b14610f1d5760405162461bcd60e51b815260040161044290612506565b600160095460ff166001811115610f3657610f36611b93565b03610f835760405162461bcd60e51b815260206004820152601d60248201527f5061796d656e742068617320616c7265616479206265656e2073656e740000006044820152606401610442565b6000610f8e84611160565b9050803414610ffd5760405162461bcd60e51b815260206004820152603560248201527f6d73672e76616c7565206d7573742062652071756f746543726f7373436861696044820152746e4465706f73697428746172676574436861696e2960581b6064820152608401610442565b604080516001600160a01b038416602082015260009101604051602081830303815290604052905061104f85858360006203d090600460009054906101000a90046001600160a01b03166008546116b3565b506009805460ff1916600117905560048054600160a21b60ff60a01b1990911617905560405130907f960f80c1468168314e9bb3daa45c4819ef0a7969615e253bbc73477997b1eb5890600090a26002546003546040516001600160a01b0392831692909116907f80cc066594d46a1c222dffb998d2a0b113cba551c911573a088260abc6cbebd690600090a35050505050565b6006546001600160a01b031633146111495760405162461bcd60e51b8152602060048201526024808201527f4e6f7420616c6c6f77656420746f207365742072656769737465726564207365604482015263373232b960e11b6064820152608401610442565b61ffff909116600090815260076020526040902055565b60405163c23ee3c360e01b815261ffff821660048201526000602482018190526203d09060448301529081906001600160a01b037f0000000000000000000000000000000000000000000000000000000000000000169063c23ee3c3906064016040805180830381865afa1580156111dc573d6000803e3d6000fd5b505050506040513d601f19601f820116820180604052508101906112009190612581565b50809150507f00000000000000000000000000000000000000000000000000000000000000006001600160a01b0316631a90a2196040518163ffffffff1660e01b8152600401602060405180830381865afa158015611263573d6000803e3d6000fd5b505050506040513d601f19601f820116820180604052508101906112879190611fc6565b61129190826125a5565b9392505050565b6002546001600160a01b031633146112c25760405162461bcd60e51b815260040161044290611f7a565b600360048054600160a01b900460ff16908111156112e2576112e2611b93565b036112ff5760405162461bcd60e51b815260040161044290611fdf565b6004808054600160a01b900460ff169081111561131e5761131e611b93565b036113795760405162461bcd60e51b815260206004820152602560248201527f5468697320636f6e74726163742068617320616c7265616479206265656e20636044820152641b1bdcd95960da1b6064820152608401610442565b600480546002919060ff60a01b1916600160a01b836106c2565b6002546001600160a01b031633146113bd5760405162461bcd60e51b815260040161044290611f7a565b600360048054600160a01b900460ff16908111156113dd576113dd611b93565b036113fa5760405162461bcd60e51b815260040161044290611fdf565b600480546003919060ff60a01b1916600160a01b836106c2565b60008054610dae90612547565b60007f00000000000000000000000000000000000000000000000000000000000000006001600160a01b0316639a8a05926040518163ffffffff1660e01b8152600401602060405180830381865afa158015611481573d6000803e3d6000fd5b505050506040513d601f19601f820116820180604052508101906114a59190612379565b61ffff168361ffff161461154b57604051630ff8f14360e11b815261ffff84166004820152602481018390527f00000000000000000000000000000000000000000000000000000000000000006001600160a01b031690631ff1e28690604401602060405180830381865afa158015611522573d6000803e3d6000fd5b505050506040513d601f19601f8201168201806040525081019061154691906125b8565b611291565b6112918261186d565b60408051600481526024810182526020810180516001600160e01b031663313ce56760e01b179052905160009182916001600160a01b03851691611597916125d5565b600060405180830381855afa9150503d80600081146115d2576040519150601f19603f3d011682016040523d82523d6000602084013e6115d7565b606091505b509150508080602001905181019061129191906125f1565b6004805460405163a9059cbb60e01b81526001600160a01b038581169382019390935260248101849052911690819063a9059cbb906044016020604051808303816000875af1158015611646573d6000803e3d6000fd5b505050506040513d601f19601f8201168201806040525081019061166a919061260c565b6116ae5760405162461bcd60e51b8152602060048201526015602482015274151bdad95b881d1c985b9cd9995c8819985a5b1959605a1b6044820152606401610442565b505050565b604080516001808252818301909252600091829190816020015b60408051606081018252600080825260208083018290529282015282526000199092019101816116cd57905050905061170884848b8b611899565b8160008151811061171b5761171b612027565b602090810291909101015260405163c23ee3c360e01b815261ffff8a16600482015260248101879052604481018690526000906001600160a01b037f0000000000000000000000000000000000000000000000000000000000000000169063c23ee3c3906064016040805180830381865afa15801561179e573d6000803e3d6000fd5b505050506040513d601f19601f820116820180604052508101906117c29190612581565b5090507f00000000000000000000000000000000000000000000000000000000000000006001600160a01b031663329a2be7828c8c8c8c8c896040518863ffffffff1660e01b815260040161181c9695949392919061262e565b60206040518083038185885af115801561183a573d6000803e3d6000fd5b50505050506040513d601f19601f8201168201806040525081019061185f91906126d9565b9a9950505050505050505050565b600060a082901c156118955760405163033b960d60e41b815260048101839052602401610442565b5090565b60408051606081018252600080825260208201819052918101919091526118d285858585604051806020016040528060008152506118db565b95945050505050565b604080516060810182526000808252602082018190529181019190915260405163095ea7b360e01b81526001600160a01b037f0000000000000000000000000000000000000000000000000000000000000000811660048301526024820187905287169063095ea7b3906044016020604051808303816000875af1158015611967573d6000803e3d6000fd5b505050506040513d601f19601f8201168201806040525081019061198b919061260c565b5060007f00000000000000000000000000000000000000000000000000000000000000006001600160a01b031663c5a5ebda7f00000000000000000000000000000000000000000000000000000000000000006001600160a01b0316631a90a2196040518163ffffffff1660e01b8152600401602060405180830381865afa158015611a1b573d6000803e3d6000fd5b505050506040513d601f19601f82011682018060405250810190611a3f9190611fc6565b8989896001600160a01b038a1660008a6040518863ffffffff1660e01b8152600401611a70969594939291906126f4565b60206040518083038185885af1158015611a8e573d6000803e3d6000fd5b50505050506040513d601f19601f82011682018060405250810190611ab391906126d9565b905060405180606001604052807f00000000000000000000000000000000000000000000000000000000000000006001600160a01b0316639a8a05926040518163ffffffff1660e01b8152600401602060405180830381865afa158015611b1e573d6000803e3d6000fd5b505050506040513d601f19601f82011682018060405250810190611b429190612379565b61ffff1681526020016001600160a01b037f0000000000000000000000000000000000000000000000000000000000000000168152602001826001600160401b031681525091505095945050505050565b634e487b7160e01b600052602160045260246000fd5b6020810160058310611bbd57611bbd611b93565b91905290565b6001600160a01b0381168114611bd857600080fd5b50565b60008060408385031215611bee57600080fd5b8235611bf981611bc3565b946020939093013593505050565b634e487b7160e01b600052604160045260246000fd5b604051608081016001600160401b0381118282101715611c3f57611c3f611c07565b60405290565b60405161016081016001600160401b0381118282101715611c3f57611c3f611c07565b60405161010081016001600160401b0381118282101715611c3f57611c3f611c07565b604051601f8201601f191681016001600160401b0381118282101715611cb357611cb3611c07565b604052919050565b60006001600160401b03821115611cd457611cd4611c07565b50601f01601f191660200190565b600082601f830112611cf357600080fd5b8135611d06611d0182611cbb565b611c8b565b818152846020838601011115611d1b57600080fd5b816020850160208301376000918101602001919091529392505050565b60006001600160401b03821115611d5157611d51611c07565b5060051b60200190565b61ffff81168114611bd857600080fd5b8035611d7681611d5b565b919050565b600080600080600060a08688031215611d9357600080fd5b85356001600160401b03811115611da957600080fd5b611db588828901611ce2565b95505060208601356001600160401b03811115611dd157600080fd5b8601601f81018813611de257600080fd5b8035611df0611d0182611d38565b8082825260208201915060208360051b85010192508a831115611e1257600080fd5b602084015b83811015611e535780356001600160401b03811115611e3557600080fd5b611e448d602083890101611ce2565b84525060209283019201611e17565b50965050505060408601359250611e6c60608701611d6b565b949793965091946080013592915050565b60005b83811015611e98578181015183820152602001611e80565b50506000910152565b60008151808452611eb9816020860160208601611e7d565b601f01601f19169290920160200192915050565b6020815260006112916020830184611ea1565b6020810160028310611bbd57611bbd611b93565b600080600060608486031215611f0957600080fd5b8335611f1481611d5b565b92506020840135611f2481611bc3565b91506040840135611f3481611bc3565b809150509250925092565b60008060408385031215611f5257600080fd5b8235611bf981611d5b565b600060208284031215611f6f57600080fd5b813561129181611d5b565b6020808252602c908201527f596f7520617265206e6f7420616c6c6f77656420746f206361727279206f757460408201526b103a3434b99030b1ba34b7b760a11b606082015260800190565b600060208284031215611fd857600080fd5b5051919050565b60208082526028908201527f5468697320636f6e74726163742068617320616c7265616479206265656e2063604082015267185b98d95b1b195960c21b606082015260800190565b634e487b7160e01b600052603260045260246000fd5b805160ff81168114611d7657600080fd5b805163ffffffff81168114611d7657600080fd5b8051611d7681611d5b565b80516001600160401b0381168114611d7657600080fd5b600082601f83011261209557600080fd5b81516120a3611d0182611cbb565b8181528460208386010111156120b857600080fd5b6120c9826020830160208701611e7d565b949350505050565b600082601f8301126120e257600080fd5b81516120f0611d0182611d38565b8082825260208201915060208360071b86010192508583111561211257600080fd5b602085015b83811015612177576080818803121561212f57600080fd5b612137611c1d565b81518152602080830151908201526121516040830161203d565b60408201526121626060830161203d565b60608201528352602090920191608001612117565b5095945050505050565b60006020828403121561219357600080fd5b81516001600160401b038111156121a957600080fd5b820161016081850312156121bc57600080fd5b6121c4611c45565b6121cd8261203d565b81526121db6020830161204e565b60208201526121ec6040830161204e565b60408201526121fd60608301612062565b60608201526080828101519082015261221860a0830161206d565b60a082015261222960c0830161203d565b60c082015260e08201516001600160401b0381111561224757600080fd5b61225386828501612084565b60e083015250612266610100830161204e565b6101008201526101208201516001600160401b0381111561228657600080fd5b612292868285016120d1565b6101208301525061014091820151918101919091529392505050565b6000602082840312156122c057600080fd5b81516001600160401b038111156122d657600080fd5b820161010081850312156122e957600080fd5b6122f1611c68565b6122fa8261203d565b8152602082810151908201526040808301519082015261231c60608301612062565b60608201526080828101519082015261233760a08301612062565b60a082015260c0828101519082015260e08201516001600160401b0381111561235f57600080fd5b61236b86828501612084565b60e083015250949350505050565b60006020828403121561238b57600080fd5b815161129181611d5b565b6000602082840312156123a857600080fd5b81516001600160401b038111156123be57600080fd5b6120c984828501612084565b634e487b7160e01b600052601160045260246000fd5b60ff8281168282160390811115610641576106416123ca565b6001815b600184111561243457808504811115612418576124186123ca565b600184161561242657908102905b60019390931c9280026123fd565b935093915050565b60008261244b57506001610641565b8161245857506000610641565b816001811461246e576002811461247857612494565b6001915050610641565b60ff841115612489576124896123ca565b50506001821b610641565b5060208310610133831016604e8410600b84101617156124b7575081810a610641565b6124c460001984846123f9565b80600019048211156124d8576124d86123ca565b029392505050565b600061129160ff84168361243c565b8082028115828204841417610641576106416123ca565b60208082526021908201527f5468697320636f6e7472616374206973206e6f206c6f6e6765722061637469766040820152606560f81b606082015260800190565b600181811c9082168061255b57607f821691505b60208210810361257b57634e487b7160e01b600052602260045260246000fd5b50919050565b6000806040838503121561259457600080fd5b505080516020909101519092909150565b80820180821115610641576106416123ca565b6000602082840312156125ca57600080fd5b815161129181611bc3565b600082516125e7818460208701611e7d565b9190910192915050565b60006020828403121561260357600080fd5b6112918261203d565b60006020828403121561261e57600080fd5b8151801515811461129157600080fd5b61ffff871681526001600160a01b038616602082015260c06040820181905260009061265c90830187611ea1565b606083018690526080830185905282810360a08401528351808252602080860192019060005b818110156126c957835161ffff8151168452602081015160208501526001600160401b03604082015116604085015250606083019250602084019350600181019050612682565b50909a9950505050505050505050565b6000602082840312156126eb57600080fd5b6112918261206d565b60018060a01b038716815285602082015261ffff8516604082015283606082015263ffffffff8316608082015260c060a0820152600061273760c0830184611ea1565b9897505050505050505056fea264697066735822122036862d1919639f76d6e4fd382ee338a89d56d0ac326966a84ad89f9dfc25292264736f6c634300081a003360e06040526000600855600060095534801561001a57600080fd5b50604051612d5f380380612d5f833981016040819052610039916101e4565b82828282818c8c8c8c6040518060400160405280600d81526020016c70617920617320796f7520676f60981b81525084600090816100779190610333565b5060016100848582610333565b50600280546001600160a01b0319166001600160a01b0385811691909117909155600480546001600160a81b03191691841691909117905560056100c88282610333565b5050506001600160a01b03948516608052505050811660a052600680546001600160a01b031916331790559190911660c052505050600b92909255506103f1945050505050565b634e487b7160e01b600052604160045260246000fd5b600082601f83011261013657600080fd5b81516001600160401b0381111561014f5761014f61010f565b604051601f8201601f19908116603f011681016001600160401b038111828210171561017d5761017d61010f565b60405281815283820160200185101561019557600080fd5b60005b828110156101b457602081860181015183830182015201610198565b506000918101602001919091529392505050565b80516001600160a01b03811681146101df57600080fd5b919050565b600080600080600080600080610100898b03121561020157600080fd5b88516001600160401b0381111561021757600080fd5b6102238b828c01610125565b60208b015190995090506001600160401b0381111561024157600080fd5b61024d8b828c01610125565b97505061025c60408a016101c8565b955061026a60608a016101c8565b94506080890151935061027f60a08a016101c8565b925061028d60c08a016101c8565b915061029b60e08a016101c8565b90509295985092959890939650565b600181811c908216806102be57607f821691505b6020821081036102de57634e487b7160e01b600052602260045260246000fd5b50919050565b601f82111561032e57806000526020600020601f840160051c8101602085101561030b5750805b601f840160051c820191505b8181101561032b5760008155600101610317565b50505b505050565b81516001600160401b0381111561034c5761034c61010f565b6103608161035a84546102aa565b846102e4565b6020601f821160018114610394576000831561037c5750848201515b600019600385901b1c1916600184901b17845561032b565b600084815260208120601f198516915b828110156103c457878501518255602094850194600190920191016103a4565b50848210156103e25786840151600019600387901b60f8161c191681555b50505050600190811b01905550565b60805160a05160c0516128cf6104906000396000818161039e0152818161093601528181610a1301528181610b85015281816115be015281816119fa01528181611a7b0152611c400152600081816103180152818161086c01528181610a9d015281816112f20152818161151001528181611aaa0152611bad0152600081816103fa015281816112810152818161184301526118b201526128cf6000f3fe6080604052600436106101815760003560e01c806387d81789116100d1578063da860f1b1161008a578063e5a6b10f11610064578063e5a6b10f1461047c578063e6400bbe1461049c578063ea8a1af0146104b1578063ef838f88146104c657600080fd5b8063da860f1b1461041c578063dd12d68b1461043c578063e508fe8b1461045c57600080fd5b806387d817891461033a5780639fd0985414610377578063c6328a461461038c578063cb2ef6f7146103c0578063cc165fe1146103d5578063da25b725146103e857600080fd5b806343d726d61161013e578063633423be11610118578063633423be146102af5780636720ceb1146102cf57806384ab30a5146102e457806384acd1bb1461030657600080fd5b806343d726d6146102725780634b88562114610287578063529dca321461029c57600080fd5b80630d0175a91461018657806310ccb04c146101c357806310e8adb6146101f15780631101f8181461021557806324600fc31461022b5780633fb4fe6f14610242575b600080fd5b34801561019257600080fd5b506002546101a6906001600160a01b031681565b6040516001600160a01b0390911681526020015b60405180910390f35b3480156101cf57600080fd5b506004546101e490600160a01b900460ff1681565b6040516101ba9190611c94565b3480156101fd57600080fd5b5061020760085481565b6040519081526020016101ba565b34801561022157600080fd5b5061020760095481565b34801561023757600080fd5b506102406104db565b005b34801561024e57600080fd5b5061026261025d366004611cd1565b610510565b60405190151581526020016101ba565b34801561027e57600080fd5b5061024061070a565b34801561029357600080fd5b5061026261078c565b6102406102aa366004611e71565b6107e5565b3480156102bb57600080fd5b506003546101a6906001600160a01b031681565b3480156102db57600080fd5b50610262610cfe565b3480156102f057600080fd5b506102f9610e61565b6040516101ba9190611fc3565b34801561031257600080fd5b506101a67f000000000000000000000000000000000000000000000000000000000000000081565b34801561034657600080fd5b5061035a610355366004611fd6565b610eef565b604080519283526001600160a01b039091166020830152016101ba565b34801561038357600080fd5b50610240610f26565b34801561039857600080fd5b506101a67f000000000000000000000000000000000000000000000000000000000000000081565b3480156103cc57600080fd5b506102f9610fca565b6102406103e3366004611fef565b610fd7565b3480156103f457600080fd5b506101a67f000000000000000000000000000000000000000000000000000000000000000081565b34801561042857600080fd5b50610240610437366004611fd6565b6111a1565b34801561044857600080fd5b5061024061045736600461203a565b6111ce565b34801561046857600080fd5b50610207610477366004612058565b61124b565b34801561048857600080fd5b506004546101a6906001600160a01b031681565b3480156104a857600080fd5b50610240611383565b3480156104bd57600080fd5b5061024061147e565b3480156104d257600080fd5b506102f96114ff565b6002546001600160a01b0316331461050e5760405162461bcd60e51b815260040161050590612075565b60405180910390fd5b565b604051636eb1769f60e11b8152336004820152306024820152600090839083906001600160a01b0383169063dd62ed3e906044016020604051808303816000875af1158015610563573d6000803e3d6000fd5b505050506040513d601f19601f8201168201806040525081019061058791906120c1565b10156105d55760405162461bcd60e51b815260206004820152601c60248201527f496e73756666696369656e7420746f6b656e20616c6c6f77616e6365000000006044820152606401610505565b6040516370a0823160e01b815233600482015283906001600160a01b038316906370a08231906024016020604051808303816000875af115801561061d573d6000803e3d6000fd5b505050506040513d601f19601f8201168201806040525081019061064191906120c1565b10156106865760405162461bcd60e51b8152602060048201526014602482015273496e73756666696369656e742062616c616e636560601b6044820152606401610505565b6040516323b872dd60e01b8152336004820152306024820152604481018490526001600160a01b038216906323b872dd906064016020604051808303816000875af11580156106d9573d6000803e3d6000fd5b505050506040513d601f19601f820116820180604052508101906106fd91906120c1565b5060019150505b92915050565b6002546001600160a01b031633146107345760405162461bcd60e51b815260040161050590612075565b600360048054600160a01b900460ff169081111561075457610754611c7e565b036107715760405162461bcd60e51b8152600401610505906120da565b60048054819060ff60a01b1916600160a01b825b0217905550565b6000600160048054600160a01b900460ff16908111156107ae576107ae611c7e565b146107cb5760405162461bcd60e51b815260040161050590612122565b6008600081546107da90612179565b909155506001919050565b600084516001600160401b0381111561080057610800611cfd565b60405190808252806020026020018201604052801561085957816020015b6040805160a08101825260008082526020808301829052928201819052606082018190526080820152825260001990920191018161081e5790505b50905060005b8551811015610cf55760007f00000000000000000000000000000000000000000000000000000000000000006001600160a01b031663a9e118938884815181106108ab576108ab612192565b60200260200101516040518263ffffffff1660e01b81526004016108cf9190611fc3565b600060405180830381865afa1580156108ec573d6000803e3d6000fd5b505050506040513d6000823e601f3d908101601f1916820160405261091491908101906122ec565b606081015160405163ad66a5f160e01b815261ffff90911660048201529091507f00000000000000000000000000000000000000000000000000000000000000006001600160a01b03169063ad66a5f190602401602060405180830381865afa158015610985573d6000803e3d6000fd5b505050506040513d601f19601f820116820180604052508101906109a991906120c1565b8160800151146109f45760405162461bcd60e51b81526020600482015260166024820152754e6f74206120546f6b656e204272696467652056414160501b6044820152606401610505565b60e081015160405163ea63738d60e01b81526000916001600160a01b037f0000000000000000000000000000000000000000000000000000000000000000169163ea63738d91610a4691600401611fc3565b600060405180830381865afa158015610a63573d6000803e3d6000fd5b505050506040513d6000823e601f3d908101601f19168201604052610a8b9190810190612419565b9050308160800151148015610b2c57507f00000000000000000000000000000000000000000000000000000000000000006001600160a01b0316639a8a05926040518163ffffffff1660e01b8152600401602060405180830381865afa158015610af9573d6000803e3d6000fd5b505050506040513d601f19601f82011682018060405250810190610b1d91906124e4565b61ffff168160a0015161ffff16145b610b835760405162461bcd60e51b815260206004820152602260248201527f546f6b656e20776173206e6f742073656e7420746f2074686973206164647265604482015261737360f01b6064820152608401610505565b7f00000000000000000000000000000000000000000000000000000000000000006001600160a01b031663c3f511c1898581518110610bc457610bc4612192565b60200260200101516040518263ffffffff1660e01b8152600401610be89190611fc3565b6000604051808303816000875af1158015610c07573d6000803e3d6000fd5b505050506040513d6000823e601f3d908101601f19168201604052610c2f9190810190612501565b506000610c448260600151836040015161150c565b90506000610c518261163f565b6020840151909150600860ff83161115610c8857610c70600883612535565b610c7b90600a612635565b610c859082612644565b90505b6040518060a0016040528085604001518152602001856060015161ffff168152602001846001600160a01b031681526020018281526020018560200151815250878781518110610cda57610cda612192565b6020026020010181905250505050505080600101905061085f565b50505050505050565b6003546000906001600160a01b03163314610d6f5760405162461bcd60e51b815260206004820152602b60248201527f596f7520617265206e6f7420616c6f77656420746f206361727279206f75742060448201526a3a3434b99030b1ba34b7b760a91b6064820152608401610505565b600160048054600160a01b900460ff1690811115610d8f57610d8f611c7e565b14610dac5760405162461bcd60e51b815260040161050590612122565b60095460085411610dcf5760405162461bcd60e51b81526004016105059061265b565b600354600b54610de8916001600160a01b0316906116da565b60405130907f960f80c1468168314e9bb3daa45c4819ef0a7969615e253bbc73477997b1eb5890600090a26002546003546040516001600160a01b0392831692909116907f433731019d78f9808cedc4435fc0eefc894b9a6f2147b6afbc20d284fe41955c90600090a36009600081546107da90612179565b60018054610e6e9061269d565b80601f0160208091040260200160405190810160405280929190818152602001828054610e9a9061269d565b8015610ee75780601f10610ebc57610100808354040283529160200191610ee7565b820191906000526020600020905b815481529060010190602001808311610eca57829003601f168201915b505050505081565b600a8181548110610eff57600080fd5b6000918252602090912060029091020180546001909101549091506001600160a01b031682565b600060048054600160a01b900460ff1690811115610f4657610f46611c7e565b14610f9e5760405162461bcd60e51b815260206004820152602260248201527f5468697320636f6e7472616374206973206e6f206c6f6e6765722070656e64696044820152616e6760f01b6064820152608401610505565b600380546001600160a01b03191633179055600480546001919060ff60a01b1916600160a01b83610785565b60058054610e6e9061269d565b600160048054600160a01b900460ff1690811115610ff757610ff7611c7e565b146110145760405162461bcd60e51b815260040161050590612122565b600954600854116110375760405162461bcd60e51b81526004016105059061265b565b60006110428461124b565b90508034146110b15760405162461bcd60e51b815260206004820152603560248201527f6d73672e76616c7565206d7573742062652071756f746543726f7373436861696044820152746e4465706f73697428746172676574436861696e2960581b6064820152608401610505565b604080516001600160a01b038416602082015260009101604051602081830303815290604052905061110385858360006203d090600460009054906101000a90046001600160a01b0316600b5461179e565b50600354600b5461111d916001600160a01b0316906116da565b60405130907f960f80c1468168314e9bb3daa45c4819ef0a7969615e253bbc73477997b1eb5890600090a26002546003546040516001600160a01b0392831692909116907f433731019d78f9808cedc4435fc0eefc894b9a6f2147b6afbc20d284fe41955c90600090a360096000815461119690612179565b909155505050505050565b6002546001600160a01b031633146111cb5760405162461bcd60e51b815260040161050590612075565b50565b6006546001600160a01b031633146112345760405162461bcd60e51b8152602060048201526024808201527f4e6f7420616c6c6f77656420746f207365742072656769737465726564207365604482015263373232b960e11b6064820152608401610505565b61ffff909116600090815260076020526040902055565b60405163c23ee3c360e01b815261ffff821660048201526000602482018190526203d09060448301529081906001600160a01b037f0000000000000000000000000000000000000000000000000000000000000000169063c23ee3c3906064016040805180830381865afa1580156112c7573d6000803e3d6000fd5b505050506040513d601f19601f820116820180604052508101906112eb91906126d7565b50809150507f00000000000000000000000000000000000000000000000000000000000000006001600160a01b0316631a90a2196040518163ffffffff1660e01b8152600401602060405180830381865afa15801561134e573d6000803e3d6000fd5b505050506040513d601f19601f8201168201806040525081019061137291906120c1565b61137c90826126fb565b9392505050565b6002546001600160a01b031633146113ad5760405162461bcd60e51b815260040161050590612075565b600360048054600160a01b900460ff16908111156113cd576113cd611c7e565b036113ea5760405162461bcd60e51b8152600401610505906120da565b6004808054600160a01b900460ff169081111561140957611409611c7e565b036114645760405162461bcd60e51b815260206004820152602560248201527f5468697320636f6e74726163742068617320616c7265616479206265656e20636044820152641b1bdcd95960da1b6064820152608401610505565b600480546002919060ff60a01b1916600160a01b83610785565b6002546001600160a01b031633146114a85760405162461bcd60e51b815260040161050590612075565b600360048054600160a01b900460ff16908111156114c8576114c8611c7e565b036114e55760405162461bcd60e51b8152600401610505906120da565b600480546003919060ff60a01b1916600160a01b83610785565b60008054610e6e9061269d565b60007f00000000000000000000000000000000000000000000000000000000000000006001600160a01b0316639a8a05926040518163ffffffff1660e01b8152600401602060405180830381865afa15801561156c573d6000803e3d6000fd5b505050506040513d601f19601f8201168201806040525081019061159091906124e4565b61ffff168361ffff161461163657604051630ff8f14360e11b815261ffff84166004820152602481018390527f00000000000000000000000000000000000000000000000000000000000000006001600160a01b031690631ff1e28690604401602060405180830381865afa15801561160d573d6000803e3d6000fd5b505050506040513d601f19601f82011682018060405250810190611631919061270e565b61137c565b61137c82611958565b60408051600481526024810182526020810180516001600160e01b031663313ce56760e01b179052905160009182916001600160a01b038516916116829161272b565b600060405180830381855afa9150503d80600081146116bd576040519150601f19603f3d011682016040523d82523d6000602084013e6116c2565b606091505b509150508080602001905181019061137c9190612747565b6004805460405163a9059cbb60e01b81526001600160a01b038581169382019390935260248101849052911690819063a9059cbb906044016020604051808303816000875af1158015611731573d6000803e3d6000fd5b505050506040513d601f19601f820116820180604052508101906117559190612762565b6117995760405162461bcd60e51b8152602060048201526015602482015274151bdad95b881d1c985b9cd9995c8819985a5b1959605a1b6044820152606401610505565b505050565b604080516001808252818301909252600091829190816020015b60408051606081018252600080825260208083018290529282015282526000199092019101816117b85790505090506117f384848b8b611984565b8160008151811061180657611806612192565b602090810291909101015260405163c23ee3c360e01b815261ffff8a16600482015260248101879052604481018690526000906001600160a01b037f0000000000000000000000000000000000000000000000000000000000000000169063c23ee3c3906064016040805180830381865afa158015611889573d6000803e3d6000fd5b505050506040513d601f19601f820116820180604052508101906118ad91906126d7565b5090507f00000000000000000000000000000000000000000000000000000000000000006001600160a01b031663329a2be7828c8c8c8c8c896040518863ffffffff1660e01b815260040161190796959493929190612784565b60206040518083038185885af1158015611925573d6000803e3d6000fd5b50505050506040513d601f19601f8201168201806040525081019061194a919061282f565b9a9950505050505050505050565b600060a082901c156119805760405163033b960d60e41b815260048101839052602401610505565b5090565b60408051606081018252600080825260208201819052918101919091526119bd85858585604051806020016040528060008152506119c6565b95945050505050565b604080516060810182526000808252602082018190529181019190915260405163095ea7b360e01b81526001600160a01b037f0000000000000000000000000000000000000000000000000000000000000000811660048301526024820187905287169063095ea7b3906044016020604051808303816000875af1158015611a52573d6000803e3d6000fd5b505050506040513d601f19601f82011682018060405250810190611a769190612762565b5060007f00000000000000000000000000000000000000000000000000000000000000006001600160a01b031663c5a5ebda7f00000000000000000000000000000000000000000000000000000000000000006001600160a01b0316631a90a2196040518163ffffffff1660e01b8152600401602060405180830381865afa158015611b06573d6000803e3d6000fd5b505050506040513d601f19601f82011682018060405250810190611b2a91906120c1565b8989896001600160a01b038a1660008a6040518863ffffffff1660e01b8152600401611b5b9695949392919061284a565b60206040518083038185885af1158015611b79573d6000803e3d6000fd5b50505050506040513d601f19601f82011682018060405250810190611b9e919061282f565b905060405180606001604052807f00000000000000000000000000000000000000000000000000000000000000006001600160a01b0316639a8a05926040518163ffffffff1660e01b8152600401602060405180830381865afa158015611c09573d6000803e3d6000fd5b505050506040513d601f19601f82011682018060405250810190611c2d91906124e4565b61ffff1681526020016001600160a01b037f0000000000000000000000000000000000000000000000000000000000000000168152602001826001600160401b031681525091505095945050505050565b634e487b7160e01b600052602160045260246000fd5b6020810160058310611cb657634e487b7160e01b600052602160045260246000fd5b91905290565b6001600160a01b03811681146111cb57600080fd5b60008060408385031215611ce457600080fd5b8235611cef81611cbc565b946020939093013593505050565b634e487b7160e01b600052604160045260246000fd5b604051608081016001600160401b0381118282101715611d3557611d35611cfd565b60405290565b60405161016081016001600160401b0381118282101715611d3557611d35611cfd565b60405161010081016001600160401b0381118282101715611d3557611d35611cfd565b604051601f8201601f191681016001600160401b0381118282101715611da957611da9611cfd565b604052919050565b60006001600160401b03821115611dca57611dca611cfd565b50601f01601f191660200190565b600082601f830112611de957600080fd5b8135611dfc611df782611db1565b611d81565b818152846020838601011115611e1157600080fd5b816020850160208301376000918101602001919091529392505050565b60006001600160401b03821115611e4757611e47611cfd565b5060051b60200190565b61ffff811681146111cb57600080fd5b8035611e6c81611e51565b919050565b600080600080600060a08688031215611e8957600080fd5b85356001600160401b03811115611e9f57600080fd5b611eab88828901611dd8565b95505060208601356001600160401b03811115611ec757600080fd5b8601601f81018813611ed857600080fd5b8035611ee6611df782611e2e565b8082825260208201915060208360051b85010192508a831115611f0857600080fd5b602084015b83811015611f495780356001600160401b03811115611f2b57600080fd5b611f3a8d602083890101611dd8565b84525060209283019201611f0d565b50965050505060408601359250611f6260608701611e61565b949793965091946080013592915050565b60005b83811015611f8e578181015183820152602001611f76565b50506000910152565b60008151808452611faf816020860160208601611f73565b601f01601f19169290920160200192915050565b60208152600061137c6020830184611f97565b600060208284031215611fe857600080fd5b5035919050565b60008060006060848603121561200457600080fd5b833561200f81611e51565b9250602084013561201f81611cbc565b9150604084013561202f81611cbc565b809150509250925092565b6000806040838503121561204d57600080fd5b8235611cef81611e51565b60006020828403121561206a57600080fd5b813561137c81611e51565b6020808252602c908201527f596f7520617265206e6f7420616c6c6f77656420746f206361727279206f757460408201526b103a3434b99030b1ba34b7b760a11b606082015260800190565b6000602082840312156120d357600080fd5b5051919050565b60208082526028908201527f5468697320636f6e74726163742068617320616c7265616479206265656e2063604082015267185b98d95b1b195960c21b606082015260800190565b60208082526021908201527f5468697320636f6e7472616374206973206e6f206c6f6e6765722061637469766040820152606560f81b606082015260800190565b634e487b7160e01b600052601160045260246000fd5b60006001820161218b5761218b612163565b5060010190565b634e487b7160e01b600052603260045260246000fd5b805160ff81168114611e6c57600080fd5b805163ffffffff81168114611e6c57600080fd5b8051611e6c81611e51565b80516001600160401b0381168114611e6c57600080fd5b600082601f83011261220057600080fd5b815161220e611df782611db1565b81815284602083860101111561222357600080fd5b612234826020830160208701611f73565b949350505050565b600082601f83011261224d57600080fd5b815161225b611df782611e2e565b8082825260208201915060208360071b86010192508583111561227d57600080fd5b602085015b838110156122e2576080818803121561229a57600080fd5b6122a2611d13565b81518152602080830151908201526122bc604083016121a8565b60408201526122cd606083016121a8565b60608201528352602090920191608001612282565b5095945050505050565b6000602082840312156122fe57600080fd5b81516001600160401b0381111561231457600080fd5b8201610160818503121561232757600080fd5b61232f611d3b565b612338826121a8565b8152612346602083016121b9565b6020820152612357604083016121b9565b6040820152612368606083016121cd565b60608201526080828101519082015261238360a083016121d8565b60a082015261239460c083016121a8565b60c082015260e08201516001600160401b038111156123b257600080fd5b6123be868285016121ef565b60e0830152506123d161010083016121b9565b6101008201526101208201516001600160401b038111156123f157600080fd5b6123fd8682850161223c565b6101208301525061014091820151918101919091529392505050565b60006020828403121561242b57600080fd5b81516001600160401b0381111561244157600080fd5b8201610100818503121561245457600080fd5b61245c611d5e565b612465826121a8565b81526020828101519082015260408083015190820152612487606083016121cd565b6060820152608082810151908201526124a260a083016121cd565b60a082015260c0828101519082015260e08201516001600160401b038111156124ca57600080fd5b6124d6868285016121ef565b60e083015250949350505050565b6000602082840312156124f657600080fd5b815161137c81611e51565b60006020828403121561251357600080fd5b81516001600160401b0381111561252957600080fd5b612234848285016121ef565b60ff828116828216039081111561070457610704612163565b6001815b60018411156125895780850481111561256d5761256d612163565b600184161561257b57908102905b60019390931c928002612552565b935093915050565b6000826125a057506001610704565b816125ad57506000610704565b81600181146125c357600281146125cd576125e9565b6001915050610704565b60ff8411156125de576125de612163565b50506001821b610704565b5060208310610133831016604e8410600b841016171561260c575081810a610704565b612619600019848461254e565b806000190482111561262d5761262d612163565b029392505050565b600061137c60ff841683612591565b808202811582820484141761070457610704612163565b60208082526022908201527f74686973207061796d656e7420686173206e6f74206265656e20617070726f76604082015261195960f21b606082015260800190565b600181811c908216806126b157607f821691505b6020821081036126d157634e487b7160e01b600052602260045260246000fd5b50919050565b600080604083850312156126ea57600080fd5b505080516020909101519092909150565b8082018082111561070457610704612163565b60006020828403121561272057600080fd5b815161137c81611cbc565b6000825161273d818460208701611f73565b9190910192915050565b60006020828403121561275957600080fd5b61137c826121a8565b60006020828403121561277457600080fd5b8151801515811461137c57600080fd5b61ffff871681526001600160a01b038616602082015260c0604082018190526000906127b290830187611f97565b606083018690526080830185905282810360a08401528351808252602080860192019060005b8181101561281f57835161ffff8151168452602081015160208501526001600160401b036040820151166040850152506060830192506020840193506001810190506127d8565b50909a9950505050505050505050565b60006020828403121561284157600080fd5b61137c826121d8565b60018060a01b038716815285602082015261ffff8516604082015283606082015263ffffffff8316608082015260c060a0820152600061288d60c0830184611f97565b9897505050505050505056fea2646970667358221220b91715a1ecddad017679afb87f525b30007e668642ab9681b5387432f4abfdcf64736f6c634300081a0033a2646970667358221220eb4143d2c6b8d2dfded00213c12b50e21ddb5d36810b375a1b81022b072efd4f64736f6c634300081a0033","linkReferences":{}},"methodIdentifiers":{"createNewFixedRateAgreement(string,string,address,address,uint256,address,address,address)":"392c31eb","createNewPayAsYouGoAgreement(string,string,address,address,uint256,address,address,address)":"f29bf760","fixedRateAgreements(uint256)":"c0901d10","getFixedRateAgreements()":"2fcc400b","getNumberOfFixedRateAgreements()":"efb7d3c9","getPayAsYouGoAgreements()":"a6c76fd2","payAsYouGoAgreements(uint256)":"a828171c"},"id":18}