{
  "_format": "hh-sol-artifact-1",
  "contractName": "BatchPayments",
  "sourceName": "contracts/Batch.sol",
  "abi": [
    {
      "inputs": [
        {
          "components": [
            {
              "internalType": "string",
              "name": "contractType",
              "type": "string"
            },
            {
              "internalType": "address",
              "name": "agreementAddress",
              "type": "address"
            }
          ],
          "internalType": "struct BatchPayments.Agreement[]",
          "name": "_agreements",
          "type": "tuple[]"
        },
        {
          "internalType": "address",
          "name": "_tokenAddress",
          "type": "address"
        }
      ],
      "stateMutability": "nonpayable",
      "type": "constructor"
    },
    {
      "inputs": [
        {
          "internalType": "string",
          "name": "_contractType",
          "type": "string"
        },
        {
          "internalType": "address",
          "name": "_agreementAddress",
          "type": "address"
        }
      ],
      "name": "addAgreement",
      "outputs": [],
      "stateMutability": "nonpayable",
      "type": "function"
    },
    {
      "inputs": [
        {
          "internalType": "uint256",
          "name": "",
          "type": "uint256"
        }
      ],
      "name": "agreements",
      "outputs": [
        {
          "internalType": "string",
          "name": "contractType",
          "type": "string"
        },
        {
          "internalType": "address",
          "name": "agreementAddress",
          "type": "address"
        }
      ],
      "stateMutability": "view",
      "type": "function"
    },
    {
      "inputs": [
        {
          "internalType": "uint256",
          "name": "_index",
          "type": "uint256"
        }
      ],
      "name": "getContractAtIndex",
      "outputs": [
        {
          "components": [
            {
              "internalType": "string",
              "name": "contractType",
              "type": "string"
            },
            {
              "internalType": "address",
              "name": "agreementAddress",
              "type": "address"
            }
          ],
          "internalType": "struct BatchPayments.Agreement",
          "name": "",
          "type": "tuple"
        }
      ],
      "stateMutability": "view",
      "type": "function"
    },
    {
      "inputs": [],
      "name": "getContracts",
      "outputs": [
        {
          "components": [
            {
              "internalType": "string",
              "name": "contractType",
              "type": "string"
            },
            {
              "internalType": "address",
              "name": "agreementAddress",
              "type": "address"
            }
          ],
          "internalType": "struct BatchPayments.Agreement[]",
          "name": "",
          "type": "tuple[]"
        }
      ],
      "stateMutability": "view",
      "type": "function"
    },
    {
      "inputs": [],
      "name": "owner",
      "outputs": [
        {
          "internalType": "address",
          "name": "",
          "type": "address"
        }
      ],
      "stateMutability": "view",
      "type": "function"
    },
    {
      "inputs": [],
      "name": "performBatchPayments",
      "outputs": [],
      "stateMutability": "nonpayable",
      "type": "function"
    },
    {
      "inputs": [],
      "name": "tokenAddress",
      "outputs": [
        {
          "internalType": "address",
          "name": "",
          "type": "address"
        }
      ],
      "stateMutability": "view",
      "type": "function"
    },
    {
      "inputs": [],
      "name": "used",
      "outputs": [
        {
          "internalType": "bool",
          "name": "",
          "type": "bool"
        }
      ],
      "stateMutability": "view",
      "type": "function"
    }
  ],
  "bytecode": "0x60806040526000600260006101000a81548160ff0219169083151502179055503480156200002c57600080fd5b5060405162001a5c38038062001a5c833981810160405281019062000052919062000517565b336000806101000a81548173ffffffffffffffffffffffffffffffffffffffff021916908373ffffffffffffffffffffffffffffffffffffffff16021790555080600260016101000a81548173ffffffffffffffffffffffffffffffffffffffff021916908373ffffffffffffffffffffffffffffffffffffffff16021790555060005b825181101562000198576001838281518110620000f857620000f76200057d565b5b602002602001015190806001815401808255809150506001900390600052602060002090600202016000909190919091506000820151816000019081620001409190620007f7565b5060208201518160010160006101000a81548173ffffffffffffffffffffffffffffffffffffffff021916908373ffffffffffffffffffffffffffffffffffffffff16021790555050508080600101915050620000d6565b505050620008de565b6000604051905090565b600080fd5b600080fd5b600080fd5b6000601f19601f8301169050919050565b7f4e487b7100000000000000000000000000000000000000000000000000000000600052604160045260246000fd5b6200020582620001ba565b810181811067ffffffffffffffff82111715620002275762000226620001cb565b5b80604052505050565b60006200023c620001a1565b90506200024a8282620001fa565b919050565b600067ffffffffffffffff8211156200026d576200026c620001cb565b5b602082029050602081019050919050565b600080fd5b600080fd5b600080fd5b600080fd5b600067ffffffffffffffff821115620002b057620002af620001cb565b5b620002bb82620001ba565b9050602081019050919050565b60005b83811015620002e8578082015181840152602081019050620002cb565b60008484015250505050565b60006200030b620003058462000292565b62000230565b9050828152602081018484840111156200032a57620003296200028d565b5b62000337848285620002c8565b509392505050565b600082601f830112620003575762000356620001b5565b5b815162000369848260208601620002f4565b91505092915050565b600073ffffffffffffffffffffffffffffffffffffffff82169050919050565b60006200039f8262000372565b9050919050565b620003b18162000392565b8114620003bd57600080fd5b50565b600081519050620003d181620003a6565b92915050565b600060408284031215620003f057620003ef62000283565b5b620003fc604062000230565b9050600082015167ffffffffffffffff8111156200041f576200041e62000288565b5b6200042d848285016200033f565b60008301525060206200044384828501620003c0565b60208301525092915050565b60006200046662000460846200024f565b62000230565b905080838252602082019050602084028301858111156200048c576200048b6200027e565b5b835b81811015620004da57805167ffffffffffffffff811115620004b557620004b4620001b5565b5b808601620004c48982620003d7565b855260208501945050506020810190506200048e565b5050509392505050565b600082601f830112620004fc57620004fb620001b5565b5b81516200050e8482602086016200044f565b91505092915050565b60008060408385031215620005315762000530620001ab565b5b600083015167ffffffffffffffff811115620005525762000551620001b0565b5b6200056085828601620004e4565b92505060206200057385828601620003c0565b9150509250929050565b7f4e487b7100000000000000000000000000000000000000000000000000000000600052603260045260246000fd5b600081519050919050565b7f4e487b7100000000000000000000000000000000000000000000000000000000600052602260045260246000fd5b60006002820490506001821680620005ff57607f821691505b602082108103620006155762000614620005b7565b5b50919050565b60008190508160005260206000209050919050565b60006020601f8301049050919050565b600082821b905092915050565b6000600883026200067f7fffffffffffffffffffffffffffffffffffffffffffffffffffffffffffffffff8262000640565b6200068b868362000640565b95508019841693508086168417925050509392505050565b6000819050919050565b6000819050919050565b6000620006d8620006d2620006cc84620006a3565b620006ad565b620006a3565b9050919050565b6000819050919050565b620006f483620006b7565b6200070c6200070382620006df565b8484546200064d565b825550505050565b600090565b6200072362000714565b62000730818484620006e9565b505050565b5b8181101562000758576200074c60008262000719565b60018101905062000736565b5050565b601f821115620007a75762000771816200061b565b6200077c8462000630565b810160208510156200078c578190505b620007a46200079b8562000630565b83018262000735565b50505b505050565b600082821c905092915050565b6000620007cc60001984600802620007ac565b1980831691505092915050565b6000620007e78383620007b9565b9150826002028217905092915050565b6200080282620005ac565b67ffffffffffffffff8111156200081e576200081d620001cb565b5b6200082a8254620005e6565b620008378282856200075c565b600060209050601f8311600181146200086f57600084156200085a578287015190505b620008668582620007d9565b865550620008d6565b601f1984166200087f866200061b565b60005b82811015620008a95784890151825560018201915060208501945060208101905062000882565b86831015620008c95784890151620008c5601f891682620007b9565b8355505b6001600288020188555050505b505050505050565b61116e80620008ee6000396000f3fe608060405234801561001057600080fd5b50600436106100885760003560e01c80639b534f181161005b5780639b534f18146100ef5780639d76ea581461011f578063bd14de961461013d578063c3a2a93a1461016e57610088565b80633f26781e1461008d57806363898e2b1461009757806364b65f6e146100b55780638da5cb5b146100d1575b600080fd5b61009561018c565b005b61009f610287565b6040516100ac91906107c3565b60405180910390f35b6100cf60048036038101906100ca9190610996565b61029a565b005b6100d96103e7565b6040516100e69190610a01565b60405180910390f35b61010960048036038101906101049190610a52565b61040b565b6040516101169190610b4a565b60405180910390f35b61012761052f565b6040516101349190610a01565b60405180910390f35b61015760048036038101906101529190610a52565b610555565b604051610165929190610bb6565b60405180910390f35b610176610631565b6040516101839190610ce5565b60405180910390f35b60008054906101000a900473ffffffffffffffffffffffffffffffffffffffff1673ffffffffffffffffffffffffffffffffffffffff163373ffffffffffffffffffffffffffffffffffffffff161461021a576040517f08c379a000000000000000000000000000000000000000000000000000000000815260040161021190610d79565b60405180910390fd5b600260009054906101000a900460ff161561026a576040517f08c379a000000000000000000000000000000000000000000000000000000000815260040161026190610e0b565b60405180910390fd5b6001600260006101000a81548160ff021916908315150217905550565b600260009054906101000a900460ff1681565b60008054906101000a900473ffffffffffffffffffffffffffffffffffffffff1673ffffffffffffffffffffffffffffffffffffffff163373ffffffffffffffffffffffffffffffffffffffff1614610328576040517f08c379a000000000000000000000000000000000000000000000000000000000815260040161031f90610d79565b60405180910390fd5b600060405180604001604052808481526020018373ffffffffffffffffffffffffffffffffffffffff168152509050600181908060018154018082558091505060019003906000526020600020906002020160009091909190915060008201518160000190816103989190611037565b5060208201518160010160006101000a81548173ffffffffffffffffffffffffffffffffffffffff021916908373ffffffffffffffffffffffffffffffffffffffff1602179055505050505050565b60008054906101000a900473ffffffffffffffffffffffffffffffffffffffff1681565b610413610778565b6001828154811061042757610426611109565b5b906000526020600020906002020160405180604001604052908160008201805461045090610e5a565b80601f016020809104026020016040519081016040528092919081815260200182805461047c90610e5a565b80156104c95780601f1061049e576101008083540402835291602001916104c9565b820191906000526020600020905b8154815290600101906020018083116104ac57829003601f168201915b505050505081526020016001820160009054906101000a900473ffffffffffffffffffffffffffffffffffffffff1673ffffffffffffffffffffffffffffffffffffffff1673ffffffffffffffffffffffffffffffffffffffff16815250509050919050565b600260019054906101000a900473ffffffffffffffffffffffffffffffffffffffff1681565b6001818154811061056557600080fd5b906000526020600020906002020160009150905080600001805461058890610e5a565b80601f01602080910402602001604051908101604052809291908181526020018280546105b490610e5a565b80156106015780601f106105d657610100808354040283529160200191610601565b820191906000526020600020905b8154815290600101906020018083116105e457829003601f168201915b5050505050908060010160009054906101000a900473ffffffffffffffffffffffffffffffffffffffff16905082565b60606001805480602002602001604051908101604052809291908181526020016000905b8282101561076f578382906000526020600020906002020160405180604001604052908160008201805461068890610e5a565b80601f01602080910402602001604051908101604052809291908181526020018280546106b490610e5a565b80156107015780601f106106d657610100808354040283529160200191610701565b820191906000526020600020905b8154815290600101906020018083116106e457829003601f168201915b505050505081526020016001820160009054906101000a900473ffffffffffffffffffffffffffffffffffffffff1673ffffffffffffffffffffffffffffffffffffffff1673ffffffffffffffffffffffffffffffffffffffff168152505081526020019060010190610655565b50505050905090565b604051806040016040528060608152602001600073ffffffffffffffffffffffffffffffffffffffff1681525090565b60008115159050919050565b6107bd816107a8565b82525050565b60006020820190506107d860008301846107b4565b92915050565b6000604051905090565b600080fd5b600080fd5b600080fd5b600080fd5b6000601f19601f8301169050919050565b7f4e487b7100000000000000000000000000000000000000000000000000000000600052604160045260246000fd5b610845826107fc565b810181811067ffffffffffffffff821117156108645761086361080d565b5b80604052505050565b60006108776107de565b9050610883828261083c565b919050565b600067ffffffffffffffff8211156108a3576108a261080d565b5b6108ac826107fc565b9050602081019050919050565b82818337600083830152505050565b60006108db6108d684610888565b61086d565b9050828152602081018484840111156108f7576108f66107f7565b5b6109028482856108b9565b509392505050565b600082601f83011261091f5761091e6107f2565b5b813561092f8482602086016108c8565b91505092915050565b600073ffffffffffffffffffffffffffffffffffffffff82169050919050565b600061096382610938565b9050919050565b61097381610958565b811461097e57600080fd5b50565b6000813590506109908161096a565b92915050565b600080604083850312156109ad576109ac6107e8565b5b600083013567ffffffffffffffff8111156109cb576109ca6107ed565b5b6109d78582860161090a565b92505060206109e885828601610981565b9150509250929050565b6109fb81610958565b82525050565b6000602082019050610a1660008301846109f2565b92915050565b6000819050919050565b610a2f81610a1c565b8114610a3a57600080fd5b50565b600081359050610a4c81610a26565b92915050565b600060208284031215610a6857610a676107e8565b5b6000610a7684828501610a3d565b91505092915050565b600081519050919050565b600082825260208201905092915050565b60005b83811015610ab9578082015181840152602081019050610a9e565b60008484015250505050565b6000610ad082610a7f565b610ada8185610a8a565b9350610aea818560208601610a9b565b610af3816107fc565b840191505092915050565b610b0781610958565b82525050565b60006040830160008301518482036000860152610b2a8282610ac5565b9150506020830151610b3f6020860182610afe565b508091505092915050565b60006020820190508181036000830152610b648184610b0d565b905092915050565b600082825260208201905092915050565b6000610b8882610a7f565b610b928185610b6c565b9350610ba2818560208601610a9b565b610bab816107fc565b840191505092915050565b60006040820190508181036000830152610bd08185610b7d565b9050610bdf60208301846109f2565b9392505050565b600081519050919050565b600082825260208201905092915050565b6000819050602082019050919050565b60006040830160008301518482036000860152610c2f8282610ac5565b9150506020830151610c446020860182610afe565b508091505092915050565b6000610c5b8383610c12565b905092915050565b6000602082019050919050565b6000610c7b82610be6565b610c858185610bf1565b935083602082028501610c9785610c02565b8060005b85811015610cd35784840389528151610cb48582610c4f565b9450610cbf83610c63565b925060208a01995050600181019050610c9b565b50829750879550505050505092915050565b60006020820190508181036000830152610cff8184610c70565b905092915050565b7f596f7520617265206e6f7420616c6c6f77656420746f206361727279206f757460008201527f207468697320616374696f6e0000000000000000000000000000000000000000602082015250565b6000610d63602c83610b6c565b9150610d6e82610d07565b604082019050919050565b60006020820190508181036000830152610d9281610d56565b9050919050565b7f746865206261746368207061796d656e747320636f6e7472616374206861732060008201527f616c7265616479206265656e2075736564000000000000000000000000000000602082015250565b6000610df5603183610b6c565b9150610e0082610d99565b604082019050919050565b60006020820190508181036000830152610e2481610de8565b9050919050565b7f4e487b7100000000000000000000000000000000000000000000000000000000600052602260045260246000fd5b60006002820490506001821680610e7257607f821691505b602082108103610e8557610e84610e2b565b5b50919050565b60008190508160005260206000209050919050565b60006020601f8301049050919050565b600082821b905092915050565b600060088302610eed7fffffffffffffffffffffffffffffffffffffffffffffffffffffffffffffffff82610eb0565b610ef78683610eb0565b95508019841693508086168417925050509392505050565b6000819050919050565b6000610f34610f2f610f2a84610a1c565b610f0f565b610a1c565b9050919050565b6000819050919050565b610f4e83610f19565b610f62610f5a82610f3b565b848454610ebd565b825550505050565b600090565b610f77610f6a565b610f82818484610f45565b505050565b5b81811015610fa657610f9b600082610f6f565b600181019050610f88565b5050565b601f821115610feb57610fbc81610e8b565b610fc584610ea0565b81016020851015610fd4578190505b610fe8610fe085610ea0565b830182610f87565b50505b505050565b600082821c905092915050565b600061100e60001984600802610ff0565b1980831691505092915050565b60006110278383610ffd565b9150826002028217905092915050565b61104082610a7f565b67ffffffffffffffff8111156110595761105861080d565b5b6110638254610e5a565b61106e828285610faa565b600060209050601f8311600181146110a1576000841561108f578287015190505b611099858261101b565b865550611101565b601f1984166110af86610e8b565b60005b828110156110d7578489015182556001820191506020850194506020810190506110b2565b868310156110f457848901516110f0601f891682610ffd565b8355505b6001600288020188555050505b505050505050565b7f4e487b7100000000000000000000000000000000000000000000000000000000600052603260045260246000fdfea264697066735822122080d0b30512dbc8d2d91c5ff9e717b8818329bc0766da21bda1b5f53d3eeb16f864736f6c63430008180033",
  "linkReferences": {},
  "deployedLinkReferences": {}
}