{"contracts/PayAsYouGoAgreement.sol":{"PayAsYouGoAgreement":{"abi":[{"inputs":[{"internalType":"string","name":"_employerId","type":"string"},{"internalType":"string","name":"_employeeId","type":"string"},{"internalType":"address","name":"_employerAddress","type":"address"},{"internalType":"address","name":"_currency","type":"address"},{"internalType":"uint256","name":"_monthlyPayment","type":"uint256"}],"stateMutability":"nonpayable","type":"constructor"},{"anonymous":false,"inputs":[{"indexed":true,"internalType":"address","name":"employeeAddress","type":"address"},{"indexed":true,"internalType":"address","name":"employerAddress","type":"address"}],"name":"PayAsYouGoPaymentMade","type":"event"},{"anonymous":false,"inputs":[{"indexed":true,"internalType":"address","name":"agreementAddress","type":"address"}],"name":"PaymentMade","type":"event"},{"inputs":[],"name":"agreementStatus","outputs":[{"internalType":"enum Agreement.AgreementStatus","name":"","type":"uint8"}],"stateMutability":"view","type":"function"},{"inputs":[],"name":"cancel","outputs":[],"stateMutability":"nonpayable","type":"function"},{"inputs":[],"name":"close","outputs":[],"stateMutability":"nonpayable","type":"function"},{"inputs":[],"name":"contractType","outputs":[{"internalType":"string","name":"","type":"string"}],"stateMutability":"view","type":"function"},{"inputs":[],"name":"currency","outputs":[{"internalType":"address","name":"","type":"address"}],"stateMutability":"view","type":"function"},{"inputs":[{"internalType":"address","name":"_paymentAddress","type":"address"}],"name":"employeeEnterContract","outputs":[],"stateMutability":"nonpayable","type":"function"},{"inputs":[],"name":"employeeId","outputs":[{"internalType":"string","name":"","type":"string"}],"stateMutability":"view","type":"function"},{"inputs":[],"name":"employerAddress","outputs":[{"internalType":"address","name":"","type":"address"}],"stateMutability":"view","type":"function"},{"inputs":[],"name":"employerId","outputs":[{"internalType":"string","name":"","type":"string"}],"stateMutability":"view","type":"function"},{"inputs":[],"name":"paymentAddress","outputs":[{"internalType":"address","name":"","type":"address"}],"stateMutability":"view","type":"function"},{"inputs":[{"internalType":"uint256","name":"","type":"uint256"}],"name":"payments","outputs":[{"internalType":"uint256","name":"amount","type":"uint256"},{"internalType":"address","name":"payeeAddress","type":"address"}],"stateMutability":"view","type":"function"},{"inputs":[],"name":"sendPayment","outputs":[],"stateMutability":"nonpayable","type":"function"},{"inputs":[{"internalType":"uint256","name":"newMonthlyPayment","type":"uint256"}],"name":"setMonthlyPayments","outputs":[],"stateMutability":"nonpayable","type":"function"},{"inputs":[],"name":"suspend","outputs":[],"stateMutability":"nonpayable","type":"function"},{"inputs":[],"name":"withdrawFunds","outputs":[],"stateMutability":"view","type":"function"}],"evm":{"bytecode":{"linkReferences":{},"object":"60806040523480156200001157600080fd5b5060405162001cd238038062001cd28339818101604052810190620000379190620003a1565b848484846040518060400160405280600d81526020017f70617920617320796f7520676f000000000000000000000000000000000000008152508460009081620000829190620006a8565b508360019081620000949190620006a8565b5082600260006101000a81548173ffffffffffffffffffffffffffffffffffffffff021916908373ffffffffffffffffffffffffffffffffffffffff16021790555081600460006101000a81548173ffffffffffffffffffffffffffffffffffffffff021916908373ffffffffffffffffffffffffffffffffffffffff1602179055506000600460146101000a81548160ff0219169083600481111562000140576200013f6200078f565b5b02179055508060059081620001569190620006a8565b505050505050806007819055505050505050620007be565b6000604051905090565b600080fd5b600080fd5b600080fd5b600080fd5b6000601f19601f8301169050919050565b7f4e487b7100000000000000000000000000000000000000000000000000000000600052604160045260246000fd5b620001d7826200018c565b810181811067ffffffffffffffff82111715620001f957620001f86200019d565b5b80604052505050565b60006200020e6200016e565b90506200021c8282620001cc565b919050565b600067ffffffffffffffff8211156200023f576200023e6200019d565b5b6200024a826200018c565b9050602081019050919050565b60005b83811015620002775780820151818401526020810190506200025a565b60008484015250505050565b60006200029a620002948462000221565b62000202565b905082815260208101848484011115620002b957620002b862000187565b5b620002c684828562000257565b509392505050565b600082601f830112620002e657620002e562000182565b5b8151620002f884826020860162000283565b91505092915050565b600073ffffffffffffffffffffffffffffffffffffffff82169050919050565b60006200032e8262000301565b9050919050565b620003408162000321565b81146200034c57600080fd5b50565b600081519050620003608162000335565b92915050565b6000819050919050565b6200037b8162000366565b81146200038757600080fd5b50565b6000815190506200039b8162000370565b92915050565b600080600080600060a08688031215620003c057620003bf62000178565b5b600086015167ffffffffffffffff811115620003e157620003e06200017d565b5b620003ef88828901620002ce565b955050602086015167ffffffffffffffff8111156200041357620004126200017d565b5b6200042188828901620002ce565b945050604062000434888289016200034f565b935050606062000447888289016200034f565b92505060806200045a888289016200038a565b9150509295509295909350565b600081519050919050565b7f4e487b7100000000000000000000000000000000000000000000000000000000600052602260045260246000fd5b60006002820490506001821680620004ba57607f821691505b602082108103620004d057620004cf62000472565b5b50919050565b60008190508160005260206000209050919050565b60006020601f8301049050919050565b600082821b905092915050565b6000600883026200053a7fffffffffffffffffffffffffffffffffffffffffffffffffffffffffffffffff82620004fb565b620005468683620004fb565b95508019841693508086168417925050509392505050565b6000819050919050565b600062000589620005836200057d8462000366565b6200055e565b62000366565b9050919050565b6000819050919050565b620005a58362000568565b620005bd620005b48262000590565b84845462000508565b825550505050565b600090565b620005d4620005c5565b620005e18184846200059a565b505050565b5b818110156200060957620005fd600082620005ca565b600181019050620005e7565b5050565b601f82111562000658576200062281620004d6565b6200062d84620004eb565b810160208510156200063d578190505b620006556200064c85620004eb565b830182620005e6565b50505b505050565b600082821c905092915050565b60006200067d600019846008026200065d565b1980831691505092915050565b60006200069883836200066a565b9150826002028217905092915050565b620006b38262000467565b67ffffffffffffffff811115620006cf57620006ce6200019d565b5b620006db8254620004a1565b620006e88282856200060d565b600060209050601f8311600181146200072057600084156200070b578287015190505b6200071785826200068a565b86555062000787565b601f1984166200073086620004d6565b60005b828110156200075a5784890151825560018201915060208501945060208101905062000733565b868310156200077a578489015162000776601f8916826200066a565b8355505b6001600288020188555050505b505050505050565b7f4e487b7100000000000000000000000000000000000000000000000000000000600052602160045260246000fd5b61150480620007ce6000396000f3fe608060405234801561001057600080fd5b50600436106100f55760003560e01c806387d8178911610097578063e5a6b10f11610066578063e5a6b10f14610217578063e6400bbe14610235578063ea8a1af01461023f578063ef838f8814610249576100f5565b806387d817891461019057806398b9f004146101c1578063cb2ef6f7146101dd578063da860f1b146101fb576100f5565b806343d726d6116100d357806343d726d614610140578063633423be1461014a5780636720ceb11461016857806384ab30a514610172576100f5565b80630d0175a9146100fa57806310ccb04c1461011857806324600fc314610136575b600080fd5b610102610267565b60405161010f9190610e42565b60405180910390f35b61012061028d565b60405161012d9190610ed4565b60405180910390f35b61013e6102a0565b005b610148610332565b005b610152610464565b60405161015f9190610e42565b60405180910390f35b61017061048a565b005b61017a6106a1565b6040516101879190610f7f565b60405180910390f35b6101aa60048036038101906101a59190610fdc565b61072f565b6040516101b8929190611018565b60405180910390f35b6101db60048036038101906101d6919061106d565b610783565b005b6101e5610868565b6040516101f29190610f7f565b60405180910390f35b61021560048036038101906102109190610fdc565b6108f6565b005b61021f610989565b60405161022c9190610e42565b60405180910390f35b61023d6109af565b005b610247610b57565b005b610251610c8a565b60405161025e9190610f7f565b60405180910390f35b600260009054906101000a900473ffffffffffffffffffffffffffffffffffffffff1681565b600460149054906101000a900460ff1681565b600260009054906101000a900473ffffffffffffffffffffffffffffffffffffffff1673ffffffffffffffffffffffffffffffffffffffff163373ffffffffffffffffffffffffffffffffffffffff1614610330576040517f08c379a00000000000000000000000000000000000000000000000000000000081526004016103279061110c565b60405180910390fd5b565b600260009054906101000a900473ffffffffffffffffffffffffffffffffffffffff1673ffffffffffffffffffffffffffffffffffffffff163373ffffffffffffffffffffffffffffffffffffffff16146103c2576040517f08c379a00000000000000000000000000000000000000000000000000000000081526004016103b99061110c565b60405180910390fd5b600360048111156103d6576103d5610e5d565b5b600460149054906101000a900460ff1660048111156103f8576103f7610e5d565b5b03610438576040517f08c379a000000000000000000000000000000000000000000000000000000000815260040161042f9061119e565b60405180910390fd5b60048060146101000a81548160ff0219169083600481111561045d5761045c610e5d565b5b0217905550565b600360009054906101000a900473ffffffffffffffffffffffffffffffffffffffff1681565b600260009054906101000a900473ffffffffffffffffffffffffffffffffffffffff1673ffffffffffffffffffffffffffffffffffffffff163373ffffffffffffffffffffffffffffffffffffffff161461051a576040517f08c379a00000000000000000000000000000000000000000000000000000000081526004016105119061110c565b60405180910390fd5b6001600481111561052e5761052d610e5d565b5b600460149054906101000a900460ff1660048111156105505761054f610e5d565b5b14610590576040517f08c379a000000000000000000000000000000000000000000000000000000000815260040161058790611230565b60405180910390fd5b6105be600360009054906101000a900473ffffffffffffffffffffffffffffffffffffffff16600754610d18565b3073ffffffffffffffffffffffffffffffffffffffff167f960f80c1468168314e9bb3daa45c4819ef0a7969615e253bbc73477997b1eb5860405160405180910390a2600260009054906101000a900473ffffffffffffffffffffffffffffffffffffffff1673ffffffffffffffffffffffffffffffffffffffff16600360009054906101000a900473ffffffffffffffffffffffffffffffffffffffff1673ffffffffffffffffffffffffffffffffffffffff167f433731019d78f9808cedc4435fc0eefc894b9a6f2147b6afbc20d284fe41955c60405160405180910390a3565b600180546106ae9061127f565b80601f01602080910402602001604051908101604052809291908181526020018280546106da9061127f565b80156107275780601f106106fc57610100808354040283529160200191610727565b820191906000526020600020905b81548152906001019060200180831161070a57829003601f168201915b505050505081565b6006818154811061073f57600080fd5b90600052602060002090600202016000915090508060000154908060010160009054906101000a900473ffffffffffffffffffffffffffffffffffffffff16905082565b6000600481111561079757610796610e5d565b5b600460149054906101000a900460ff1660048111156107b9576107b8610e5d565b5b146107f9576040517f08c379a00000000000000000000000000000000000000000000000000000000081526004016107f090611322565b60405180910390fd5b80600360006101000a81548173ffffffffffffffffffffffffffffffffffffffff021916908373ffffffffffffffffffffffffffffffffffffffff1602179055506001600460146101000a81548160ff021916908360048111156108605761085f610e5d565b5b021790555050565b600580546108759061127f565b80601f01602080910402602001604051908101604052809291908181526020018280546108a19061127f565b80156108ee5780601f106108c3576101008083540402835291602001916108ee565b820191906000526020600020905b8154815290600101906020018083116108d157829003601f168201915b505050505081565b600260009054906101000a900473ffffffffffffffffffffffffffffffffffffffff1673ffffffffffffffffffffffffffffffffffffffff163373ffffffffffffffffffffffffffffffffffffffff1614610986576040517f08c379a000000000000000000000000000000000000000000000000000000000815260040161097d9061110c565b60405180910390fd5b50565b600460009054906101000a900473ffffffffffffffffffffffffffffffffffffffff1681565b600260009054906101000a900473ffffffffffffffffffffffffffffffffffffffff1673ffffffffffffffffffffffffffffffffffffffff163373ffffffffffffffffffffffffffffffffffffffff1614610a3f576040517f08c379a0000000000000000000000000000000000000000000000000000000008152600401610a369061110c565b60405180910390fd5b60036004811115610a5357610a52610e5d565b5b600460149054906101000a900460ff166004811115610a7557610a74610e5d565b5b03610ab5576040517f08c379a0000000000000000000000000000000000000000000000000000000008152600401610aac9061119e565b60405180910390fd5b600480811115610ac857610ac7610e5d565b5b600460149054906101000a900460ff166004811115610aea57610ae9610e5d565b5b03610b2a576040517f08c379a0000000000000000000000000000000000000000000000000000000008152600401610b21906113b4565b60405180910390fd5b6002600460146101000a81548160ff02191690836004811115610b5057610b4f610e5d565b5b0217905550565b600260009054906101000a900473ffffffffffffffffffffffffffffffffffffffff1673ffffffffffffffffffffffffffffffffffffffff163373ffffffffffffffffffffffffffffffffffffffff1614610be7576040517f08c379a0000000000000000000000000000000000000000000000000000000008152600401610bde9061110c565b60405180910390fd5b60036004811115610bfb57610bfa610e5d565b5b600460149054906101000a900460ff166004811115610c1d57610c1c610e5d565b5b03610c5d576040517f08c379a0000000000000000000000000000000000000000000000000000000008152600401610c549061119e565b60405180910390fd5b6003600460146101000a81548160ff02191690836004811115610c8357610c82610e5d565b5b0217905550565b60008054610c979061127f565b80601f0160208091040260200160405190810160405280929190818152602001828054610cc39061127f565b8015610d105780601f10610ce557610100808354040283529160200191610d10565b820191906000526020600020905b815481529060010190602001808311610cf357829003601f168201915b505050505081565b6000600460009054906101000a900473ffffffffffffffffffffffffffffffffffffffff1690508073ffffffffffffffffffffffffffffffffffffffff1663a9059cbb84846040518363ffffffff1660e01b8152600401610d7a9291906113d4565b6020604051808303816000875af1158015610d99573d6000803e3d6000fd5b505050506040513d601f19601f82011682018060405250810190610dbd9190611435565b610dfc576040517f08c379a0000000000000000000000000000000000000000000000000000000008152600401610df3906114ae565b60405180910390fd5b505050565b600073ffffffffffffffffffffffffffffffffffffffff82169050919050565b6000610e2c82610e01565b9050919050565b610e3c81610e21565b82525050565b6000602082019050610e576000830184610e33565b92915050565b7f4e487b7100000000000000000000000000000000000000000000000000000000600052602160045260246000fd5b60058110610e9d57610e9c610e5d565b5b50565b6000819050610eae82610e8c565b919050565b6000610ebe82610ea0565b9050919050565b610ece81610eb3565b82525050565b6000602082019050610ee96000830184610ec5565b92915050565b600081519050919050565b600082825260208201905092915050565b60005b83811015610f29578082015181840152602081019050610f0e565b60008484015250505050565b6000601f19601f8301169050919050565b6000610f5182610eef565b610f5b8185610efa565b9350610f6b818560208601610f0b565b610f7481610f35565b840191505092915050565b60006020820190508181036000830152610f998184610f46565b905092915050565b600080fd5b6000819050919050565b610fb981610fa6565b8114610fc457600080fd5b50565b600081359050610fd681610fb0565b92915050565b600060208284031215610ff257610ff1610fa1565b5b600061100084828501610fc7565b91505092915050565b61101281610fa6565b82525050565b600060408201905061102d6000830185611009565b61103a6020830184610e33565b9392505050565b61104a81610e21565b811461105557600080fd5b50565b60008135905061106781611041565b92915050565b60006020828403121561108357611082610fa1565b5b600061109184828501611058565b91505092915050565b7f596f7520617265206e6f7420616c6c6f77656420746f206361727279206f757460008201527f207468697320616374696f6e0000000000000000000000000000000000000000602082015250565b60006110f6602c83610efa565b91506111018261109a565b604082019050919050565b60006020820190508181036000830152611125816110e9565b9050919050565b7f5468697320636f6e74726163742068617320616c7265616479206265656e206360008201527f616e63656c6c6564000000000000000000000000000000000000000000000000602082015250565b6000611188602883610efa565b91506111938261112c565b604082019050919050565b600060208201905081810360008301526111b78161117b565b9050919050565b7f5468697320636f6e7472616374206973206e6f206c6f6e67657220616374697660008201527f6500000000000000000000000000000000000000000000000000000000000000602082015250565b600061121a602183610efa565b9150611225826111be565b604082019050919050565b600060208201905081810360008301526112498161120d565b9050919050565b7f4e487b7100000000000000000000000000000000000000000000000000000000600052602260045260246000fd5b6000600282049050600182168061129757607f821691505b6020821081036112aa576112a9611250565b5b50919050565b7f5468697320636f6e7472616374206973206e6f206c6f6e6765722070656e646960008201527f6e67000000000000000000000000000000000000000000000000000000000000602082015250565b600061130c602283610efa565b9150611317826112b0565b604082019050919050565b6000602082019050818103600083015261133b816112ff565b9050919050565b7f5468697320636f6e74726163742068617320616c7265616479206265656e206360008201527f6c6f736564000000000000000000000000000000000000000000000000000000602082015250565b600061139e602583610efa565b91506113a982611342565b604082019050919050565b600060208201905081810360008301526113cd81611391565b9050919050565b60006040820190506113e96000830185610e33565b6113f66020830184611009565b9392505050565b60008115159050919050565b611412816113fd565b811461141d57600080fd5b50565b60008151905061142f81611409565b92915050565b60006020828403121561144b5761144a610fa1565b5b600061145984828501611420565b91505092915050565b7f546f6b656e207472616e73666572206661696c65640000000000000000000000600082015250565b6000611498601583610efa565b91506114a382611462565b602082019050919050565b600060208201905081810360008301526114c78161148b565b905091905056fea264697066735822122045abe6d9983ae8bffbfa603eda83069ed8e661f8a76ddfb33c5065806f1973ea64736f6c63430008180033","opcodes":"PUSH1 0x80 PUSH1 0x40 MSTORE CALLVALUE DUP1 ISZERO PUSH3 0x11 JUMPI PUSH1 0x0 DUP1 REVERT JUMPDEST POP PUSH1 0x40 MLOAD PUSH3 0x1CD2 CODESIZE SUB DUP1 PUSH3 0x1CD2 DUP4 CODECOPY DUP2 DUP2 ADD PUSH1 0x40 MSTORE DUP2 ADD SWAP1 PUSH3 0x37 SWAP2 SWAP1 PUSH3 0x3A1 JUMP JUMPDEST DUP5 DUP5 DUP5 DUP5 PUSH1 0x40 MLOAD DUP1 PUSH1 0x40 ADD PUSH1 0x40 MSTORE DUP1 PUSH1 0xD DUP2 MSTORE PUSH1 0x20 ADD PUSH32 0x70617920617320796F7520676F00000000000000000000000000000000000000 DUP2 MSTORE POP DUP5 PUSH1 0x0 SWAP1 DUP2 PUSH3 0x82 SWAP2 SWAP1 PUSH3 0x6A8 JUMP JUMPDEST POP DUP4 PUSH1 0x1 SWAP1 DUP2 PUSH3 0x94 SWAP2 SWAP1 PUSH3 0x6A8 JUMP JUMPDEST POP DUP3 PUSH1 0x2 PUSH1 0x0 PUSH2 0x100 EXP DUP2 SLOAD DUP2 PUSH20 0xFFFFFFFFFFFFFFFFFFFFFFFFFFFFFFFFFFFFFFFF MUL NOT AND SWAP1 DUP4 PUSH20 0xFFFFFFFFFFFFFFFFFFFFFFFFFFFFFFFFFFFFFFFF AND MUL OR SWAP1 SSTORE POP DUP2 PUSH1 0x4 PUSH1 0x0 PUSH2 0x100 EXP DUP2 SLOAD DUP2 PUSH20 0xFFFFFFFFFFFFFFFFFFFFFFFFFFFFFFFFFFFFFFFF MUL NOT AND SWAP1 DUP4 PUSH20 0xFFFFFFFFFFFFFFFFFFFFFFFFFFFFFFFFFFFFFFFF AND MUL OR SWAP1 SSTORE POP PUSH1 0x0 PUSH1 0x4 PUSH1 0x14 PUSH2 0x100 EXP DUP2 SLOAD DUP2 PUSH1 0xFF MUL NOT AND SWAP1 DUP4 PUSH1 0x4 DUP2 GT ISZERO PUSH3 0x140 JUMPI PUSH3 0x13F PUSH3 0x78F JUMP JUMPDEST JUMPDEST MUL OR SWAP1 SSTORE POP DUP1 PUSH1 0x5 SWAP1 DUP2 PUSH3 0x156 SWAP2 SWAP1 PUSH3 0x6A8 JUMP JUMPDEST POP POP POP POP POP POP DUP1 PUSH1 0x7 DUP2 SWAP1 SSTORE POP POP POP POP POP POP PUSH3 0x7BE JUMP JUMPDEST PUSH1 0x0 PUSH1 0x40 MLOAD SWAP1 POP SWAP1 JUMP JUMPDEST PUSH1 0x0 DUP1 REVERT JUMPDEST PUSH1 0x0 DUP1 REVERT JUMPDEST PUSH1 0x0 DUP1 REVERT JUMPDEST PUSH1 0x0 DUP1 REVERT JUMPDEST PUSH1 0x0 PUSH1 0x1F NOT PUSH1 0x1F DUP4 ADD AND SWAP1 POP SWAP2 SWAP1 POP JUMP JUMPDEST PUSH32 0x4E487B7100000000000000000000000000000000000000000000000000000000 PUSH1 0x0 MSTORE PUSH1 0x41 PUSH1 0x4 MSTORE PUSH1 0x24 PUSH1 0x0 REVERT JUMPDEST PUSH3 0x1D7 DUP3 PUSH3 0x18C JUMP JUMPDEST DUP2 ADD DUP2 DUP2 LT PUSH8 0xFFFFFFFFFFFFFFFF DUP3 GT OR ISZERO PUSH3 0x1F9 JUMPI PUSH3 0x1F8 PUSH3 0x19D JUMP JUMPDEST JUMPDEST DUP1 PUSH1 0x40 MSTORE POP POP POP JUMP JUMPDEST PUSH1 0x0 PUSH3 0x20E PUSH3 0x16E JUMP JUMPDEST SWAP1 POP PUSH3 0x21C DUP3 DUP3 PUSH3 0x1CC JUMP JUMPDEST SWAP2 SWAP1 POP JUMP JUMPDEST PUSH1 0x0 PUSH8 0xFFFFFFFFFFFFFFFF DUP3 GT ISZERO PUSH3 0x23F JUMPI PUSH3 0x23E PUSH3 0x19D JUMP JUMPDEST JUMPDEST PUSH3 0x24A DUP3 PUSH3 0x18C JUMP JUMPDEST SWAP1 POP PUSH1 0x20 DUP2 ADD SWAP1 POP SWAP2 SWAP1 POP JUMP JUMPDEST PUSH1 0x0 JUMPDEST DUP4 DUP2 LT ISZERO PUSH3 0x277 JUMPI DUP1 DUP3 ADD MLOAD DUP2 DUP5 ADD MSTORE PUSH1 0x20 DUP2 ADD SWAP1 POP PUSH3 0x25A JUMP JUMPDEST PUSH1 0x0 DUP5 DUP5 ADD MSTORE POP POP POP POP JUMP JUMPDEST PUSH1 0x0 PUSH3 0x29A PUSH3 0x294 DUP5 PUSH3 0x221 JUMP JUMPDEST PUSH3 0x202 JUMP JUMPDEST SWAP1 POP DUP3 DUP2 MSTORE PUSH1 0x20 DUP2 ADD DUP5 DUP5 DUP5 ADD GT ISZERO PUSH3 0x2B9 JUMPI PUSH3 0x2B8 PUSH3 0x187 JUMP JUMPDEST JUMPDEST PUSH3 0x2C6 DUP5 DUP3 DUP6 PUSH3 0x257 JUMP JUMPDEST POP SWAP4 SWAP3 POP POP POP JUMP JUMPDEST PUSH1 0x0 DUP3 PUSH1 0x1F DUP4 ADD SLT PUSH3 0x2E6 JUMPI PUSH3 0x2E5 PUSH3 0x182 JUMP JUMPDEST JUMPDEST DUP2 MLOAD PUSH3 0x2F8 DUP5 DUP3 PUSH1 0x20 DUP7 ADD PUSH3 0x283 JUMP JUMPDEST SWAP2 POP POP SWAP3 SWAP2 POP POP JUMP JUMPDEST PUSH1 0x0 PUSH20 0xFFFFFFFFFFFFFFFFFFFFFFFFFFFFFFFFFFFFFFFF DUP3 AND SWAP1 POP SWAP2 SWAP1 POP JUMP JUMPDEST PUSH1 0x0 PUSH3 0x32E DUP3 PUSH3 0x301 JUMP JUMPDEST SWAP1 POP SWAP2 SWAP1 POP JUMP JUMPDEST PUSH3 0x340 DUP2 PUSH3 0x321 JUMP JUMPDEST DUP2 EQ PUSH3 0x34C JUMPI PUSH1 0x0 DUP1 REVERT JUMPDEST POP JUMP JUMPDEST PUSH1 0x0 DUP2 MLOAD SWAP1 POP PUSH3 0x360 DUP2 PUSH3 0x335 JUMP JUMPDEST SWAP3 SWAP2 POP POP JUMP JUMPDEST PUSH1 0x0 DUP2 SWAP1 POP SWAP2 SWAP1 POP JUMP JUMPDEST PUSH3 0x37B DUP2 PUSH3 0x366 JUMP JUMPDEST DUP2 EQ PUSH3 0x387 JUMPI PUSH1 0x0 DUP1 REVERT JUMPDEST POP JUMP JUMPDEST PUSH1 0x0 DUP2 MLOAD SWAP1 POP PUSH3 0x39B DUP2 PUSH3 0x370 JUMP JUMPDEST SWAP3 SWAP2 POP POP JUMP JUMPDEST PUSH1 0x0 DUP1 PUSH1 0x0 DUP1 PUSH1 0x0 PUSH1 0xA0 DUP7 DUP9 SUB SLT ISZERO PUSH3 0x3C0 JUMPI PUSH3 0x3BF PUSH3 0x178 JUMP JUMPDEST JUMPDEST PUSH1 0x0 DUP7 ADD MLOAD PUSH8 0xFFFFFFFFFFFFFFFF DUP2 GT ISZERO PUSH3 0x3E1 JUMPI PUSH3 0x3E0 PUSH3 0x17D JUMP JUMPDEST JUMPDEST PUSH3 0x3EF DUP9 DUP3 DUP10 ADD PUSH3 0x2CE JUMP JUMPDEST SWAP6 POP POP PUSH1 0x20 DUP7 ADD MLOAD PUSH8 0xFFFFFFFFFFFFFFFF DUP2 GT ISZERO PUSH3 0x413 JUMPI PUSH3 0x412 PUSH3 0x17D JUMP JUMPDEST JUMPDEST PUSH3 0x421 DUP9 DUP3 DUP10 ADD PUSH3 0x2CE JUMP JUMPDEST SWAP5 POP POP PUSH1 0x40 PUSH3 0x434 DUP9 DUP3 DUP10 ADD PUSH3 0x34F JUMP JUMPDEST SWAP4 POP POP PUSH1 0x60 PUSH3 0x447 DUP9 DUP3 DUP10 ADD PUSH3 0x34F JUMP JUMPDEST SWAP3 POP POP PUSH1 0x80 PUSH3 0x45A DUP9 DUP3 DUP10 ADD PUSH3 0x38A JUMP JUMPDEST SWAP2 POP POP SWAP3 SWAP6 POP SWAP3 SWAP6 SWAP1 SWAP4 POP JUMP JUMPDEST PUSH1 0x0 DUP2 MLOAD SWAP1 POP SWAP2 SWAP1 POP JUMP JUMPDEST PUSH32 0x4E487B7100000000000000000000000000000000000000000000000000000000 PUSH1 0x0 MSTORE PUSH1 0x22 PUSH1 0x4 MSTORE PUSH1 0x24 PUSH1 0x0 REVERT JUMPDEST PUSH1 0x0 PUSH1 0x2 DUP3 DIV SWAP1 POP PUSH1 0x1 DUP3 AND DUP1 PUSH3 0x4BA JUMPI PUSH1 0x7F DUP3 AND SWAP2 POP JUMPDEST PUSH1 0x20 DUP3 LT DUP2 SUB PUSH3 0x4D0 JUMPI PUSH3 0x4CF PUSH3 0x472 JUMP JUMPDEST JUMPDEST POP SWAP2 SWAP1 POP JUMP JUMPDEST PUSH1 0x0 DUP2 SWAP1 POP DUP2 PUSH1 0x0 MSTORE PUSH1 0x20 PUSH1 0x0 KECCAK256 SWAP1 POP SWAP2 SWAP1 POP JUMP JUMPDEST PUSH1 0x0 PUSH1 0x20 PUSH1 0x1F DUP4 ADD DIV SWAP1 POP SWAP2 SWAP1 POP JUMP JUMPDEST PUSH1 0x0 DUP3 DUP3 SHL SWAP1 POP SWAP3 SWAP2 POP POP JUMP JUMPDEST PUSH1 0x0 PUSH1 0x8 DUP4 MUL PUSH3 0x53A PUSH32 0xFFFFFFFFFFFFFFFFFFFFFFFFFFFFFFFFFFFFFFFFFFFFFFFFFFFFFFFFFFFFFFFF DUP3 PUSH3 0x4FB JUMP JUMPDEST PUSH3 0x546 DUP7 DUP4 PUSH3 0x4FB JUMP JUMPDEST SWAP6 POP DUP1 NOT DUP5 AND SWAP4 POP DUP1 DUP7 AND DUP5 OR SWAP3 POP POP POP SWAP4 SWAP3 POP POP POP JUMP JUMPDEST PUSH1 0x0 DUP2 SWAP1 POP SWAP2 SWAP1 POP JUMP JUMPDEST PUSH1 0x0 PUSH3 0x589 PUSH3 0x583 PUSH3 0x57D DUP5 PUSH3 0x366 JUMP JUMPDEST PUSH3 0x55E JUMP JUMPDEST PUSH3 0x366 JUMP JUMPDEST SWAP1 POP SWAP2 SWAP1 POP JUMP JUMPDEST PUSH1 0x0 DUP2 SWAP1 POP SWAP2 SWAP1 POP JUMP JUMPDEST PUSH3 0x5A5 DUP4 PUSH3 0x568 JUMP JUMPDEST PUSH3 0x5BD PUSH3 0x5B4 DUP3 PUSH3 0x590 JUMP JUMPDEST DUP5 DUP5 SLOAD PUSH3 0x508 JUMP JUMPDEST DUP3 SSTORE POP POP POP POP JUMP JUMPDEST PUSH1 0x0 SWAP1 JUMP JUMPDEST PUSH3 0x5D4 PUSH3 0x5C5 JUMP JUMPDEST PUSH3 0x5E1 DUP2 DUP5 DUP5 PUSH3 0x59A JUMP JUMPDEST POP POP POP JUMP JUMPDEST JUMPDEST DUP2 DUP2 LT ISZERO PUSH3 0x609 JUMPI PUSH3 0x5FD PUSH1 0x0 DUP3 PUSH3 0x5CA JUMP JUMPDEST PUSH1 0x1 DUP2 ADD SWAP1 POP PUSH3 0x5E7 JUMP JUMPDEST POP POP JUMP JUMPDEST PUSH1 0x1F DUP3 GT ISZERO PUSH3 0x658 JUMPI PUSH3 0x622 DUP2 PUSH3 0x4D6 JUMP JUMPDEST PUSH3 0x62D DUP5 PUSH3 0x4EB JUMP JUMPDEST DUP2 ADD PUSH1 0x20 DUP6 LT ISZERO PUSH3 0x63D JUMPI DUP2 SWAP1 POP JUMPDEST PUSH3 0x655 PUSH3 0x64C DUP6 PUSH3 0x4EB JUMP JUMPDEST DUP4 ADD DUP3 PUSH3 0x5E6 JUMP JUMPDEST POP POP JUMPDEST POP POP POP JUMP JUMPDEST PUSH1 0x0 DUP3 DUP3 SHR SWAP1 POP SWAP3 SWAP2 POP POP JUMP JUMPDEST PUSH1 0x0 PUSH3 0x67D PUSH1 0x0 NOT DUP5 PUSH1 0x8 MUL PUSH3 0x65D JUMP JUMPDEST NOT DUP1 DUP4 AND SWAP2 POP POP SWAP3 SWAP2 POP POP JUMP JUMPDEST PUSH1 0x0 PUSH3 0x698 DUP4 DUP4 PUSH3 0x66A JUMP JUMPDEST SWAP2 POP DUP3 PUSH1 0x2 MUL DUP3 OR SWAP1 POP SWAP3 SWAP2 POP POP JUMP JUMPDEST PUSH3 0x6B3 DUP3 PUSH3 0x467 JUMP JUMPDEST PUSH8 0xFFFFFFFFFFFFFFFF DUP2 GT ISZERO PUSH3 0x6CF JUMPI PUSH3 0x6CE PUSH3 0x19D JUMP JUMPDEST JUMPDEST PUSH3 0x6DB DUP3 SLOAD PUSH3 0x4A1 JUMP JUMPDEST PUSH3 0x6E8 DUP3 DUP3 DUP6 PUSH3 0x60D JUMP JUMPDEST PUSH1 0x0 PUSH1 0x20 SWAP1 POP PUSH1 0x1F DUP4 GT PUSH1 0x1 DUP2 EQ PUSH3 0x720 JUMPI PUSH1 0x0 DUP5 ISZERO PUSH3 0x70B JUMPI DUP3 DUP8 ADD MLOAD SWAP1 POP JUMPDEST PUSH3 0x717 DUP6 DUP3 PUSH3 0x68A JUMP JUMPDEST DUP7 SSTORE POP PUSH3 0x787 JUMP JUMPDEST PUSH1 0x1F NOT DUP5 AND PUSH3 0x730 DUP7 PUSH3 0x4D6 JUMP JUMPDEST PUSH1 0x0 JUMPDEST DUP3 DUP2 LT ISZERO PUSH3 0x75A JUMPI DUP5 DUP10 ADD MLOAD DUP3 SSTORE PUSH1 0x1 DUP3 ADD SWAP2 POP PUSH1 0x20 DUP6 ADD SWAP5 POP PUSH1 0x20 DUP2 ADD SWAP1 POP PUSH3 0x733 JUMP JUMPDEST DUP7 DUP4 LT ISZERO PUSH3 0x77A JUMPI DUP5 DUP10 ADD MLOAD PUSH3 0x776 PUSH1 0x1F DUP10 AND DUP3 PUSH3 0x66A JUMP JUMPDEST DUP4 SSTORE POP JUMPDEST PUSH1 0x1 PUSH1 0x2 DUP9 MUL ADD DUP9 SSTORE POP POP POP JUMPDEST POP POP POP POP POP POP JUMP JUMPDEST PUSH32 0x4E487B7100000000000000000000000000000000000000000000000000000000 PUSH1 0x0 MSTORE PUSH1 0x21 PUSH1 0x4 MSTORE PUSH1 0x24 PUSH1 0x0 REVERT JUMPDEST PUSH2 0x1504 DUP1 PUSH3 0x7CE PUSH1 0x0 CODECOPY PUSH1 0x0 RETURN INVALID PUSH1 0x80 PUSH1 0x40 MSTORE CALLVALUE DUP1 ISZERO PUSH2 0x10 JUMPI PUSH1 0x0 DUP1 REVERT JUMPDEST POP PUSH1 0x4 CALLDATASIZE LT PUSH2 0xF5 JUMPI PUSH1 0x0 CALLDATALOAD PUSH1 0xE0 SHR DUP1 PUSH4 0x87D81789 GT PUSH2 0x97 JUMPI DUP1 PUSH4 0xE5A6B10F GT PUSH2 0x66 JUMPI DUP1 PUSH4 0xE5A6B10F EQ PUSH2 0x217 JUMPI DUP1 PUSH4 0xE6400BBE EQ PUSH2 0x235 JUMPI DUP1 PUSH4 0xEA8A1AF0 EQ PUSH2 0x23F JUMPI DUP1 PUSH4 0xEF838F88 EQ PUSH2 0x249 JUMPI PUSH2 0xF5 JUMP JUMPDEST DUP1 PUSH4 0x87D81789 EQ PUSH2 0x190 JUMPI DUP1 PUSH4 0x98B9F004 EQ PUSH2 0x1C1 JUMPI DUP1 PUSH4 0xCB2EF6F7 EQ PUSH2 0x1DD JUMPI DUP1 PUSH4 0xDA860F1B EQ PUSH2 0x1FB JUMPI PUSH2 0xF5 JUMP JUMPDEST DUP1 PUSH4 0x43D726D6 GT PUSH2 0xD3 JUMPI DUP1 PUSH4 0x43D726D6 EQ PUSH2 0x140 JUMPI DUP1 PUSH4 0x633423BE EQ PUSH2 0x14A JUMPI DUP1 PUSH4 0x6720CEB1 EQ PUSH2 0x168 JUMPI DUP1 PUSH4 0x84AB30A5 EQ PUSH2 0x172 JUMPI PUSH2 0xF5 JUMP JUMPDEST DUP1 PUSH4 0xD0175A9 EQ PUSH2 0xFA JUMPI DUP1 PUSH4 0x10CCB04C EQ PUSH2 0x118 JUMPI DUP1 PUSH4 0x24600FC3 EQ PUSH2 0x136 JUMPI JUMPDEST PUSH1 0x0 DUP1 REVERT JUMPDEST PUSH2 0x102 PUSH2 0x267 JUMP JUMPDEST PUSH1 0x40 MLOAD PUSH2 0x10F SWAP2 SWAP1 PUSH2 0xE42 JUMP JUMPDEST PUSH1 0x40 MLOAD DUP1 SWAP2 SUB SWAP1 RETURN JUMPDEST PUSH2 0x120 PUSH2 0x28D JUMP JUMPDEST PUSH1 0x40 MLOAD PUSH2 0x12D SWAP2 SWAP1 PUSH2 0xED4 JUMP JUMPDEST PUSH1 0x40 MLOAD DUP1 SWAP2 SUB SWAP1 RETURN JUMPDEST PUSH2 0x13E PUSH2 0x2A0 JUMP JUMPDEST STOP JUMPDEST PUSH2 0x148 PUSH2 0x332 JUMP JUMPDEST STOP JUMPDEST PUSH2 0x152 PUSH2 0x464 JUMP JUMPDEST PUSH1 0x40 MLOAD PUSH2 0x15F SWAP2 SWAP1 PUSH2 0xE42 JUMP JUMPDEST PUSH1 0x40 MLOAD DUP1 SWAP2 SUB SWAP1 RETURN JUMPDEST PUSH2 0x170 PUSH2 0x48A JUMP JUMPDEST STOP JUMPDEST PUSH2 0x17A PUSH2 0x6A1 JUMP JUMPDEST PUSH1 0x40 MLOAD PUSH2 0x187 SWAP2 SWAP1 PUSH2 0xF7F JUMP JUMPDEST PUSH1 0x40 MLOAD DUP1 SWAP2 SUB SWAP1 RETURN JUMPDEST PUSH2 0x1AA PUSH1 0x4 DUP1 CALLDATASIZE SUB DUP2 ADD SWAP1 PUSH2 0x1A5 SWAP2 SWAP1 PUSH2 0xFDC JUMP JUMPDEST PUSH2 0x72F JUMP JUMPDEST PUSH1 0x40 MLOAD PUSH2 0x1B8 SWAP3 SWAP2 SWAP1 PUSH2 0x1018 JUMP JUMPDEST PUSH1 0x40 MLOAD DUP1 SWAP2 SUB SWAP1 RETURN JUMPDEST PUSH2 0x1DB PUSH1 0x4 DUP1 CALLDATASIZE SUB DUP2 ADD SWAP1 PUSH2 0x1D6 SWAP2 SWAP1 PUSH2 0x106D JUMP JUMPDEST PUSH2 0x783 JUMP JUMPDEST STOP JUMPDEST PUSH2 0x1E5 PUSH2 0x868 JUMP JUMPDEST PUSH1 0x40 MLOAD PUSH2 0x1F2 SWAP2 SWAP1 PUSH2 0xF7F JUMP JUMPDEST PUSH1 0x40 MLOAD DUP1 SWAP2 SUB SWAP1 RETURN JUMPDEST PUSH2 0x215 PUSH1 0x4 DUP1 CALLDATASIZE SUB DUP2 ADD SWAP1 PUSH2 0x210 SWAP2 SWAP1 PUSH2 0xFDC JUMP JUMPDEST PUSH2 0x8F6 JUMP JUMPDEST STOP JUMPDEST PUSH2 0x21F PUSH2 0x989 JUMP JUMPDEST PUSH1 0x40 MLOAD PUSH2 0x22C SWAP2 SWAP1 PUSH2 0xE42 JUMP JUMPDEST PUSH1 0x40 MLOAD DUP1 SWAP2 SUB SWAP1 RETURN JUMPDEST PUSH2 0x23D PUSH2 0x9AF JUMP JUMPDEST STOP JUMPDEST PUSH2 0x247 PUSH2 0xB57 JUMP JUMPDEST STOP JUMPDEST PUSH2 0x251 PUSH2 0xC8A JUMP JUMPDEST PUSH1 0x40 MLOAD PUSH2 0x25E SWAP2 SWAP1 PUSH2 0xF7F JUMP JUMPDEST PUSH1 0x40 MLOAD DUP1 SWAP2 SUB SWAP1 RETURN JUMPDEST PUSH1 0x2 PUSH1 0x0 SWAP1 SLOAD SWAP1 PUSH2 0x100 EXP SWAP1 DIV PUSH20 0xFFFFFFFFFFFFFFFFFFFFFFFFFFFFFFFFFFFFFFFF AND DUP2 JUMP JUMPDEST PUSH1 0x4 PUSH1 0x14 SWAP1 SLOAD SWAP1 PUSH2 0x100 EXP SWAP1 DIV PUSH1 0xFF AND DUP2 JUMP JUMPDEST PUSH1 0x2 PUSH1 0x0 SWAP1 SLOAD SWAP1 PUSH2 0x100 EXP SWAP1 DIV PUSH20 0xFFFFFFFFFFFFFFFFFFFFFFFFFFFFFFFFFFFFFFFF AND PUSH20 0xFFFFFFFFFFFFFFFFFFFFFFFFFFFFFFFFFFFFFFFF AND CALLER PUSH20 0xFFFFFFFFFFFFFFFFFFFFFFFFFFFFFFFFFFFFFFFF AND EQ PUSH2 0x330 JUMPI PUSH1 0x40 MLOAD PUSH32 0x8C379A000000000000000000000000000000000000000000000000000000000 DUP2 MSTORE PUSH1 0x4 ADD PUSH2 0x327 SWAP1 PUSH2 0x110C JUMP JUMPDEST PUSH1 0x40 MLOAD DUP1 SWAP2 SUB SWAP1 REVERT JUMPDEST JUMP JUMPDEST PUSH1 0x2 PUSH1 0x0 SWAP1 SLOAD SWAP1 PUSH2 0x100 EXP SWAP1 DIV PUSH20 0xFFFFFFFFFFFFFFFFFFFFFFFFFFFFFFFFFFFFFFFF AND PUSH20 0xFFFFFFFFFFFFFFFFFFFFFFFFFFFFFFFFFFFFFFFF AND CALLER PUSH20 0xFFFFFFFFFFFFFFFFFFFFFFFFFFFFFFFFFFFFFFFF AND EQ PUSH2 0x3C2 JUMPI PUSH1 0x40 MLOAD PUSH32 0x8C379A000000000000000000000000000000000000000000000000000000000 DUP2 MSTORE PUSH1 0x4 ADD PUSH2 0x3B9 SWAP1 PUSH2 0x110C JUMP JUMPDEST PUSH1 0x40 MLOAD DUP1 SWAP2 SUB SWAP1 REVERT JUMPDEST PUSH1 0x3 PUSH1 0x4 DUP2 GT ISZERO PUSH2 0x3D6 JUMPI PUSH2 0x3D5 PUSH2 0xE5D JUMP JUMPDEST JUMPDEST PUSH1 0x4 PUSH1 0x14 SWAP1 SLOAD SWAP1 PUSH2 0x100 EXP SWAP1 DIV PUSH1 0xFF AND PUSH1 0x4 DUP2 GT ISZERO PUSH2 0x3F8 JUMPI PUSH2 0x3F7 PUSH2 0xE5D JUMP JUMPDEST JUMPDEST SUB PUSH2 0x438 JUMPI PUSH1 0x40 MLOAD PUSH32 0x8C379A000000000000000000000000000000000000000000000000000000000 DUP2 MSTORE PUSH1 0x4 ADD PUSH2 0x42F SWAP1 PUSH2 0x119E JUMP JUMPDEST PUSH1 0x40 MLOAD DUP1 SWAP2 SUB SWAP1 REVERT JUMPDEST PUSH1 0x4 DUP1 PUSH1 0x14 PUSH2 0x100 EXP DUP2 SLOAD DUP2 PUSH1 0xFF MUL NOT AND SWAP1 DUP4 PUSH1 0x4 DUP2 GT ISZERO PUSH2 0x45D JUMPI PUSH2 0x45C PUSH2 0xE5D JUMP JUMPDEST JUMPDEST MUL OR SWAP1 SSTORE POP JUMP JUMPDEST PUSH1 0x3 PUSH1 0x0 SWAP1 SLOAD SWAP1 PUSH2 0x100 EXP SWAP1 DIV PUSH20 0xFFFFFFFFFFFFFFFFFFFFFFFFFFFFFFFFFFFFFFFF AND DUP2 JUMP JUMPDEST PUSH1 0x2 PUSH1 0x0 SWAP1 SLOAD SWAP1 PUSH2 0x100 EXP SWAP1 DIV PUSH20 0xFFFFFFFFFFFFFFFFFFFFFFFFFFFFFFFFFFFFFFFF AND PUSH20 0xFFFFFFFFFFFFFFFFFFFFFFFFFFFFFFFFFFFFFFFF AND CALLER PUSH20 0xFFFFFFFFFFFFFFFFFFFFFFFFFFFFFFFFFFFFFFFF AND EQ PUSH2 0x51A JUMPI PUSH1 0x40 MLOAD PUSH32 0x8C379A000000000000000000000000000000000000000000000000000000000 DUP2 MSTORE PUSH1 0x4 ADD PUSH2 0x511 SWAP1 PUSH2 0x110C JUMP JUMPDEST PUSH1 0x40 MLOAD DUP1 SWAP2 SUB SWAP1 REVERT JUMPDEST PUSH1 0x1 PUSH1 0x4 DUP2 GT ISZERO PUSH2 0x52E JUMPI PUSH2 0x52D PUSH2 0xE5D JUMP JUMPDEST JUMPDEST PUSH1 0x4 PUSH1 0x14 SWAP1 SLOAD SWAP1 PUSH2 0x100 EXP SWAP1 DIV PUSH1 0xFF AND PUSH1 0x4 DUP2 GT ISZERO PUSH2 0x550 JUMPI PUSH2 0x54F PUSH2 0xE5D JUMP JUMPDEST JUMPDEST EQ PUSH2 0x590 JUMPI PUSH1 0x40 MLOAD PUSH32 0x8C379A000000000000000000000000000000000000000000000000000000000 DUP2 MSTORE PUSH1 0x4 ADD PUSH2 0x587 SWAP1 PUSH2 0x1230 JUMP JUMPDEST PUSH1 0x40 MLOAD DUP1 SWAP2 SUB SWAP1 REVERT JUMPDEST PUSH2 0x5BE PUSH1 0x3 PUSH1 0x0 SWAP1 SLOAD SWAP1 PUSH2 0x100 EXP SWAP1 DIV PUSH20 0xFFFFFFFFFFFFFFFFFFFFFFFFFFFFFFFFFFFFFFFF AND PUSH1 0x7 SLOAD PUSH2 0xD18 JUMP JUMPDEST ADDRESS PUSH20 0xFFFFFFFFFFFFFFFFFFFFFFFFFFFFFFFFFFFFFFFF AND PUSH32 0x960F80C1468168314E9BB3DAA45C4819EF0A7969615E253BBC73477997B1EB58 PUSH1 0x40 MLOAD PUSH1 0x40 MLOAD DUP1 SWAP2 SUB SWAP1 LOG2 PUSH1 0x2 PUSH1 0x0 SWAP1 SLOAD SWAP1 PUSH2 0x100 EXP SWAP1 DIV PUSH20 0xFFFFFFFFFFFFFFFFFFFFFFFFFFFFFFFFFFFFFFFF AND PUSH20 0xFFFFFFFFFFFFFFFFFFFFFFFFFFFFFFFFFFFFFFFF AND PUSH1 0x3 PUSH1 0x0 SWAP1 SLOAD SWAP1 PUSH2 0x100 EXP SWAP1 DIV PUSH20 0xFFFFFFFFFFFFFFFFFFFFFFFFFFFFFFFFFFFFFFFF AND PUSH20 0xFFFFFFFFFFFFFFFFFFFFFFFFFFFFFFFFFFFFFFFF AND PUSH32 0x433731019D78F9808CEDC4435FC0EEFC894B9A6F2147B6AFBC20D284FE41955C PUSH1 0x40 MLOAD PUSH1 0x40 MLOAD DUP1 SWAP2 SUB SWAP1 LOG3 JUMP JUMPDEST PUSH1 0x1 DUP1 SLOAD PUSH2 0x6AE SWAP1 PUSH2 0x127F JUMP JUMPDEST DUP1 PUSH1 0x1F ADD PUSH1 0x20 DUP1 SWAP2 DIV MUL PUSH1 0x20 ADD PUSH1 0x40 MLOAD SWAP1 DUP2 ADD PUSH1 0x40 MSTORE DUP1 SWAP3 SWAP2 SWAP1 DUP2 DUP2 MSTORE PUSH1 0x20 ADD DUP3 DUP1 SLOAD PUSH2 0x6DA SWAP1 PUSH2 0x127F JUMP JUMPDEST DUP1 ISZERO PUSH2 0x727 JUMPI DUP1 PUSH1 0x1F LT PUSH2 0x6FC JUMPI PUSH2 0x100 DUP1 DUP4 SLOAD DIV MUL DUP4 MSTORE SWAP2 PUSH1 0x20 ADD SWAP2 PUSH2 0x727 JUMP JUMPDEST DUP3 ADD SWAP2 SWAP1 PUSH1 0x0 MSTORE PUSH1 0x20 PUSH1 0x0 KECCAK256 SWAP1 JUMPDEST DUP2 SLOAD DUP2 MSTORE SWAP1 PUSH1 0x1 ADD SWAP1 PUSH1 0x20 ADD DUP1 DUP4 GT PUSH2 0x70A JUMPI DUP3 SWAP1 SUB PUSH1 0x1F AND DUP3 ADD SWAP2 JUMPDEST POP POP POP POP POP DUP2 JUMP JUMPDEST PUSH1 0x6 DUP2 DUP2 SLOAD DUP2 LT PUSH2 0x73F JUMPI PUSH1 0x0 DUP1 REVERT JUMPDEST SWAP1 PUSH1 0x0 MSTORE PUSH1 0x20 PUSH1 0x0 KECCAK256 SWAP1 PUSH1 0x2 MUL ADD PUSH1 0x0 SWAP2 POP SWAP1 POP DUP1 PUSH1 0x0 ADD SLOAD SWAP1 DUP1 PUSH1 0x1 ADD PUSH1 0x0 SWAP1 SLOAD SWAP1 PUSH2 0x100 EXP SWAP1 DIV PUSH20 0xFFFFFFFFFFFFFFFFFFFFFFFFFFFFFFFFFFFFFFFF AND SWAP1 POP DUP3 JUMP JUMPDEST PUSH1 0x0 PUSH1 0x4 DUP2 GT ISZERO PUSH2 0x797 JUMPI PUSH2 0x796 PUSH2 0xE5D JUMP JUMPDEST JUMPDEST PUSH1 0x4 PUSH1 0x14 SWAP1 SLOAD SWAP1 PUSH2 0x100 EXP SWAP1 DIV PUSH1 0xFF AND PUSH1 0x4 DUP2 GT ISZERO PUSH2 0x7B9 JUMPI PUSH2 0x7B8 PUSH2 0xE5D JUMP JUMPDEST JUMPDEST EQ PUSH2 0x7F9 JUMPI PUSH1 0x40 MLOAD PUSH32 0x8C379A000000000000000000000000000000000000000000000000000000000 DUP2 MSTORE PUSH1 0x4 ADD PUSH2 0x7F0 SWAP1 PUSH2 0x1322 JUMP JUMPDEST PUSH1 0x40 MLOAD DUP1 SWAP2 SUB SWAP1 REVERT JUMPDEST DUP1 PUSH1 0x3 PUSH1 0x0 PUSH2 0x100 EXP DUP2 SLOAD DUP2 PUSH20 0xFFFFFFFFFFFFFFFFFFFFFFFFFFFFFFFFFFFFFFFF MUL NOT AND SWAP1 DUP4 PUSH20 0xFFFFFFFFFFFFFFFFFFFFFFFFFFFFFFFFFFFFFFFF AND MUL OR SWAP1 SSTORE POP PUSH1 0x1 PUSH1 0x4 PUSH1 0x14 PUSH2 0x100 EXP DUP2 SLOAD DUP2 PUSH1 0xFF MUL NOT AND SWAP1 DUP4 PUSH1 0x4 DUP2 GT ISZERO PUSH2 0x860 JUMPI PUSH2 0x85F PUSH2 0xE5D JUMP JUMPDEST JUMPDEST MUL OR SWAP1 SSTORE POP POP JUMP JUMPDEST PUSH1 0x5 DUP1 SLOAD PUSH2 0x875 SWAP1 PUSH2 0x127F JUMP JUMPDEST DUP1 PUSH1 0x1F ADD PUSH1 0x20 DUP1 SWAP2 DIV MUL PUSH1 0x20 ADD PUSH1 0x40 MLOAD SWAP1 DUP2 ADD PUSH1 0x40 MSTORE DUP1 SWAP3 SWAP2 SWAP1 DUP2 DUP2 MSTORE PUSH1 0x20 ADD DUP3 DUP1 SLOAD PUSH2 0x8A1 SWAP1 PUSH2 0x127F JUMP JUMPDEST DUP1 ISZERO PUSH2 0x8EE JUMPI DUP1 PUSH1 0x1F LT PUSH2 0x8C3 JUMPI PUSH2 0x100 DUP1 DUP4 SLOAD DIV MUL DUP4 MSTORE SWAP2 PUSH1 0x20 ADD SWAP2 PUSH2 0x8EE JUMP JUMPDEST DUP3 ADD SWAP2 SWAP1 PUSH1 0x0 MSTORE PUSH1 0x20 PUSH1 0x0 KECCAK256 SWAP1 JUMPDEST DUP2 SLOAD DUP2 MSTORE SWAP1 PUSH1 0x1 ADD SWAP1 PUSH1 0x20 ADD DUP1 DUP4 GT PUSH2 0x8D1 JUMPI DUP3 SWAP1 SUB PUSH1 0x1F AND DUP3 ADD SWAP2 JUMPDEST POP POP POP POP POP DUP2 JUMP JUMPDEST PUSH1 0x2 PUSH1 0x0 SWAP1 SLOAD SWAP1 PUSH2 0x100 EXP SWAP1 DIV PUSH20 0xFFFFFFFFFFFFFFFFFFFFFFFFFFFFFFFFFFFFFFFF AND PUSH20 0xFFFFFFFFFFFFFFFFFFFFFFFFFFFFFFFFFFFFFFFF AND CALLER PUSH20 0xFFFFFFFFFFFFFFFFFFFFFFFFFFFFFFFFFFFFFFFF AND EQ PUSH2 0x986 JUMPI PUSH1 0x40 MLOAD PUSH32 0x8C379A000000000000000000000000000000000000000000000000000000000 DUP2 MSTORE PUSH1 0x4 ADD PUSH2 0x97D SWAP1 PUSH2 0x110C JUMP JUMPDEST PUSH1 0x40 MLOAD DUP1 SWAP2 SUB SWAP1 REVERT JUMPDEST POP JUMP JUMPDEST PUSH1 0x4 PUSH1 0x0 SWAP1 SLOAD SWAP1 PUSH2 0x100 EXP SWAP1 DIV PUSH20 0xFFFFFFFFFFFFFFFFFFFFFFFFFFFFFFFFFFFFFFFF AND DUP2 JUMP JUMPDEST PUSH1 0x2 PUSH1 0x0 SWAP1 SLOAD SWAP1 PUSH2 0x100 EXP SWAP1 DIV PUSH20 0xFFFFFFFFFFFFFFFFFFFFFFFFFFFFFFFFFFFFFFFF AND PUSH20 0xFFFFFFFFFFFFFFFFFFFFFFFFFFFFFFFFFFFFFFFF AND CALLER PUSH20 0xFFFFFFFFFFFFFFFFFFFFFFFFFFFFFFFFFFFFFFFF AND EQ PUSH2 0xA3F JUMPI PUSH1 0x40 MLOAD PUSH32 0x8C379A000000000000000000000000000000000000000000000000000000000 DUP2 MSTORE PUSH1 0x4 ADD PUSH2 0xA36 SWAP1 PUSH2 0x110C JUMP JUMPDEST PUSH1 0x40 MLOAD DUP1 SWAP2 SUB SWAP1 REVERT JUMPDEST PUSH1 0x3 PUSH1 0x4 DUP2 GT ISZERO PUSH2 0xA53 JUMPI PUSH2 0xA52 PUSH2 0xE5D JUMP JUMPDEST JUMPDEST PUSH1 0x4 PUSH1 0x14 SWAP1 SLOAD SWAP1 PUSH2 0x100 EXP SWAP1 DIV PUSH1 0xFF AND PUSH1 0x4 DUP2 GT ISZERO PUSH2 0xA75 JUMPI PUSH2 0xA74 PUSH2 0xE5D JUMP JUMPDEST JUMPDEST SUB PUSH2 0xAB5 JUMPI PUSH1 0x40 MLOAD PUSH32 0x8C379A000000000000000000000000000000000000000000000000000000000 DUP2 MSTORE PUSH1 0x4 ADD PUSH2 0xAAC SWAP1 PUSH2 0x119E JUMP JUMPDEST PUSH1 0x40 MLOAD DUP1 SWAP2 SUB SWAP1 REVERT JUMPDEST PUSH1 0x4 DUP1 DUP2 GT ISZERO PUSH2 0xAC8 JUMPI PUSH2 0xAC7 PUSH2 0xE5D JUMP JUMPDEST JUMPDEST PUSH1 0x4 PUSH1 0x14 SWAP1 SLOAD SWAP1 PUSH2 0x100 EXP SWAP1 DIV PUSH1 0xFF AND PUSH1 0x4 DUP2 GT ISZERO PUSH2 0xAEA JUMPI PUSH2 0xAE9 PUSH2 0xE5D JUMP JUMPDEST JUMPDEST SUB PUSH2 0xB2A JUMPI PUSH1 0x40 MLOAD PUSH32 0x8C379A000000000000000000000000000000000000000000000000000000000 DUP2 MSTORE PUSH1 0x4 ADD PUSH2 0xB21 SWAP1 PUSH2 0x13B4 JUMP JUMPDEST PUSH1 0x40 MLOAD DUP1 SWAP2 SUB SWAP1 REVERT JUMPDEST PUSH1 0x2 PUSH1 0x4 PUSH1 0x14 PUSH2 0x100 EXP DUP2 SLOAD DUP2 PUSH1 0xFF MUL NOT AND SWAP1 DUP4 PUSH1 0x4 DUP2 GT ISZERO PUSH2 0xB50 JUMPI PUSH2 0xB4F PUSH2 0xE5D JUMP JUMPDEST JUMPDEST MUL OR SWAP1 SSTORE POP JUMP JUMPDEST PUSH1 0x2 PUSH1 0x0 SWAP1 SLOAD SWAP1 PUSH2 0x100 EXP SWAP1 DIV PUSH20 0xFFFFFFFFFFFFFFFFFFFFFFFFFFFFFFFFFFFFFFFF AND PUSH20 0xFFFFFFFFFFFFFFFFFFFFFFFFFFFFFFFFFFFFFFFF AND CALLER PUSH20 0xFFFFFFFFFFFFFFFFFFFFFFFFFFFFFFFFFFFFFFFF AND EQ PUSH2 0xBE7 JUMPI PUSH1 0x40 MLOAD PUSH32 0x8C379A000000000000000000000000000000000000000000000000000000000 DUP2 MSTORE PUSH1 0x4 ADD PUSH2 0xBDE SWAP1 PUSH2 0x110C JUMP JUMPDEST PUSH1 0x40 MLOAD DUP1 SWAP2 SUB SWAP1 REVERT JUMPDEST PUSH1 0x3 PUSH1 0x4 DUP2 GT ISZERO PUSH2 0xBFB JUMPI PUSH2 0xBFA PUSH2 0xE5D JUMP JUMPDEST JUMPDEST PUSH1 0x4 PUSH1 0x14 SWAP1 SLOAD SWAP1 PUSH2 0x100 EXP SWAP1 DIV PUSH1 0xFF AND PUSH1 0x4 DUP2 GT ISZERO PUSH2 0xC1D JUMPI PUSH2 0xC1C PUSH2 0xE5D JUMP JUMPDEST JUMPDEST SUB PUSH2 0xC5D JUMPI PUSH1 0x40 MLOAD PUSH32 0x8C379A000000000000000000000000000000000000000000000000000000000 DUP2 MSTORE PUSH1 0x4 ADD PUSH2 0xC54 SWAP1 PUSH2 0x119E JUMP JUMPDEST PUSH1 0x40 MLOAD DUP1 SWAP2 SUB SWAP1 REVERT JUMPDEST PUSH1 0x3 PUSH1 0x4 PUSH1 0x14 PUSH2 0x100 EXP DUP2 SLOAD DUP2 PUSH1 0xFF MUL NOT AND SWAP1 DUP4 PUSH1 0x4 DUP2 GT ISZERO PUSH2 0xC83 JUMPI PUSH2 0xC82 PUSH2 0xE5D JUMP JUMPDEST JUMPDEST MUL OR SWAP1 SSTORE POP JUMP JUMPDEST PUSH1 0x0 DUP1 SLOAD PUSH2 0xC97 SWAP1 PUSH2 0x127F JUMP JUMPDEST DUP1 PUSH1 0x1F ADD PUSH1 0x20 DUP1 SWAP2 DIV MUL PUSH1 0x20 ADD PUSH1 0x40 MLOAD SWAP1 DUP2 ADD PUSH1 0x40 MSTORE DUP1 SWAP3 SWAP2 SWAP1 DUP2 DUP2 MSTORE PUSH1 0x20 ADD DUP3 DUP1 SLOAD PUSH2 0xCC3 SWAP1 PUSH2 0x127F JUMP JUMPDEST DUP1 ISZERO PUSH2 0xD10 JUMPI DUP1 PUSH1 0x1F LT PUSH2 0xCE5 JUMPI PUSH2 0x100 DUP1 DUP4 SLOAD DIV MUL DUP4 MSTORE SWAP2 PUSH1 0x20 ADD SWAP2 PUSH2 0xD10 JUMP JUMPDEST DUP3 ADD SWAP2 SWAP1 PUSH1 0x0 MSTORE PUSH1 0x20 PUSH1 0x0 KECCAK256 SWAP1 JUMPDEST DUP2 SLOAD DUP2 MSTORE SWAP1 PUSH1 0x1 ADD SWAP1 PUSH1 0x20 ADD DUP1 DUP4 GT PUSH2 0xCF3 JUMPI DUP3 SWAP1 SUB PUSH1 0x1F AND DUP3 ADD SWAP2 JUMPDEST POP POP POP POP POP DUP2 JUMP JUMPDEST PUSH1 0x0 PUSH1 0x4 PUSH1 0x0 SWAP1 SLOAD SWAP1 PUSH2 0x100 EXP SWAP1 DIV PUSH20 0xFFFFFFFFFFFFFFFFFFFFFFFFFFFFFFFFFFFFFFFF AND SWAP1 POP DUP1 PUSH20 0xFFFFFFFFFFFFFFFFFFFFFFFFFFFFFFFFFFFFFFFF AND PUSH4 0xA9059CBB DUP5 DUP5 PUSH1 0x40 MLOAD DUP4 PUSH4 0xFFFFFFFF AND PUSH1 0xE0 SHL DUP2 MSTORE PUSH1 0x4 ADD PUSH2 0xD7A SWAP3 SWAP2 SWAP1 PUSH2 0x13D4 JUMP JUMPDEST PUSH1 0x20 PUSH1 0x40 MLOAD DUP1 DUP4 SUB DUP2 PUSH1 0x0 DUP8 GAS CALL ISZERO DUP1 ISZERO PUSH2 0xD99 JUMPI RETURNDATASIZE PUSH1 0x0 DUP1 RETURNDATACOPY RETURNDATASIZE PUSH1 0x0 REVERT JUMPDEST POP POP POP POP PUSH1 0x40 MLOAD RETURNDATASIZE PUSH1 0x1F NOT PUSH1 0x1F DUP3 ADD AND DUP3 ADD DUP1 PUSH1 0x40 MSTORE POP DUP2 ADD SWAP1 PUSH2 0xDBD SWAP2 SWAP1 PUSH2 0x1435 JUMP JUMPDEST PUSH2 0xDFC JUMPI PUSH1 0x40 MLOAD PUSH32 0x8C379A000000000000000000000000000000000000000000000000000000000 DUP2 MSTORE PUSH1 0x4 ADD PUSH2 0xDF3 SWAP1 PUSH2 0x14AE JUMP JUMPDEST PUSH1 0x40 MLOAD DUP1 SWAP2 SUB SWAP1 REVERT JUMPDEST POP POP POP JUMP JUMPDEST PUSH1 0x0 PUSH20 0xFFFFFFFFFFFFFFFFFFFFFFFFFFFFFFFFFFFFFFFF DUP3 AND SWAP1 POP SWAP2 SWAP1 POP JUMP JUMPDEST PUSH1 0x0 PUSH2 0xE2C DUP3 PUSH2 0xE01 JUMP JUMPDEST SWAP1 POP SWAP2 SWAP1 POP JUMP JUMPDEST PUSH2 0xE3C DUP2 PUSH2 0xE21 JUMP JUMPDEST DUP3 MSTORE POP POP JUMP JUMPDEST PUSH1 0x0 PUSH1 0x20 DUP3 ADD SWAP1 POP PUSH2 0xE57 PUSH1 0x0 DUP4 ADD DUP5 PUSH2 0xE33 JUMP JUMPDEST SWAP3 SWAP2 POP POP JUMP JUMPDEST PUSH32 0x4E487B7100000000000000000000000000000000000000000000000000000000 PUSH1 0x0 MSTORE PUSH1 0x21 PUSH1 0x4 MSTORE PUSH1 0x24 PUSH1 0x0 REVERT JUMPDEST PUSH1 0x5 DUP2 LT PUSH2 0xE9D JUMPI PUSH2 0xE9C PUSH2 0xE5D JUMP JUMPDEST JUMPDEST POP JUMP JUMPDEST PUSH1 0x0 DUP2 SWAP1 POP PUSH2 0xEAE DUP3 PUSH2 0xE8C JUMP JUMPDEST SWAP2 SWAP1 POP JUMP JUMPDEST PUSH1 0x0 PUSH2 0xEBE DUP3 PUSH2 0xEA0 JUMP JUMPDEST SWAP1 POP SWAP2 SWAP1 POP JUMP JUMPDEST PUSH2 0xECE DUP2 PUSH2 0xEB3 JUMP JUMPDEST DUP3 MSTORE POP POP JUMP JUMPDEST PUSH1 0x0 PUSH1 0x20 DUP3 ADD SWAP1 POP PUSH2 0xEE9 PUSH1 0x0 DUP4 ADD DUP5 PUSH2 0xEC5 JUMP JUMPDEST SWAP3 SWAP2 POP POP JUMP JUMPDEST PUSH1 0x0 DUP2 MLOAD SWAP1 POP SWAP2 SWAP1 POP JUMP JUMPDEST PUSH1 0x0 DUP3 DUP3 MSTORE PUSH1 0x20 DUP3 ADD SWAP1 POP SWAP3 SWAP2 POP POP JUMP JUMPDEST PUSH1 0x0 JUMPDEST DUP4 DUP2 LT ISZERO PUSH2 0xF29 JUMPI DUP1 DUP3 ADD MLOAD DUP2 DUP5 ADD MSTORE PUSH1 0x20 DUP2 ADD SWAP1 POP PUSH2 0xF0E JUMP JUMPDEST PUSH1 0x0 DUP5 DUP5 ADD MSTORE POP POP POP POP JUMP JUMPDEST PUSH1 0x0 PUSH1 0x1F NOT PUSH1 0x1F DUP4 ADD AND SWAP1 POP SWAP2 SWAP1 POP JUMP JUMPDEST PUSH1 0x0 PUSH2 0xF51 DUP3 PUSH2 0xEEF JUMP JUMPDEST PUSH2 0xF5B DUP2 DUP6 PUSH2 0xEFA JUMP JUMPDEST SWAP4 POP PUSH2 0xF6B DUP2 DUP6 PUSH1 0x20 DUP7 ADD PUSH2 0xF0B JUMP JUMPDEST PUSH2 0xF74 DUP2 PUSH2 0xF35 JUMP JUMPDEST DUP5 ADD SWAP2 POP POP SWAP3 SWAP2 POP POP JUMP JUMPDEST PUSH1 0x0 PUSH1 0x20 DUP3 ADD SWAP1 POP DUP2 DUP2 SUB PUSH1 0x0 DUP4 ADD MSTORE PUSH2 0xF99 DUP2 DUP5 PUSH2 0xF46 JUMP JUMPDEST SWAP1 POP SWAP3 SWAP2 POP POP JUMP JUMPDEST PUSH1 0x0 DUP1 REVERT JUMPDEST PUSH1 0x0 DUP2 SWAP1 POP SWAP2 SWAP1 POP JUMP JUMPDEST PUSH2 0xFB9 DUP2 PUSH2 0xFA6 JUMP JUMPDEST DUP2 EQ PUSH2 0xFC4 JUMPI PUSH1 0x0 DUP1 REVERT JUMPDEST POP JUMP JUMPDEST PUSH1 0x0 DUP2 CALLDATALOAD SWAP1 POP PUSH2 0xFD6 DUP2 PUSH2 0xFB0 JUMP JUMPDEST SWAP3 SWAP2 POP POP JUMP JUMPDEST PUSH1 0x0 PUSH1 0x20 DUP3 DUP5 SUB SLT ISZERO PUSH2 0xFF2 JUMPI PUSH2 0xFF1 PUSH2 0xFA1 JUMP JUMPDEST JUMPDEST PUSH1 0x0 PUSH2 0x1000 DUP5 DUP3 DUP6 ADD PUSH2 0xFC7 JUMP JUMPDEST SWAP2 POP POP SWAP3 SWAP2 POP POP JUMP JUMPDEST PUSH2 0x1012 DUP2 PUSH2 0xFA6 JUMP JUMPDEST DUP3 MSTORE POP POP JUMP JUMPDEST PUSH1 0x0 PUSH1 0x40 DUP3 ADD SWAP1 POP PUSH2 0x102D PUSH1 0x0 DUP4 ADD DUP6 PUSH2 0x1009 JUMP JUMPDEST PUSH2 0x103A PUSH1 0x20 DUP4 ADD DUP5 PUSH2 0xE33 JUMP JUMPDEST SWAP4 SWAP3 POP POP POP JUMP JUMPDEST PUSH2 0x104A DUP2 PUSH2 0xE21 JUMP JUMPDEST DUP2 EQ PUSH2 0x1055 JUMPI PUSH1 0x0 DUP1 REVERT JUMPDEST POP JUMP JUMPDEST PUSH1 0x0 DUP2 CALLDATALOAD SWAP1 POP PUSH2 0x1067 DUP2 PUSH2 0x1041 JUMP JUMPDEST SWAP3 SWAP2 POP POP JUMP JUMPDEST PUSH1 0x0 PUSH1 0x20 DUP3 DUP5 SUB SLT ISZERO PUSH2 0x1083 JUMPI PUSH2 0x1082 PUSH2 0xFA1 JUMP JUMPDEST JUMPDEST PUSH1 0x0 PUSH2 0x1091 DUP5 DUP3 DUP6 ADD PUSH2 0x1058 JUMP JUMPDEST SWAP2 POP POP SWAP3 SWAP2 POP POP JUMP JUMPDEST PUSH32 0x596F7520617265206E6F7420616C6C6F77656420746F206361727279206F7574 PUSH1 0x0 DUP3 ADD MSTORE PUSH32 0x207468697320616374696F6E0000000000000000000000000000000000000000 PUSH1 0x20 DUP3 ADD MSTORE POP JUMP JUMPDEST PUSH1 0x0 PUSH2 0x10F6 PUSH1 0x2C DUP4 PUSH2 0xEFA JUMP JUMPDEST SWAP2 POP PUSH2 0x1101 DUP3 PUSH2 0x109A JUMP JUMPDEST PUSH1 0x40 DUP3 ADD SWAP1 POP SWAP2 SWAP1 POP JUMP JUMPDEST PUSH1 0x0 PUSH1 0x20 DUP3 ADD SWAP1 POP DUP2 DUP2 SUB PUSH1 0x0 DUP4 ADD MSTORE PUSH2 0x1125 DUP2 PUSH2 0x10E9 JUMP JUMPDEST SWAP1 POP SWAP2 SWAP1 POP JUMP JUMPDEST PUSH32 0x5468697320636F6E74726163742068617320616C7265616479206265656E2063 PUSH1 0x0 DUP3 ADD MSTORE PUSH32 0x616E63656C6C6564000000000000000000000000000000000000000000000000 PUSH1 0x20 DUP3 ADD MSTORE POP JUMP JUMPDEST PUSH1 0x0 PUSH2 0x1188 PUSH1 0x28 DUP4 PUSH2 0xEFA JUMP JUMPDEST SWAP2 POP PUSH2 0x1193 DUP3 PUSH2 0x112C JUMP JUMPDEST PUSH1 0x40 DUP3 ADD SWAP1 POP SWAP2 SWAP1 POP JUMP JUMPDEST PUSH1 0x0 PUSH1 0x20 DUP3 ADD SWAP1 POP DUP2 DUP2 SUB PUSH1 0x0 DUP4 ADD MSTORE PUSH2 0x11B7 DUP2 PUSH2 0x117B JUMP JUMPDEST SWAP1 POP SWAP2 SWAP1 POP JUMP JUMPDEST PUSH32 0x5468697320636F6E7472616374206973206E6F206C6F6E676572206163746976 PUSH1 0x0 DUP3 ADD MSTORE PUSH32 0x6500000000000000000000000000000000000000000000000000000000000000 PUSH1 0x20 DUP3 ADD MSTORE POP JUMP JUMPDEST PUSH1 0x0 PUSH2 0x121A PUSH1 0x21 DUP4 PUSH2 0xEFA JUMP JUMPDEST SWAP2 POP PUSH2 0x1225 DUP3 PUSH2 0x11BE JUMP JUMPDEST PUSH1 0x40 DUP3 ADD SWAP1 POP SWAP2 SWAP1 POP JUMP JUMPDEST PUSH1 0x0 PUSH1 0x20 DUP3 ADD SWAP1 POP DUP2 DUP2 SUB PUSH1 0x0 DUP4 ADD MSTORE PUSH2 0x1249 DUP2 PUSH2 0x120D JUMP JUMPDEST SWAP1 POP SWAP2 SWAP1 POP JUMP JUMPDEST PUSH32 0x4E487B7100000000000000000000000000000000000000000000000000000000 PUSH1 0x0 MSTORE PUSH1 0x22 PUSH1 0x4 MSTORE PUSH1 0x24 PUSH1 0x0 REVERT JUMPDEST PUSH1 0x0 PUSH1 0x2 DUP3 DIV SWAP1 POP PUSH1 0x1 DUP3 AND DUP1 PUSH2 0x1297 JUMPI PUSH1 0x7F DUP3 AND SWAP2 POP JUMPDEST PUSH1 0x20 DUP3 LT DUP2 SUB PUSH2 0x12AA JUMPI PUSH2 0x12A9 PUSH2 0x1250 JUMP JUMPDEST JUMPDEST POP SWAP2 SWAP1 POP JUMP JUMPDEST PUSH32 0x5468697320636F6E7472616374206973206E6F206C6F6E6765722070656E6469 PUSH1 0x0 DUP3 ADD MSTORE PUSH32 0x6E67000000000000000000000000000000000000000000000000000000000000 PUSH1 0x20 DUP3 ADD MSTORE POP JUMP JUMPDEST PUSH1 0x0 PUSH2 0x130C PUSH1 0x22 DUP4 PUSH2 0xEFA JUMP JUMPDEST SWAP2 POP PUSH2 0x1317 DUP3 PUSH2 0x12B0 JUMP JUMPDEST PUSH1 0x40 DUP3 ADD SWAP1 POP SWAP2 SWAP1 POP JUMP JUMPDEST PUSH1 0x0 PUSH1 0x20 DUP3 ADD SWAP1 POP DUP2 DUP2 SUB PUSH1 0x0 DUP4 ADD MSTORE PUSH2 0x133B DUP2 PUSH2 0x12FF JUMP JUMPDEST SWAP1 POP SWAP2 SWAP1 POP JUMP JUMPDEST PUSH32 0x5468697320636F6E74726163742068617320616C7265616479206265656E2063 PUSH1 0x0 DUP3 ADD MSTORE PUSH32 0x6C6F736564000000000000000000000000000000000000000000000000000000 PUSH1 0x20 DUP3 ADD MSTORE POP JUMP JUMPDEST PUSH1 0x0 PUSH2 0x139E PUSH1 0x25 DUP4 PUSH2 0xEFA JUMP JUMPDEST SWAP2 POP PUSH2 0x13A9 DUP3 PUSH2 0x1342 JUMP JUMPDEST PUSH1 0x40 DUP3 ADD SWAP1 POP SWAP2 SWAP1 POP JUMP JUMPDEST PUSH1 0x0 PUSH1 0x20 DUP3 ADD SWAP1 POP DUP2 DUP2 SUB PUSH1 0x0 DUP4 ADD MSTORE PUSH2 0x13CD DUP2 PUSH2 0x1391 JUMP JUMPDEST SWAP1 POP SWAP2 SWAP1 POP JUMP JUMPDEST PUSH1 0x0 PUSH1 0x40 DUP3 ADD SWAP1 POP PUSH2 0x13E9 PUSH1 0x0 DUP4 ADD DUP6 PUSH2 0xE33 JUMP JUMPDEST PUSH2 0x13F6 PUSH1 0x20 DUP4 ADD DUP5 PUSH2 0x1009 JUMP JUMPDEST SWAP4 SWAP3 POP POP POP JUMP JUMPDEST PUSH1 0x0 DUP2 ISZERO ISZERO SWAP1 POP SWAP2 SWAP1 POP JUMP JUMPDEST PUSH2 0x1412 DUP2 PUSH2 0x13FD JUMP JUMPDEST DUP2 EQ PUSH2 0x141D JUMPI PUSH1 0x0 DUP1 REVERT JUMPDEST POP JUMP JUMPDEST PUSH1 0x0 DUP2 MLOAD SWAP1 POP PUSH2 0x142F DUP2 PUSH2 0x1409 JUMP JUMPDEST SWAP3 SWAP2 POP POP JUMP JUMPDEST PUSH1 0x0 PUSH1 0x20 DUP3 DUP5 SUB SLT ISZERO PUSH2 0x144B JUMPI PUSH2 0x144A PUSH2 0xFA1 JUMP JUMPDEST JUMPDEST PUSH1 0x0 PUSH2 0x1459 DUP5 DUP3 DUP6 ADD PUSH2 0x1420 JUMP JUMPDEST SWAP2 POP POP SWAP3 SWAP2 POP POP JUMP JUMPDEST PUSH32 0x546F6B656E207472616E73666572206661696C65640000000000000000000000 PUSH1 0x0 DUP3 ADD MSTORE POP JUMP JUMPDEST PUSH1 0x0 PUSH2 0x1498 PUSH1 0x15 DUP4 PUSH2 0xEFA JUMP JUMPDEST SWAP2 POP PUSH2 0x14A3 DUP3 PUSH2 0x1462 JUMP JUMPDEST PUSH1 0x20 DUP3 ADD SWAP1 POP SWAP2 SWAP1 POP JUMP JUMPDEST PUSH1 0x0 PUSH1 0x20 DUP3 ADD SWAP1 POP DUP2 DUP2 SUB PUSH1 0x0 DUP4 ADD MSTORE PUSH2 0x14C7 DUP2 PUSH2 0x148B JUMP JUMPDEST SWAP1 POP SWAP2 SWAP1 POP JUMP INVALID LOG2 PUSH5 0x6970667358 0x22 SLT KECCAK256 GASLIMIT 0xAB 0xE6 0xD9 SWAP9 GASPRICE 0xE8 0xBF 0xFB STATICCALL PUSH1 0x3E 0xDA DUP4 MOD SWAP15 0xD8 0xE6 PUSH2 0xF8A7 PUSH14 0xDFB33C5065806F1973EA64736F6C PUSH4 0x43000818 STOP CALLER "},"methodIdentifiers":{"agreementStatus()":"10ccb04c","cancel()":"ea8a1af0","close()":"43d726d6","contractType()":"cb2ef6f7","currency()":"e5a6b10f","employeeEnterContract(address)":"98b9f004","employeeId()":"84ab30a5","employerAddress()":"0d0175a9","employerId()":"ef838f88","paymentAddress()":"633423be","payments(uint256)":"87d81789","sendPayment()":"6720ceb1","setMonthlyPayments(uint256)":"da860f1b","suspend()":"e6400bbe","withdrawFunds()":"24600fc3"}}}}}