{
  "_format": "hh-sol-artifact-1",
  "contractName": "Xalary",
  "sourceName": "contracts/Xalary.sol",
  "abi": [
    {
      "inputs": [],
      "name": "deployFixedRateAgreement",
      "outputs": [
        {
          "internalType": "bool",
          "name": "",
          "type": "bool"
        }
      ],
      "stateMutability": "pure",
      "type": "function"
    }
  ],
  "bytecode": "0x6080604052348015600f57600080fd5b50607780601d6000396000f3fe6080604052348015600f57600080fd5b506004361060285760003560e01c80636a02e29c14602d575b600080fd5b604080516001815290519081900360200190f3fea264697066735822122078d8f3af3fc2051eec0efaa9e6922582048fd524088e8b3f07720fbca729c79964736f6c63430008180033",
  "linkReferences": {},
  "deployedLinkReferences": {}
}