{
  "_format": "hh-sol-artifact-1",
  "contractName": "AgreementFactory",
  "sourceName": "contracts/AgreementFactory.sol",
  "abi": [
    {
      "anonymous": false,
      "inputs": [
        {
          "indexed": true,
          "internalType": "address",
          "name": "contractAddress",
          "type": "address"
        }
      ],
      "name": "FixedRateAgreementDeployed",
      "type": "event"
    },
    {
      "anonymous": false,
      "inputs": [
        {
          "indexed": true,
          "internalType": "address",
          "name": "contractAddress",
          "type": "address"
        }
      ],
      "name": "PayAsYoGoAgreementDeployed",
      "type": "event"
    },
    {
      "inputs": [
        {
          "internalType": "string",
          "name": "_employerId",
          "type": "string"
        },
        {
          "internalType": "string",
          "name": "_employeeId",
          "type": "string"
        },
        {
          "internalType": "address",
          "name": "_employerAddress",
          "type": "address"
        },
        {
          "internalType": "address",
          "name": "_currency",
          "type": "address"
        },
        {
          "internalType": "uint256",
          "name": "_fixedPayment",
          "type": "uint256"
        }
      ],
      "name": "createNewFixedRateAgreement",
      "outputs": [
        {
          "internalType": "address",
          "name": "",
          "type": "address"
        }
      ],
      "stateMutability": "nonpayable",
      "type": "function"
    },
    {
      "inputs": [
        {
          "internalType": "string",
          "name": "_employerId",
          "type": "string"
        },
        {
          "internalType": "string",
          "name": "_employeeId",
          "type": "string"
        },
        {
          "internalType": "address",
          "name": "_employerAddress",
          "type": "address"
        },
        {
          "internalType": "address",
          "name": "_currency",
          "type": "address"
        },
        {
          "internalType": "uint256",
          "name": "_monthlyPayment",
          "type": "uint256"
        },
        {
          "internalType": "address",
          "name": "_wormholeRelayer",
          "type": "address"
        },
        {
          "internalType": "address",
          "name": "_tokenBridge",
          "type": "address"
        },
        {
          "internalType": "address",
          "name": "_wormhole",
          "type": "address"
        }
      ],
      "name": "createNewPayAsYouGoAgreement",
      "outputs": [],
      "stateMutability": "nonpayable",
      "type": "function"
    },
    {
      "inputs": [
        {
          "internalType": "uint256",
          "name": "",
          "type": "uint256"
        }
      ],
      "name": "fixedRateAgreements",
      "outputs": [
        {
          "internalType": "contract FixedRateAgreement",
          "name": "",
          "type": "address"
        }
      ],
      "stateMutability": "view",
      "type": "function"
    },
    {
      "inputs": [],
      "name": "getFixedRateAgreements",
      "outputs": [
        {
          "internalType": "contract FixedRateAgreement[]",
          "name": "",
          "type": "address[]"
        }
      ],
      "stateMutability": "view",
      "type": "function"
    },
    {
      "inputs": [],
      "name": "getNumberOfFixedRateAgreements",
      "outputs": [
        {
          "internalType": "uint256",
          "name": "",
          "type": "uint256"
        }
      ],
      "stateMutability": "view",
      "type": "function"
    },
    {
      "inputs": [],
      "name": "getPayAsYouGoAgreements",
      "outputs": [
        {
          "internalType": "contract PayAsYouGoAgreement[]",
          "name": "",
          "type": "address[]"
        }
      ],
      "stateMutability": "view",
      "type": "function"
    },
    {
      "inputs": [
        {
          "internalType": "uint256",
          "name": "",
          "type": "uint256"
        }
      ],
      "name": "payAsYouGoAgreements",
      "outputs": [
        {
          "internalType": "contract PayAsYouGoAgreement",
          "name": "",
          "type": "address"
        }
      ],
      "stateMutability": "view",
      "type": "function"
    }
  ],
  "bytecode": "0x608060405234801561001057600080fd5b506144b0806100206000396000f3fe60806040523480156200001157600080fd5b5060043610620000875760003560e01c8063af22f4261162000062578063af22f42614620000e8578063c0901d1014620000ff578063efb7d3c91462000116578063f29bf760146200012857600080fd5b80632fcc400b146200008c578063a6c76fd214620000ae578063a828171c14620000b8575b600080fd5b6200009662000141565b604051620000a59190620003ee565b60405180910390f35b62000096620001a5565b620000cf620000c93660046200043d565b62000207565b6040516001600160a01b039091168152602001620000a5565b620000cf620000f93660046200051f565b62000232565b620000cf620001103660046200043d565b620002f6565b600054604051908152602001620000a5565b6200013f62000139366004620005b7565b62000307565b005b606060008054806020026020016040519081016040528092919081815260200182805480156200019b57602002820191906000526020600020905b81546001600160a01b031681526001909101906020018083116200017c575b5050505050905090565b606060018054806020026020016040519081016040528092919081815260200182805480156200019b576020028201919060005260206000209081546001600160a01b031681526001909101906020018083116200017c575050505050905090565b600181815481106200021857600080fd5b6000918252602090912001546001600160a01b0316905081565b60008086868686866040516200024890620003d2565b62000258959493929190620006d1565b604051809103906000f08015801562000275573d6000803e3d6000fd5b50600080546001810182558180527f290decd9548b62a8d60345a988386fc84ba6bc95484008f6362f93160ef3e5630180546001600160a01b0319166001600160a01b038416908117909155604051929350917f594c8763b5f61f9e3e2055698c14caa5f56c241a6c40906bf0dcef89145f77419190a29695505050505050565b600081815481106200021857600080fd5b600088888888888888886040516200031f90620003e0565b620003329897969594939291906200071f565b604051809103906000f0801580156200034f573d6000803e3d6000fd5b5060018054808201825560009182527fb10e2d527612073b26eecdfd717e6a320cf44b4afac2b0732d9fcbe2b7fa0cf60180546001600160a01b0319166001600160a01b038416908117909155604051929350917f1bf2df903eba33537e2be628317f35584fc802f3b23885b2725dce1e1c4121eb9190a2505050505050505050565b61100f806200078f83390190565b612cdd806200179e83390190565b6020808252825182820181905260009190848201906040850190845b81811015620004315783516001600160a01b0316835292840192918401916001016200040a565b50909695505050505050565b6000602082840312156200045057600080fd5b5035919050565b634e487b7160e01b600052604160045260246000fd5b600082601f8301126200047f57600080fd5b813567ffffffffffffffff808211156200049d576200049d62000457565b604051601f8301601f19908116603f01168101908282118183101715620004c857620004c862000457565b81604052838152866020858801011115620004e257600080fd5b836020870160208301376000602085830101528094505050505092915050565b80356001600160a01b03811681146200051a57600080fd5b919050565b600080600080600060a086880312156200053857600080fd5b853567ffffffffffffffff808211156200055157600080fd5b6200055f89838a016200046d565b965060208801359150808211156200057657600080fd5b5062000585888289016200046d565b945050620005966040870162000502565b9250620005a66060870162000502565b949793965091946080013592915050565b600080600080600080600080610100898b031215620005d557600080fd5b883567ffffffffffffffff80821115620005ee57600080fd5b620005fc8c838d016200046d565b995060208b01359150808211156200061357600080fd5b50620006228b828c016200046d565b9750506200063360408a0162000502565b95506200064360608a0162000502565b9450608089013593506200065a60a08a0162000502565b92506200066a60c08a0162000502565b91506200067a60e08a0162000502565b90509295985092959890939650565b6000815180845260005b81811015620006b15760208185018101518683018201520162000693565b506000602082860101526020601f19601f83011685010191505092915050565b60a081526000620006e660a083018862000689565b8281036020840152620006fa818862000689565b6001600160a01b03968716604085015294909516606083015250608001529392505050565b6000610100808352620007358184018c62000689565b905082810360208401526200074b818b62000689565b6001600160a01b03998a16604085015297891660608401525050608081019490945291851660a0840152841660c083015290921660e0909201919091529291505056fe60806040526007805460ff191690553480156200001b57600080fd5b506040516200100f3803806200100f8339810160408190526200003e91620001c7565b848484846040518060400160405280600a8152602001696669786564207261746560b01b8152508460009081620000769190620002f1565b506001620000858582620002f1565b50600280546001600160a01b0319166001600160a01b0385811691909117909155600480546001600160a81b0319169184169190911790556005620000cb8282620002f1565b50505060069390935550620003bd95505050505050565b634e487b7160e01b600052604160045260246000fd5b600082601f8301126200010a57600080fd5b81516001600160401b0380821115620001275762000127620000e2565b604051601f8301601f19908116603f01168101908282118183101715620001525762000152620000e2565b81604052838152602092508660208588010111156200017057600080fd5b600091505b8382101562000194578582018301518183018401529082019062000175565b6000602085830101528094505050505092915050565b80516001600160a01b0381168114620001c257600080fd5b919050565b600080600080600060a08688031215620001e057600080fd5b85516001600160401b0380821115620001f857600080fd5b6200020689838a01620000f8565b965060208801519150808211156200021d57600080fd5b506200022c88828901620000f8565b9450506200023d60408701620001aa565b92506200024d60608701620001aa565b9150608086015190509295509295909350565b600181811c908216806200027557607f821691505b6020821081036200029657634e487b7160e01b600052602260045260246000fd5b50919050565b601f821115620002ec576000816000526020600020601f850160051c81016020861015620002c75750805b601f850160051c820191505b81811015620002e857828155600101620002d3565b5050505b505050565b81516001600160401b038111156200030d576200030d620000e2565b62000325816200031e845462000260565b846200029c565b602080601f8311600181146200035d5760008415620003445750858301515b600019600386901b1c1916600185901b178555620002e8565b600085815260208120601f198616915b828110156200038e578886015182559484019460019091019084016200036d565b5085821015620003ad5787850151600019600388901b60f8161c191681555b5050505050600190811b01905550565b610c4280620003cd6000396000f3fe608060405234801561001057600080fd5b50600436106100f55760003560e01c806384ab30a511610097578063e5a6b10f11610066578063e5a6b10f146101e5578063e6400bbe146101f8578063ea8a1af014610200578063ef838f881461020857600080fd5b806384ab30a51461019b578063900feb3b146101b057806398b9f004146101ca578063cb2ef6f7146101dd57600080fd5b80633fb4fe6f116100d35780633fb4fe6f1461015557806343d726d614610178578063633423be146101805780636720ceb11461019357600080fd5b80630d0175a9146100fa57806310ccb04c1461012a57806324600fc31461014b575b600080fd5b60025461010d906001600160a01b031681565b6040516001600160a01b0390911681526020015b60405180910390f35b60045461013e90600160a01b900460ff1681565b6040516101219190610a1e565b610153610210565b005b610168610163366004610a54565b610245565b6040519015158152602001610121565b610153610439565b60035461010d906001600160a01b031681565b6101686104bb565b6101a3610670565b6040516101219190610a7e565b6007546101bd9060ff1681565b6040516101219190610acd565b6101536101d8366004610ae1565b6106fe565b6101a36107ae565b60045461010d906001600160a01b031681565b6101536107bb565b6101536108b6565b6101a3610937565b6002546001600160a01b031633146102435760405162461bcd60e51b815260040161023a90610b03565b60405180910390fd5b565b604051636eb1769f60e11b8152336004820152306024820152600090839083906001600160a01b0383169063dd62ed3e90604401602060405180830381865afa158015610296573d6000803e3d6000fd5b505050506040513d601f19601f820116820180604052508101906102ba9190610b4f565b10156103085760405162461bcd60e51b815260206004820152601c60248201527f496e73756666696369656e7420746f6b656e20616c6c6f77616e636500000000604482015260640161023a565b6040516370a0823160e01b815233600482015283906001600160a01b038316906370a0823190602401602060405180830381865afa15801561034e573d6000803e3d6000fd5b505050506040513d601f19601f820116820180604052508101906103729190610b4f565b10156103b75760405162461bcd60e51b8152602060048201526014602482015273496e73756666696369656e742062616c616e636560601b604482015260640161023a565b6040516323b872dd60e01b8152336004820152306024820152604481018490526001600160a01b038216906323b872dd906064016020604051808303816000875af115801561040a573d6000803e3d6000fd5b505050506040513d601f19601f8201168201806040525081019061042e9190610b68565b506001949350505050565b6002546001600160a01b031633146104635760405162461bcd60e51b815260040161023a90610b03565b600360048054600160a01b900460ff169081111561048357610483610a08565b036104a05760405162461bcd60e51b815260040161023a90610b8a565b60048054819060ff60a01b1916600160a01b825b0217905550565b6002546000906001600160a01b031633146104e85760405162461bcd60e51b815260040161023a90610b03565b600160048054600160a01b900460ff169081111561050857610508610a08565b1461055f5760405162461bcd60e51b815260206004820152602160248201527f5468697320636f6e7472616374206973206e6f206c6f6e6765722061637469766044820152606560f81b606482015260840161023a565b600160075460ff16600181111561057857610578610a08565b036105c55760405162461bcd60e51b815260206004820152601d60248201527f5061796d656e742068617320616c7265616479206265656e2073656e74000000604482015260640161023a565b6003546006546105de916001600160a01b031690610944565b6007805460ff1916600117905560048054600160a21b60ff60a01b1990911617905560405130907f960f80c1468168314e9bb3daa45c4819ef0a7969615e253bbc73477997b1eb5890600090a26002546003546040516001600160a01b0392831692909116907f80cc066594d46a1c222dffb998d2a0b113cba551c911573a088260abc6cbebd690600090a350600190565b6001805461067d90610bd2565b80601f01602080910402602001604051908101604052809291908181526020018280546106a990610bd2565b80156106f65780601f106106cb576101008083540402835291602001916106f6565b820191906000526020600020905b8154815290600101906020018083116106d957829003601f168201915b505050505081565b600060048054600160a01b900460ff169081111561071e5761071e610a08565b146107765760405162461bcd60e51b815260206004820152602260248201527f5468697320636f6e7472616374206973206e6f206c6f6e6765722070656e64696044820152616e6760f01b606482015260840161023a565b600380546001600160a01b0319166001600160a01b038316179055600480546001919060ff60a01b1916600160a01b83021790555050565b6005805461067d90610bd2565b6002546001600160a01b031633146107e55760405162461bcd60e51b815260040161023a90610b03565b600360048054600160a01b900460ff169081111561080557610805610a08565b036108225760405162461bcd60e51b815260040161023a90610b8a565b6004808054600160a01b900460ff169081111561084157610841610a08565b0361089c5760405162461bcd60e51b815260206004820152602560248201527f5468697320636f6e74726163742068617320616c7265616479206265656e20636044820152641b1bdcd95960da1b606482015260840161023a565b600480546002919060ff60a01b1916600160a01b836104b4565b6002546001600160a01b031633146108e05760405162461bcd60e51b815260040161023a90610b03565b600360048054600160a01b900460ff169081111561090057610900610a08565b0361091d5760405162461bcd60e51b815260040161023a90610b8a565b600480546003919060ff60a01b1916600160a01b836104b4565b6000805461067d90610bd2565b6004805460405163a9059cbb60e01b81526001600160a01b038581169382019390935260248101849052911690819063a9059cbb906044016020604051808303816000875af115801561099b573d6000803e3d6000fd5b505050506040513d601f19601f820116820180604052508101906109bf9190610b68565b610a035760405162461bcd60e51b8152602060048201526015602482015274151bdad95b881d1c985b9cd9995c8819985a5b1959605a1b604482015260640161023a565b505050565b634e487b7160e01b600052602160045260246000fd5b6020810160058310610a3257610a32610a08565b91905290565b80356001600160a01b0381168114610a4f57600080fd5b919050565b60008060408385031215610a6757600080fd5b610a7083610a38565b946020939093013593505050565b60006020808352835180602085015260005b81811015610aac57858101830151858201604001528201610a90565b506000604082860101526040601f19601f8301168501019250505092915050565b6020810160028310610a3257610a32610a08565b600060208284031215610af357600080fd5b610afc82610a38565b9392505050565b6020808252602c908201527f596f7520617265206e6f7420616c6c6f77656420746f206361727279206f757460408201526b103a3434b99030b1ba34b7b760a11b606082015260800190565b600060208284031215610b6157600080fd5b5051919050565b600060208284031215610b7a57600080fd5b81518015158114610afc57600080fd5b60208082526028908201527f5468697320636f6e74726163742068617320616c7265616479206265656e2063604082015267185b98d95b1b195960c21b606082015260800190565b600181811c90821680610be657607f821691505b602082108103610c0657634e487b7160e01b600052602260045260246000fd5b5091905056fea2646970667358221220ceb3d58a90407fcb6224e829cecec5320e412a7df000beb0d977e968cca440c564736f6c6343000818003360e0604052600060085560006009553480156200001b57600080fd5b5060405162002cdd38038062002cdd8339810160408190526200003e9162000200565b82828282818c8c8c8c6040518060400160405280600d81526020016c70617920617320796f7520676f60981b81525084600090816200007e919062000362565b5060016200008d858262000362565b50600280546001600160a01b0319166001600160a01b0385811691909117909155600480546001600160a81b0319169184169190911790556005620000d3828262000362565b5050506001600160a01b03948516608052505050811660a052600680546001600160a01b031916331790559190911660c052505050600b92909255506200042e945050505050565b634e487b7160e01b600052604160045260246000fd5b600082601f8301126200014357600080fd5b81516001600160401b03808211156200016057620001606200011b565b604051601f8301601f19908116603f011681019082821181831017156200018b576200018b6200011b565b8160405283815260209250866020858801011115620001a957600080fd5b600091505b83821015620001cd5785820183015181830184015290820190620001ae565b6000602085830101528094505050505092915050565b80516001600160a01b0381168114620001fb57600080fd5b919050565b600080600080600080600080610100898b0312156200021e57600080fd5b88516001600160401b03808211156200023657600080fd5b620002448c838d0162000131565b995060208b01519150808211156200025b57600080fd5b506200026a8b828c0162000131565b9750506200027b60408a01620001e3565b95506200028b60608a01620001e3565b945060808901519350620002a260a08a01620001e3565b9250620002b260c08a01620001e3565b9150620002c260e08a01620001e3565b90509295985092959890939650565b600181811c90821680620002e657607f821691505b6020821081036200030757634e487b7160e01b600052602260045260246000fd5b50919050565b601f8211156200035d576000816000526020600020601f850160051c81016020861015620003385750805b601f850160051c820191505b81811015620003595782815560010162000344565b5050505b505050565b81516001600160401b038111156200037e576200037e6200011b565b62000396816200038f8454620002d1565b846200030d565b602080601f831160018114620003ce5760008415620003b55750858301515b600019600386901b1c1916600185901b17855562000359565b600085815260208120601f198616915b82811015620003ff57888601518255948401946001909101908401620003de565b50858210156200041e5787850151600019600388901b60f8161c191681555b5050505050600190811b01905550565b60805160a05160c05161280f620004ce600039600081816103dc01528181610aa001528181610b7d01528181610cef015281816115300152818161196c015281816119ed0152611bb2015260008181610338015281816105c2015281816109d601528181610c070152818161148201528181611a1c0152611b1f01526000818161042501528181610551015281816117b50152611824015261280f6000f3fe6080604052600436106101815760003560e01c806384acd1bb116100d1578063da25b7251161008a578063e5a6b10f11610064578063e5a6b10f14610487578063e6400bbe146104a7578063ea8a1af0146104bc578063ef838f88146104d157600080fd5b8063da25b72514610413578063da860f1b14610447578063dd12d68b1461046757600080fd5b806384acd1bb1461032657806387d817891461035a5780638d3ea4891461039757806398b9f004146103aa578063c6328a46146103ca578063cb2ef6f7146103fe57600080fd5b80633fb4fe6f1161013e578063529dca3211610118578063529dca32146102bc578063633423be146102cf5780636720ceb1146102ef57806384ab30a51461030457600080fd5b80633fb4fe6f1461026257806343d726d6146102925780634b885621146102a757600080fd5b80630d0175a91461018657806310ccb04c146101c357806310e8adb6146101f15780631101f8181461021557806324600fc31461022b5780632b524c9714610242575b600080fd5b34801561019257600080fd5b506002546101a6906001600160a01b031681565b6040516001600160a01b0390911681526020015b60405180910390f35b3480156101cf57600080fd5b506004546101e490600160a01b900460ff1681565b6040516101ba9190611c06565b3480156101fd57600080fd5b5061020760085481565b6040519081526020016101ba565b34801561022157600080fd5b5061020760095481565b34801561023757600080fd5b506102406104e6565b005b34801561024e57600080fd5b5061020761025d366004611c4e565b61051b565b34801561026e57600080fd5b5061028261027d366004611c80565b610653565b60405190151581526020016101ba565b34801561029e57600080fd5b50610240610849565b3480156102b357600080fd5b506102826108cb565b6102406102ca366004611e00565b61094f565b3480156102db57600080fd5b506003546101a6906001600160a01b031681565b3480156102fb57600080fd5b50610282610e68565b34801561031057600080fd5b50610319610f97565b6040516101ba9190611f45565b34801561033257600080fd5b506101a67f000000000000000000000000000000000000000000000000000000000000000081565b34801561036657600080fd5b5061037a610375366004611f58565b611025565b604080519283526001600160a01b039091166020830152016101ba565b6102406103a5366004611f71565b61105c565b3480156103b657600080fd5b506102406103c5366004611fd9565b61118e565b3480156103d657600080fd5b506101a67f000000000000000000000000000000000000000000000000000000000000000081565b34801561040a57600080fd5b5061031961123e565b34801561041f57600080fd5b506101a67f000000000000000000000000000000000000000000000000000000000000000081565b34801561045357600080fd5b50610240610462366004611f58565b61124b565b34801561047357600080fd5b50610240610482366004611ff6565b611278565b34801561049357600080fd5b506004546101a6906001600160a01b031681565b3480156104b357600080fd5b506102406112f5565b3480156104c857600080fd5b506102406113f0565b3480156104dd57600080fd5b50610319611471565b6002546001600160a01b031633146105195760405162461bcd60e51b815260040161051090612014565b60405180910390fd5b565b60405163c23ee3c360e01b815261ffff821660048201526000602482018190526203d09060448301529081906001600160a01b037f0000000000000000000000000000000000000000000000000000000000000000169063c23ee3c3906064016040805180830381865afa158015610597573d6000803e3d6000fd5b505050506040513d601f19601f820116820180604052508101906105bb9190612060565b50809150507f00000000000000000000000000000000000000000000000000000000000000006001600160a01b0316631a90a2196040518163ffffffff1660e01b8152600401602060405180830381865afa15801561061e573d6000803e3d6000fd5b505050506040513d601f19601f820116820180604052508101906106429190612084565b61064c90826120b3565b9392505050565b604051636eb1769f60e11b8152336004820152306024820152600090839083906001600160a01b0383169063dd62ed3e90604401602060405180830381865afa1580156106a4573d6000803e3d6000fd5b505050506040513d601f19601f820116820180604052508101906106c89190612084565b10156107165760405162461bcd60e51b815260206004820152601c60248201527f496e73756666696369656e7420746f6b656e20616c6c6f77616e6365000000006044820152606401610510565b6040516370a0823160e01b815233600482015283906001600160a01b038316906370a0823190602401602060405180830381865afa15801561075c573d6000803e3d6000fd5b505050506040513d601f19601f820116820180604052508101906107809190612084565b10156107c55760405162461bcd60e51b8152602060048201526014602482015273496e73756666696369656e742062616c616e636560601b6044820152606401610510565b6040516323b872dd60e01b8152336004820152306024820152604481018490526001600160a01b038216906323b872dd906064016020604051808303816000875af1158015610818573d6000803e3d6000fd5b505050506040513d601f19601f8201168201806040525081019061083c91906120c6565b5060019150505b92915050565b6002546001600160a01b031633146108735760405162461bcd60e51b815260040161051090612014565b600360048054600160a01b900460ff169081111561089357610893611bf0565b036108b05760405162461bcd60e51b8152600401610510906120e8565b60048054819060ff60a01b1916600160a01b825b0217905550565b6002546000906001600160a01b031633146108f85760405162461bcd60e51b815260040161051090612014565b600160048054600160a01b900460ff169081111561091857610918611bf0565b146109355760405162461bcd60e51b815260040161051090612130565b60086000815461094490612171565b909155506001905090565b600084516001600160401b0381111561096a5761096a611cac565b6040519080825280602002602001820160405280156109c357816020015b6040805160a0810182526000808252602080830182905292820181905260608201819052608082015282526000199092019101816109885790505b50905060005b8551811015610e5f5760007f00000000000000000000000000000000000000000000000000000000000000006001600160a01b031663a9e11893888481518110610a1557610a1561218a565b60200260200101516040518263ffffffff1660e01b8152600401610a399190611f45565b600060405180830381865afa158015610a56573d6000803e3d6000fd5b505050506040513d6000823e601f3d908101601f19168201604052610a7e91908101906122e0565b606081015160405163ad66a5f160e01b815261ffff90911660048201529091507f00000000000000000000000000000000000000000000000000000000000000006001600160a01b03169063ad66a5f190602401602060405180830381865afa158015610aef573d6000803e3d6000fd5b505050506040513d601f19601f82011682018060405250810190610b139190612084565b816080015114610b5e5760405162461bcd60e51b81526020600482015260166024820152754e6f74206120546f6b656e204272696467652056414160501b6044820152606401610510565b60e081015160405163ea63738d60e01b81526000916001600160a01b037f0000000000000000000000000000000000000000000000000000000000000000169163ea63738d91610bb091600401611f45565b600060405180830381865afa158015610bcd573d6000803e3d6000fd5b505050506040513d6000823e601f3d908101601f19168201604052610bf59190810190612404565b9050308160800151148015610c9657507f00000000000000000000000000000000000000000000000000000000000000006001600160a01b0316639a8a05926040518163ffffffff1660e01b8152600401602060405180830381865afa158015610c63573d6000803e3d6000fd5b505050506040513d601f19601f82011682018060405250810190610c8791906124cc565b61ffff168160a0015161ffff16145b610ced5760405162461bcd60e51b815260206004820152602260248201527f546f6b656e20776173206e6f742073656e7420746f2074686973206164647265604482015261737360f01b6064820152608401610510565b7f00000000000000000000000000000000000000000000000000000000000000006001600160a01b031663c3f511c1898581518110610d2e57610d2e61218a565b60200260200101516040518263ffffffff1660e01b8152600401610d529190611f45565b6000604051808303816000875af1158015610d71573d6000803e3d6000fd5b505050506040513d6000823e601f3d908101601f19168201604052610d9991908101906124e9565b506000610dae8260600151836040015161147e565b90506000610dbb826115b1565b6020840151909150600860ff83161115610df257610dda60088361251d565b610de590600a61261a565b610def9082612629565b90505b6040518060a0016040528085604001518152602001856060015161ffff168152602001846001600160a01b031681526020018281526020018560200151815250878781518110610e4457610e4461218a565b602002602001018190525050505050508060010190506109c9565b50505050505050565b6000600160048054600160a01b900460ff1690811115610e8a57610e8a611bf0565b14610ea75760405162461bcd60e51b815260040161051090612130565b60095460085411610f055760405162461bcd60e51b815260206004820152602260248201527f74686973207061796d656e7420686173206e6f74206265656e20617070726f76604482015261195960f21b6064820152608401610510565b600354600b54610f1e916001600160a01b03169061164c565b60405130907f960f80c1468168314e9bb3daa45c4819ef0a7969615e253bbc73477997b1eb5890600090a26002546003546040516001600160a01b0392831692909116907f433731019d78f9808cedc4435fc0eefc894b9a6f2147b6afbc20d284fe41955c90600090a360096000815461094490612171565b60018054610fa490612640565b80601f0160208091040260200160405190810160405280929190818152602001828054610fd090612640565b801561101d5780601f10610ff25761010080835404028352916020019161101d565b820191906000526020600020905b81548152906001019060200180831161100057829003601f168201915b505050505081565b600a818154811061103557600080fd5b6000918252602090912060029091020180546001909101549091506001600160a01b031682565b60006110678661051b565b90508034146110d15760405162461bcd60e51b815260206004820152603060248201527f6d73672e76616c756520213d2071756f746543726f7373436861696e4465706f60448201526f73697428746172676574436861696e2960801b6064820152608401610510565b6040516323b872dd60e01b8152336004820152306024820152604481018490526001600160a01b038316906323b872dd906064016020604051808303816000875af1158015611124573d6000803e3d6000fd5b505050506040513d601f19601f8201168201806040525081019061114891906120c6565b50604080516001600160a01b038616602082015260009101604051602081830303815290604052905061118487878360006203d090888a611710565b5050505050505050565b600060048054600160a01b900460ff16908111156111ae576111ae611bf0565b146112065760405162461bcd60e51b815260206004820152602260248201527f5468697320636f6e7472616374206973206e6f206c6f6e6765722070656e64696044820152616e6760f01b6064820152608401610510565b600380546001600160a01b0319166001600160a01b038316179055600480546001919060ff60a01b1916600160a01b83021790555050565b60058054610fa490612640565b6002546001600160a01b031633146112755760405162461bcd60e51b815260040161051090612014565b50565b6006546001600160a01b031633146112de5760405162461bcd60e51b8152602060048201526024808201527f4e6f7420616c6c6f77656420746f207365742072656769737465726564207365604482015263373232b960e11b6064820152608401610510565b61ffff909116600090815260076020526040902055565b6002546001600160a01b0316331461131f5760405162461bcd60e51b815260040161051090612014565b600360048054600160a01b900460ff169081111561133f5761133f611bf0565b0361135c5760405162461bcd60e51b8152600401610510906120e8565b6004808054600160a01b900460ff169081111561137b5761137b611bf0565b036113d65760405162461bcd60e51b815260206004820152602560248201527f5468697320636f6e74726163742068617320616c7265616479206265656e20636044820152641b1bdcd95960da1b6064820152608401610510565b600480546002919060ff60a01b1916600160a01b836108c4565b6002546001600160a01b0316331461141a5760405162461bcd60e51b815260040161051090612014565b600360048054600160a01b900460ff169081111561143a5761143a611bf0565b036114575760405162461bcd60e51b8152600401610510906120e8565b600480546003919060ff60a01b1916600160a01b836108c4565b60008054610fa490612640565b60007f00000000000000000000000000000000000000000000000000000000000000006001600160a01b0316639a8a05926040518163ffffffff1660e01b8152600401602060405180830381865afa1580156114de573d6000803e3d6000fd5b505050506040513d601f19601f8201168201806040525081019061150291906124cc565b61ffff168361ffff16146115a857604051630ff8f14360e11b815261ffff84166004820152602481018390527f00000000000000000000000000000000000000000000000000000000000000006001600160a01b031690631ff1e28690604401602060405180830381865afa15801561157f573d6000803e3d6000fd5b505050506040513d601f19601f820116820180604052508101906115a3919061267a565b61064c565b61064c826118ca565b60408051600481526024810182526020810180516001600160e01b031663313ce56760e01b179052905160009182916001600160a01b038516916115f491612697565b600060405180830381855afa9150503d806000811461162f576040519150601f19603f3d011682016040523d82523d6000602084013e611634565b606091505b509150508080602001905181019061064c91906126b3565b6004805460405163a9059cbb60e01b81526001600160a01b038581169382019390935260248101849052911690819063a9059cbb906044016020604051808303816000875af11580156116a3573d6000803e3d6000fd5b505050506040513d601f19601f820116820180604052508101906116c791906120c6565b61170b5760405162461bcd60e51b8152602060048201526015602482015274151bdad95b881d1c985b9cd9995c8819985a5b1959605a1b6044820152606401610510565b505050565b604080516001808252818301909252600091829190816020015b604080516060810182526000808252602080830182905292820152825260001990920191018161172a57905050905061176584848b8b6118f6565b816000815181106117785761177861218a565b602090810291909101015260405163c23ee3c360e01b815261ffff8a16600482015260248101879052604481018690526000906001600160a01b037f0000000000000000000000000000000000000000000000000000000000000000169063c23ee3c3906064016040805180830381865afa1580156117fb573d6000803e3d6000fd5b505050506040513d601f19601f8201168201806040525081019061181f9190612060565b5090507f00000000000000000000000000000000000000000000000000000000000000006001600160a01b031663329a2be7828c8c8c8c8c896040518863ffffffff1660e01b8152600401611879969594939291906126ce565b60206040518083038185885af1158015611897573d6000803e3d6000fd5b50505050506040513d601f19601f820116820180604052508101906118bc919061276f565b9a9950505050505050505050565b600060a082901c156118f25760405163033b960d60e41b815260048101839052602401610510565b5090565b604080516060810182526000808252602082018190529181019190915261192f8585858560405180602001604052806000815250611938565b95945050505050565b604080516060810182526000808252602082018190529181019190915260405163095ea7b360e01b81526001600160a01b037f0000000000000000000000000000000000000000000000000000000000000000811660048301526024820187905287169063095ea7b3906044016020604051808303816000875af11580156119c4573d6000803e3d6000fd5b505050506040513d601f19601f820116820180604052508101906119e891906120c6565b5060007f00000000000000000000000000000000000000000000000000000000000000006001600160a01b031663c5a5ebda7f00000000000000000000000000000000000000000000000000000000000000006001600160a01b0316631a90a2196040518163ffffffff1660e01b8152600401602060405180830381865afa158015611a78573d6000803e3d6000fd5b505050506040513d601f19601f82011682018060405250810190611a9c9190612084565b8989896001600160a01b038a1660008a6040518863ffffffff1660e01b8152600401611acd9695949392919061278a565b60206040518083038185885af1158015611aeb573d6000803e3d6000fd5b50505050506040513d601f19601f82011682018060405250810190611b10919061276f565b905060405180606001604052807f00000000000000000000000000000000000000000000000000000000000000006001600160a01b0316639a8a05926040518163ffffffff1660e01b8152600401602060405180830381865afa158015611b7b573d6000803e3d6000fd5b505050506040513d601f19601f82011682018060405250810190611b9f91906124cc565b61ffff1681526020016001600160a01b037f0000000000000000000000000000000000000000000000000000000000000000168152602001826001600160401b031681525091505095945050505050565b634e487b7160e01b600052602160045260246000fd5b6020810160058310611c2857634e487b7160e01b600052602160045260246000fd5b91905290565b61ffff8116811461127557600080fd5b8035611c4981611c2e565b919050565b600060208284031215611c6057600080fd5b813561064c81611c2e565b6001600160a01b038116811461127557600080fd5b60008060408385031215611c9357600080fd5b8235611c9e81611c6b565b946020939093013593505050565b634e487b7160e01b600052604160045260246000fd5b604051608081016001600160401b0381118282101715611ce457611ce4611cac565b60405290565b60405161016081016001600160401b0381118282101715611ce457611ce4611cac565b60405161010081016001600160401b0381118282101715611ce457611ce4611cac565b604051601f8201601f191681016001600160401b0381118282101715611d5857611d58611cac565b604052919050565b60006001600160401b03821115611d7957611d79611cac565b50601f01601f191660200190565b600082601f830112611d9857600080fd5b8135611dab611da682611d60565b611d30565b818152846020838601011115611dc057600080fd5b816020850160208301376000918101602001919091529392505050565b60006001600160401b03821115611df657611df6611cac565b5060051b60200190565b600080600080600060a08688031215611e1857600080fd5b85356001600160401b0380821115611e2f57600080fd5b611e3b89838a01611d87565b9650602091508188013581811115611e5257600080fd5b8801601f81018a13611e6357600080fd5b8035611e71611da682611ddd565b81815260059190911b8201840190848101908c831115611e9057600080fd5b8584015b83811015611ec857803586811115611eac5760008081fd5b611eba8f8983890101611d87565b845250918601918601611e94565b50985050505060408801359450611ee491505060608701611c3e565b949793965091946080013592915050565b60005b83811015611f10578181015183820152602001611ef8565b50506000910152565b60008151808452611f31816020860160208601611ef5565b601f01601f19169290920160200192915050565b60208152600061064c6020830184611f19565b600060208284031215611f6a57600080fd5b5035919050565b600080600080600060a08688031215611f8957600080fd5b8535611f9481611c2e565b94506020860135611fa481611c6b565b93506040860135611fb481611c6b565b9250606086013591506080860135611fcb81611c6b565b809150509295509295909350565b600060208284031215611feb57600080fd5b813561064c81611c6b565b6000806040838503121561200957600080fd5b8235611c9e81611c2e565b6020808252602c908201527f596f7520617265206e6f7420616c6c6f77656420746f206361727279206f757460408201526b103a3434b99030b1ba34b7b760a11b606082015260800190565b6000806040838503121561207357600080fd5b505080516020909101519092909150565b60006020828403121561209657600080fd5b5051919050565b634e487b7160e01b600052601160045260246000fd5b808201808211156108435761084361209d565b6000602082840312156120d857600080fd5b8151801515811461064c57600080fd5b60208082526028908201527f5468697320636f6e74726163742068617320616c7265616479206265656e2063604082015267185b98d95b1b195960c21b606082015260800190565b60208082526021908201527f5468697320636f6e7472616374206973206e6f206c6f6e6765722061637469766040820152606560f81b606082015260800190565b6000600182016121835761218361209d565b5060010190565b634e487b7160e01b600052603260045260246000fd5b805160ff81168114611c4957600080fd5b805163ffffffff81168114611c4957600080fd5b8051611c4981611c2e565b80516001600160401b0381168114611c4957600080fd5b600082601f8301126121f857600080fd5b8151612206611da682611d60565b81815284602083860101111561221b57600080fd5b61222c826020830160208701611ef5565b949350505050565b600082601f83011261224557600080fd5b81516020612255611da683611ddd565b82815260079290921b8401810191818101908684111561227457600080fd5b8286015b848110156122d557608081890312156122915760008081fd5b612299611cc2565b81518152848201518582015260406122b28184016121a0565b9082015260606122c38382016121a0565b90820152835291830191608001612278565b509695505050505050565b6000602082840312156122f257600080fd5b81516001600160401b038082111561230957600080fd5b90830190610160828603121561231e57600080fd5b612326611cea565b61232f836121a0565b815261233d602084016121b1565b602082015261234e604084016121b1565b604082015261235f606084016121c5565b60608201526080830151608082015261237a60a084016121d0565b60a082015261238b60c084016121a0565b60c082015260e0830151828111156123a257600080fd5b6123ae878286016121e7565b60e0830152506101006123c28185016121b1565b9082015261012083810151838111156123da57600080fd5b6123e688828701612234565b91830191909152506101409283015192810192909252509392505050565b60006020828403121561241657600080fd5b81516001600160401b038082111561242d57600080fd5b90830190610100828603121561244257600080fd5b61244a611d0d565b612453836121a0565b81526020830151602082015260408301516040820152612475606084016121c5565b60608201526080830151608082015261249060a084016121c5565b60a082015260c083015160c082015260e0830151828111156124b157600080fd5b6124bd878286016121e7565b60e08301525095945050505050565b6000602082840312156124de57600080fd5b815161064c81611c2e565b6000602082840312156124fb57600080fd5b81516001600160401b0381111561251157600080fd5b61222c848285016121e7565b60ff82811682821603908111156108435761084361209d565b600181815b808511156125715781600019048211156125575761255761209d565b8085161561256457918102915b93841c939080029061253b565b509250929050565b60008261258857506001610843565b8161259557506000610843565b81600181146125ab57600281146125b5576125d1565b6001915050610843565b60ff8411156125c6576125c661209d565b50506001821b610843565b5060208310610133831016604e8410600b84101617156125f4575081810a610843565b6125fe8383612536565b80600019048211156126125761261261209d565b029392505050565b600061064c60ff841683612579565b80820281158282048414176108435761084361209d565b600181811c9082168061265457607f821691505b60208210810361267457634e487b7160e01b600052602260045260246000fd5b50919050565b60006020828403121561268c57600080fd5b815161064c81611c6b565b600082516126a9818460208701611ef5565b9190910192915050565b6000602082840312156126c557600080fd5b61064c826121a0565b600061ffff8089168352602060018060a01b03891681850152604060c060408601526126fd60c086018a611f19565b60608681018a90526080870189905286820360a088015287518083528489019285019060005b8181101561275b57845180518916845287810151888501528601516001600160401b0316868401529386019391830191600101612723565b50909e9d5050505050505050505050505050565b60006020828403121561278157600080fd5b61064c826121d0565b60018060a01b038716815285602082015261ffff8516604082015283606082015263ffffffff8316608082015260c060a082015260006127cd60c0830184611f19565b9897505050505050505056fea26469706673582212206677434989f2f6f698307b3c9481ba3bf995ca26ce5b54891f43b532b4e79ba464736f6c63430008180033a2646970667358221220e57789a28ad6aae5dbcd5dcca5e07d3abaa411de087a734ae5c12456108010a264736f6c63430008180033",
  "linkReferences": {},
  "deployedLinkReferences": {}
}