{
  "_format": "hh-sol-artifact-1",
  "contractName": "AgreementFactory",
  "sourceName": "contracts/AgreementFactory.sol",
  "abi": [
    {
      "anonymous": false,
      "inputs": [
        {
          "indexed": true,
          "internalType": "address",
          "name": "contractAddress",
          "type": "address"
        }
      ],
      "name": "FixedRateAgreementDeployed",
      "type": "event"
    },
    {
      "anonymous": false,
      "inputs": [
        {
          "indexed": true,
          "internalType": "address",
          "name": "contractAddress",
          "type": "address"
        }
      ],
      "name": "PayAsYoGoAgreementDeployed",
      "type": "event"
    },
    {
      "inputs": [
        {
          "internalType": "string",
          "name": "_employerId",
          "type": "string"
        },
        {
          "internalType": "string",
          "name": "_employeeId",
          "type": "string"
        },
        {
          "internalType": "address",
          "name": "_employerAddress",
          "type": "address"
        },
        {
          "internalType": "address",
          "name": "_currency",
          "type": "address"
        },
        {
          "internalType": "uint256",
          "name": "_fixedPayment",
          "type": "uint256"
        }
      ],
      "name": "createNewFixedRateAgreement",
      "outputs": [
        {
          "internalType": "address",
          "name": "",
          "type": "address"
        }
      ],
      "stateMutability": "nonpayable",
      "type": "function"
    },
    {
      "inputs": [
        {
          "internalType": "string",
          "name": "_employerId",
          "type": "string"
        },
        {
          "internalType": "string",
          "name": "_employeeId",
          "type": "string"
        },
        {
          "internalType": "address",
          "name": "_employerAddress",
          "type": "address"
        },
        {
          "internalType": "address",
          "name": "_currency",
          "type": "address"
        },
        {
          "internalType": "uint256",
          "name": "_monthlyPayment",
          "type": "uint256"
        }
      ],
      "name": "createNewPayAsYouGoAgreement",
      "outputs": [],
      "stateMutability": "nonpayable",
      "type": "function"
    },
    {
      "inputs": [
        {
          "internalType": "uint256",
          "name": "",
          "type": "uint256"
        }
      ],
      "name": "fixedRateAgreements",
      "outputs": [
        {
          "internalType": "contract FixedRateAgreement",
          "name": "",
          "type": "address"
        }
      ],
      "stateMutability": "view",
      "type": "function"
    },
    {
      "inputs": [],
      "name": "getFixedRateAgreements",
      "outputs": [
        {
          "internalType": "contract FixedRateAgreement[]",
          "name": "",
          "type": "address[]"
        }
      ],
      "stateMutability": "view",
      "type": "function"
    },
    {
      "inputs": [],
      "name": "getNumberOfFixedRateAgreements",
      "outputs": [
        {
          "internalType": "uint256",
          "name": "",
          "type": "uint256"
        }
      ],
      "stateMutability": "view",
      "type": "function"
    },
    {
      "inputs": [],
      "name": "getPayAsYouGoAgreements",
      "outputs": [
        {
          "internalType": "contract PayAsYouGoAgreement[]",
          "name": "",
          "type": "address[]"
        }
      ],
      "stateMutability": "view",
      "type": "function"
    },
    {
      "inputs": [
        {
          "internalType": "uint256",
          "name": "",
          "type": "uint256"
        }
      ],
      "name": "payAsYouGoAgreements",
      "outputs": [
        {
          "internalType": "contract PayAsYouGoAgreement",
          "name": "",
          "type": "address"
        }
      ],
      "stateMutability": "view",
      "type": "function"
    }
  ],
  "bytecode": "0x608060405234801561001057600080fd5b506146ff806100206000396000f3fe60806040523480156200001157600080fd5b5060043610620000885760003560e01c8063a828171c1162000063578063a828171c14620000f1578063af22f4261462000127578063c0901d10146200015d578063efb7d3c914620001935762000088565b80632fcc400b146200008d5780636b5cf1b214620000af578063a6c76fd214620000cf575b600080fd5b62000097620001b5565b604051620000a69190620006b1565b60405180910390f35b620000cd6004803603810190620000c79190620008cb565b62000245565b005b620000d962000338565b604051620000e8919062000a62565b60405180910390f35b6200010f600480360381019062000109919062000a86565b620003c8565b6040516200011e919062000ac9565b60405180910390f35b6200014560048036038101906200013f9190620008cb565b62000408565b60405162000154919062000af7565b60405180910390f35b6200017b600480360381019062000175919062000a86565b62000501565b6040516200018a919062000b25565b60405180910390f35b6200019d62000541565b604051620001ac919062000b53565b60405180910390f35b606060008054806020026020016040519081016040528092919081815260200182805480156200023b57602002820191906000526020600020905b8160009054906101000a900473ffffffffffffffffffffffffffffffffffffffff1673ffffffffffffffffffffffffffffffffffffffff1681526020019060010190808311620001f0575b5050505050905090565b600085858585856040516200025a906200054d565b6200026a95949392919062000bf9565b604051809103906000f08015801562000287573d6000803e3d6000fd5b5090506001819080600181540180825580915050600190039060005260206000200160009091909190916101000a81548173ffffffffffffffffffffffffffffffffffffffff021916908373ffffffffffffffffffffffffffffffffffffffff1602179055508073ffffffffffffffffffffffffffffffffffffffff167f1bf2df903eba33537e2be628317f35584fc802f3b23885b2725dce1e1c4121eb60405160405180910390a2505050505050565b60606001805480602002602001604051908101604052809291908181526020018280548015620003be57602002820191906000526020600020905b8160009054906101000a900473ffffffffffffffffffffffffffffffffffffffff1673ffffffffffffffffffffffffffffffffffffffff168152602001906001019080831162000373575b5050505050905090565b60018181548110620003d957600080fd5b906000526020600020016000915054906101000a900473ffffffffffffffffffffffffffffffffffffffff1681565b60008086868686866040516200041e906200055b565b6200042e95949392919062000bf9565b604051809103906000f0801580156200044b573d6000803e3d6000fd5b5090506000819080600181540180825580915050600190039060005260206000200160009091909190916101000a81548173ffffffffffffffffffffffffffffffffffffffff021916908373ffffffffffffffffffffffffffffffffffffffff1602179055508073ffffffffffffffffffffffffffffffffffffffff167f594c8763b5f61f9e3e2055698c14caa5f56c241a6c40906bf0dcef89145f774160405160405180910390a28091505095945050505050565b600081815481106200051257600080fd5b906000526020600020016000915054906101000a900473ffffffffffffffffffffffffffffffffffffffff1681565b60008080549050905090565b611d178062000c6583390190565b611d4e806200297c83390190565b600081519050919050565b600082825260208201905092915050565b6000819050602082019050919050565b600073ffffffffffffffffffffffffffffffffffffffff82169050919050565b6000819050919050565b6000620005e0620005da620005d48462000595565b620005b5565b62000595565b9050919050565b6000620005f482620005bf565b9050919050565b60006200060882620005e7565b9050919050565b6200061a81620005fb565b82525050565b60006200062e83836200060f565b60208301905092915050565b6000602082019050919050565b6000620006548262000569565b62000660818562000574565b93506200066d8362000585565b8060005b83811015620006a457815162000688888262000620565b975062000695836200063a565b92505060018101905062000671565b5085935050505092915050565b60006020820190508181036000830152620006cd818462000647565b905092915050565b6000604051905090565b600080fd5b600080fd5b600080fd5b600080fd5b6000601f19601f8301169050919050565b7f4e487b7100000000000000000000000000000000000000000000000000000000600052604160045260246000fd5b6200073e82620006f3565b810181811067ffffffffffffffff8211171562000760576200075f62000704565b5b80604052505050565b600062000775620006d5565b905062000783828262000733565b919050565b600067ffffffffffffffff821115620007a657620007a562000704565b5b620007b182620006f3565b9050602081019050919050565b82818337600083830152505050565b6000620007e4620007de8462000788565b62000769565b905082815260208101848484011115620008035762000802620006ee565b5b62000810848285620007be565b509392505050565b600082601f83011262000830576200082f620006e9565b5b813562000842848260208601620007cd565b91505092915050565b6000620008588262000595565b9050919050565b6200086a816200084b565b81146200087657600080fd5b50565b6000813590506200088a816200085f565b92915050565b6000819050919050565b620008a58162000890565b8114620008b157600080fd5b50565b600081359050620008c5816200089a565b92915050565b600080600080600060a08688031215620008ea57620008e9620006df565b5b600086013567ffffffffffffffff8111156200090b576200090a620006e4565b5b620009198882890162000818565b955050602086013567ffffffffffffffff8111156200093d576200093c620006e4565b5b6200094b8882890162000818565b94505060406200095e8882890162000879565b9350506060620009718882890162000879565b92505060806200098488828901620008b4565b9150509295509295909350565b600081519050919050565b6000819050602082019050919050565b6000620009b982620005e7565b9050919050565b620009cb81620009ac565b82525050565b6000620009df8383620009c0565b60208301905092915050565b6000602082019050919050565b600062000a058262000991565b62000a11818562000574565b935062000a1e836200099c565b8060005b8381101562000a5557815162000a398882620009d1565b975062000a4683620009eb565b92505060018101905062000a22565b5085935050505092915050565b6000602082019050818103600083015262000a7e8184620009f8565b905092915050565b60006020828403121562000a9f5762000a9e620006df565b5b600062000aaf84828501620008b4565b91505092915050565b62000ac381620009ac565b82525050565b600060208201905062000ae0600083018462000ab8565b92915050565b62000af1816200084b565b82525050565b600060208201905062000b0e600083018462000ae6565b92915050565b62000b1f81620005fb565b82525050565b600060208201905062000b3c600083018462000b14565b92915050565b62000b4d8162000890565b82525050565b600060208201905062000b6a600083018462000b42565b92915050565b600081519050919050565b600082825260208201905092915050565b60005b8381101562000bac57808201518184015260208101905062000b8f565b60008484015250505050565b600062000bc58262000b70565b62000bd1818562000b7b565b935062000be381856020860162000b8c565b62000bee81620006f3565b840191505092915050565b600060a082019050818103600083015262000c15818862000bb8565b9050818103602083015262000c2b818762000bb8565b905062000c3c604083018662000ae6565b62000c4b606083018562000ae6565b62000c5a608083018462000b42565b969550505050505056fe60806040523480156200001157600080fd5b5060405162001d1738038062001d178339818101604052810190620000379190620003a1565b848484846040518060400160405280600d81526020017f70617920617320796f7520676f000000000000000000000000000000000000008152508460009081620000829190620006a8565b508360019081620000949190620006a8565b5082600260006101000a81548173ffffffffffffffffffffffffffffffffffffffff021916908373ffffffffffffffffffffffffffffffffffffffff16021790555081600460006101000a81548173ffffffffffffffffffffffffffffffffffffffff021916908373ffffffffffffffffffffffffffffffffffffffff1602179055506000600460146101000a81548160ff0219169083600481111562000140576200013f6200078f565b5b02179055508060059081620001569190620006a8565b505050505050806007819055505050505050620007be565b6000604051905090565b600080fd5b600080fd5b600080fd5b600080fd5b6000601f19601f8301169050919050565b7f4e487b7100000000000000000000000000000000000000000000000000000000600052604160045260246000fd5b620001d7826200018c565b810181811067ffffffffffffffff82111715620001f957620001f86200019d565b5b80604052505050565b60006200020e6200016e565b90506200021c8282620001cc565b919050565b600067ffffffffffffffff8211156200023f576200023e6200019d565b5b6200024a826200018c565b9050602081019050919050565b60005b83811015620002775780820151818401526020810190506200025a565b60008484015250505050565b60006200029a620002948462000221565b62000202565b905082815260208101848484011115620002b957620002b862000187565b5b620002c684828562000257565b509392505050565b600082601f830112620002e657620002e562000182565b5b8151620002f884826020860162000283565b91505092915050565b600073ffffffffffffffffffffffffffffffffffffffff82169050919050565b60006200032e8262000301565b9050919050565b620003408162000321565b81146200034c57600080fd5b50565b600081519050620003608162000335565b92915050565b6000819050919050565b6200037b8162000366565b81146200038757600080fd5b50565b6000815190506200039b8162000370565b92915050565b600080600080600060a08688031215620003c057620003bf62000178565b5b600086015167ffffffffffffffff811115620003e157620003e06200017d565b5b620003ef88828901620002ce565b955050602086015167ffffffffffffffff8111156200041357620004126200017d565b5b6200042188828901620002ce565b945050604062000434888289016200034f565b935050606062000447888289016200034f565b92505060806200045a888289016200038a565b9150509295509295909350565b600081519050919050565b7f4e487b7100000000000000000000000000000000000000000000000000000000600052602260045260246000fd5b60006002820490506001821680620004ba57607f821691505b602082108103620004d057620004cf62000472565b5b50919050565b60008190508160005260206000209050919050565b60006020601f8301049050919050565b600082821b905092915050565b6000600883026200053a7fffffffffffffffffffffffffffffffffffffffffffffffffffffffffffffffff82620004fb565b620005468683620004fb565b95508019841693508086168417925050509392505050565b6000819050919050565b600062000589620005836200057d8462000366565b6200055e565b62000366565b9050919050565b6000819050919050565b620005a58362000568565b620005bd620005b48262000590565b84845462000508565b825550505050565b600090565b620005d4620005c5565b620005e18184846200059a565b505050565b5b818110156200060957620005fd600082620005ca565b600181019050620005e7565b5050565b601f82111562000658576200062281620004d6565b6200062d84620004eb565b810160208510156200063d578190505b620006556200064c85620004eb565b830182620005e6565b50505b505050565b600082821c905092915050565b60006200067d600019846008026200065d565b1980831691505092915050565b60006200069883836200066a565b9150826002028217905092915050565b620006b38262000467565b67ffffffffffffffff811115620006cf57620006ce6200019d565b5b620006db8254620004a1565b620006e88282856200060d565b600060209050601f8311600181146200072057600084156200070b578287015190505b6200071785826200068a565b86555062000787565b601f1984166200073086620004d6565b60005b828110156200075a5784890151825560018201915060208501945060208101905062000733565b868310156200077a578489015162000776601f8916826200066a565b8355505b6001600288020188555050505b505050505050565b7f4e487b7100000000000000000000000000000000000000000000000000000000600052602160045260246000fd5b61154980620007ce6000396000f3fe608060405234801561001057600080fd5b50600436106100f55760003560e01c806387d8178911610097578063e5a6b10f11610066578063e5a6b10f1461022b578063e6400bbe14610249578063ea8a1af014610253578063ef838f881461025d576100f5565b806387d81789146101a457806398b9f004146101d5578063cb2ef6f7146101f1578063da860f1b1461020f576100f5565b806343d726d6116100d357806343d726d614610140578063633423be1461014a5780636720ceb11461016857806384ab30a514610186576100f5565b80630d0175a9146100fa57806310ccb04c1461011857806324600fc314610136575b600080fd5b61010261027b565b60405161010f9190610e5d565b60405180910390f35b6101206102a1565b60405161012d9190610eef565b60405180910390f35b61013e6102b4565b005b610148610346565b005b610152610478565b60405161015f9190610e5d565b60405180910390f35b61017061049e565b60405161017d9190610f25565b60405180910390f35b61018e6106bc565b60405161019b9190610fd0565b60405180910390f35b6101be60048036038101906101b9919061102d565b61074a565b6040516101cc929190611069565b60405180910390f35b6101ef60048036038101906101ea91906110be565b61079e565b005b6101f9610883565b6040516102069190610fd0565b60405180910390f35b6102296004803603810190610224919061102d565b610911565b005b6102336109a4565b6040516102409190610e5d565b60405180910390f35b6102516109ca565b005b61025b610b72565b005b610265610ca5565b6040516102729190610fd0565b60405180910390f35b600260009054906101000a900473ffffffffffffffffffffffffffffffffffffffff1681565b600460149054906101000a900460ff1681565b600260009054906101000a900473ffffffffffffffffffffffffffffffffffffffff1673ffffffffffffffffffffffffffffffffffffffff163373ffffffffffffffffffffffffffffffffffffffff1614610344576040517f08c379a000000000000000000000000000000000000000000000000000000000815260040161033b9061115d565b60405180910390fd5b565b600260009054906101000a900473ffffffffffffffffffffffffffffffffffffffff1673ffffffffffffffffffffffffffffffffffffffff163373ffffffffffffffffffffffffffffffffffffffff16146103d6576040517f08c379a00000000000000000000000000000000000000000000000000000000081526004016103cd9061115d565b60405180910390fd5b600360048111156103ea576103e9610e78565b5b600460149054906101000a900460ff16600481111561040c5761040b610e78565b5b0361044c576040517f08c379a0000000000000000000000000000000000000000000000000000000008152600401610443906111ef565b60405180910390fd5b60048060146101000a81548160ff0219169083600481111561047157610470610e78565b5b0217905550565b600360009054906101000a900473ffffffffffffffffffffffffffffffffffffffff1681565b6000600260009054906101000a900473ffffffffffffffffffffffffffffffffffffffff1673ffffffffffffffffffffffffffffffffffffffff163373ffffffffffffffffffffffffffffffffffffffff1614610530576040517f08c379a00000000000000000000000000000000000000000000000000000000081526004016105279061115d565b60405180910390fd5b6001600481111561054457610543610e78565b5b600460149054906101000a900460ff16600481111561056657610565610e78565b5b146105a6576040517f08c379a000000000000000000000000000000000000000000000000000000000815260040161059d90611281565b60405180910390fd5b6105d4600360009054906101000a900473ffffffffffffffffffffffffffffffffffffffff16600754610d33565b3073ffffffffffffffffffffffffffffffffffffffff167f960f80c1468168314e9bb3daa45c4819ef0a7969615e253bbc73477997b1eb5860405160405180910390a2600260009054906101000a900473ffffffffffffffffffffffffffffffffffffffff1673ffffffffffffffffffffffffffffffffffffffff16600360009054906101000a900473ffffffffffffffffffffffffffffffffffffffff1673ffffffffffffffffffffffffffffffffffffffff167f433731019d78f9808cedc4435fc0eefc894b9a6f2147b6afbc20d284fe41955c60405160405180910390a36001905090565b600180546106c9906112d0565b80601f01602080910402602001604051908101604052809291908181526020018280546106f5906112d0565b80156107425780601f1061071757610100808354040283529160200191610742565b820191906000526020600020905b81548152906001019060200180831161072557829003601f168201915b505050505081565b6006818154811061075a57600080fd5b90600052602060002090600202016000915090508060000154908060010160009054906101000a900473ffffffffffffffffffffffffffffffffffffffff16905082565b600060048111156107b2576107b1610e78565b5b600460149054906101000a900460ff1660048111156107d4576107d3610e78565b5b14610814576040517f08c379a000000000000000000000000000000000000000000000000000000000815260040161080b90611373565b60405180910390fd5b80600360006101000a81548173ffffffffffffffffffffffffffffffffffffffff021916908373ffffffffffffffffffffffffffffffffffffffff1602179055506001600460146101000a81548160ff0219169083600481111561087b5761087a610e78565b5b021790555050565b60058054610890906112d0565b80601f01602080910402602001604051908101604052809291908181526020018280546108bc906112d0565b80156109095780601f106108de57610100808354040283529160200191610909565b820191906000526020600020905b8154815290600101906020018083116108ec57829003601f168201915b505050505081565b600260009054906101000a900473ffffffffffffffffffffffffffffffffffffffff1673ffffffffffffffffffffffffffffffffffffffff163373ffffffffffffffffffffffffffffffffffffffff16146109a1576040517f08c379a00000000000000000000000000000000000000000000000000000000081526004016109989061115d565b60405180910390fd5b50565b600460009054906101000a900473ffffffffffffffffffffffffffffffffffffffff1681565b600260009054906101000a900473ffffffffffffffffffffffffffffffffffffffff1673ffffffffffffffffffffffffffffffffffffffff163373ffffffffffffffffffffffffffffffffffffffff1614610a5a576040517f08c379a0000000000000000000000000000000000000000000000000000000008152600401610a519061115d565b60405180910390fd5b60036004811115610a6e57610a6d610e78565b5b600460149054906101000a900460ff166004811115610a9057610a8f610e78565b5b03610ad0576040517f08c379a0000000000000000000000000000000000000000000000000000000008152600401610ac7906111ef565b60405180910390fd5b600480811115610ae357610ae2610e78565b5b600460149054906101000a900460ff166004811115610b0557610b04610e78565b5b03610b45576040517f08c379a0000000000000000000000000000000000000000000000000000000008152600401610b3c90611405565b60405180910390fd5b6002600460146101000a81548160ff02191690836004811115610b6b57610b6a610e78565b5b0217905550565b600260009054906101000a900473ffffffffffffffffffffffffffffffffffffffff1673ffffffffffffffffffffffffffffffffffffffff163373ffffffffffffffffffffffffffffffffffffffff1614610c02576040517f08c379a0000000000000000000000000000000000000000000000000000000008152600401610bf99061115d565b60405180910390fd5b60036004811115610c1657610c15610e78565b5b600460149054906101000a900460ff166004811115610c3857610c37610e78565b5b03610c78576040517f08c379a0000000000000000000000000000000000000000000000000000000008152600401610c6f906111ef565b60405180910390fd5b6003600460146101000a81548160ff02191690836004811115610c9e57610c9d610e78565b5b0217905550565b60008054610cb2906112d0565b80601f0160208091040260200160405190810160405280929190818152602001828054610cde906112d0565b8015610d2b5780601f10610d0057610100808354040283529160200191610d2b565b820191906000526020600020905b815481529060010190602001808311610d0e57829003601f168201915b505050505081565b6000600460009054906101000a900473ffffffffffffffffffffffffffffffffffffffff1690508073ffffffffffffffffffffffffffffffffffffffff1663a9059cbb84846040518363ffffffff1660e01b8152600401610d95929190611425565b6020604051808303816000875af1158015610db4573d6000803e3d6000fd5b505050506040513d601f19601f82011682018060405250810190610dd8919061147a565b610e17576040517f08c379a0000000000000000000000000000000000000000000000000000000008152600401610e0e906114f3565b60405180910390fd5b505050565b600073ffffffffffffffffffffffffffffffffffffffff82169050919050565b6000610e4782610e1c565b9050919050565b610e5781610e3c565b82525050565b6000602082019050610e726000830184610e4e565b92915050565b7f4e487b7100000000000000000000000000000000000000000000000000000000600052602160045260246000fd5b60058110610eb857610eb7610e78565b5b50565b6000819050610ec982610ea7565b919050565b6000610ed982610ebb565b9050919050565b610ee981610ece565b82525050565b6000602082019050610f046000830184610ee0565b92915050565b60008115159050919050565b610f1f81610f0a565b82525050565b6000602082019050610f3a6000830184610f16565b92915050565b600081519050919050565b600082825260208201905092915050565b60005b83811015610f7a578082015181840152602081019050610f5f565b60008484015250505050565b6000601f19601f8301169050919050565b6000610fa282610f40565b610fac8185610f4b565b9350610fbc818560208601610f5c565b610fc581610f86565b840191505092915050565b60006020820190508181036000830152610fea8184610f97565b905092915050565b600080fd5b6000819050919050565b61100a81610ff7565b811461101557600080fd5b50565b60008135905061102781611001565b92915050565b60006020828403121561104357611042610ff2565b5b600061105184828501611018565b91505092915050565b61106381610ff7565b82525050565b600060408201905061107e600083018561105a565b61108b6020830184610e4e565b9392505050565b61109b81610e3c565b81146110a657600080fd5b50565b6000813590506110b881611092565b92915050565b6000602082840312156110d4576110d3610ff2565b5b60006110e2848285016110a9565b91505092915050565b7f596f7520617265206e6f7420616c6c6f77656420746f206361727279206f757460008201527f207468697320616374696f6e0000000000000000000000000000000000000000602082015250565b6000611147602c83610f4b565b9150611152826110eb565b604082019050919050565b600060208201905081810360008301526111768161113a565b9050919050565b7f5468697320636f6e74726163742068617320616c7265616479206265656e206360008201527f616e63656c6c6564000000000000000000000000000000000000000000000000602082015250565b60006111d9602883610f4b565b91506111e48261117d565b604082019050919050565b60006020820190508181036000830152611208816111cc565b9050919050565b7f5468697320636f6e7472616374206973206e6f206c6f6e67657220616374697660008201527f6500000000000000000000000000000000000000000000000000000000000000602082015250565b600061126b602183610f4b565b91506112768261120f565b604082019050919050565b6000602082019050818103600083015261129a8161125e565b9050919050565b7f4e487b7100000000000000000000000000000000000000000000000000000000600052602260045260246000fd5b600060028204905060018216806112e857607f821691505b6020821081036112fb576112fa6112a1565b5b50919050565b7f5468697320636f6e7472616374206973206e6f206c6f6e6765722070656e646960008201527f6e67000000000000000000000000000000000000000000000000000000000000602082015250565b600061135d602283610f4b565b915061136882611301565b604082019050919050565b6000602082019050818103600083015261138c81611350565b9050919050565b7f5468697320636f6e74726163742068617320616c7265616479206265656e206360008201527f6c6f736564000000000000000000000000000000000000000000000000000000602082015250565b60006113ef602583610f4b565b91506113fa82611393565b604082019050919050565b6000602082019050818103600083015261141e816113e2565b9050919050565b600060408201905061143a6000830185610e4e565b611447602083018461105a565b9392505050565b61145781610f0a565b811461146257600080fd5b50565b6000815190506114748161144e565b92915050565b6000602082840312156114905761148f610ff2565b5b600061149e84828501611465565b91505092915050565b7f546f6b656e207472616e73666572206661696c65640000000000000000000000600082015250565b60006114dd601583610f4b565b91506114e8826114a7565b602082019050919050565b6000602082019050818103600083015261150c816114d0565b905091905056fea26469706673582212200a223ea50b8aa3d7b5d63dc9b0bd2f61a186f8a0c65642233b8e7600df95902d64736f6c6343000818003360806040526000600760006101000a81548160ff021916908360018111156200002d576200002c6200019c565b5b02179055503480156200003f57600080fd5b5060405162001d4e38038062001d4e8339818101604052810190620000659190620003fe565b848484846040518060400160405280600a81526020017f66697865642072617465000000000000000000000000000000000000000000008152508460009081620000b0919062000705565b508360019081620000c2919062000705565b5082600260006101000a81548173ffffffffffffffffffffffffffffffffffffffff021916908373ffffffffffffffffffffffffffffffffffffffff16021790555081600460006101000a81548173ffffffffffffffffffffffffffffffffffffffff021916908373ffffffffffffffffffffffffffffffffffffffff1602179055506000600460146101000a81548160ff021916908360048111156200016e576200016d6200019c565b5b0217905550806005908162000184919062000705565b505050505050806006819055505050505050620007ec565b7f4e487b7100000000000000000000000000000000000000000000000000000000600052602160045260246000fd5b6000604051905090565b600080fd5b600080fd5b600080fd5b600080fd5b6000601f19601f8301169050919050565b7f4e487b7100000000000000000000000000000000000000000000000000000000600052604160045260246000fd5b6200023482620001e9565b810181811067ffffffffffffffff82111715620002565762000255620001fa565b5b80604052505050565b60006200026b620001cb565b905062000279828262000229565b919050565b600067ffffffffffffffff8211156200029c576200029b620001fa565b5b620002a782620001e9565b9050602081019050919050565b60005b83811015620002d4578082015181840152602081019050620002b7565b60008484015250505050565b6000620002f7620002f1846200027e565b6200025f565b905082815260208101848484011115620003165762000315620001e4565b5b62000323848285620002b4565b509392505050565b600082601f830112620003435762000342620001df565b5b815162000355848260208601620002e0565b91505092915050565b600073ffffffffffffffffffffffffffffffffffffffff82169050919050565b60006200038b826200035e565b9050919050565b6200039d816200037e565b8114620003a957600080fd5b50565b600081519050620003bd8162000392565b92915050565b6000819050919050565b620003d881620003c3565b8114620003e457600080fd5b50565b600081519050620003f881620003cd565b92915050565b600080600080600060a086880312156200041d576200041c620001d5565b5b600086015167ffffffffffffffff8111156200043e576200043d620001da565b5b6200044c888289016200032b565b955050602086015167ffffffffffffffff81111562000470576200046f620001da565b5b6200047e888289016200032b565b94505060406200049188828901620003ac565b9350506060620004a488828901620003ac565b9250506080620004b788828901620003e7565b9150509295509295909350565b600081519050919050565b7f4e487b7100000000000000000000000000000000000000000000000000000000600052602260045260246000fd5b600060028204905060018216806200051757607f821691505b6020821081036200052d576200052c620004cf565b5b50919050565b60008190508160005260206000209050919050565b60006020601f8301049050919050565b600082821b905092915050565b600060088302620005977fffffffffffffffffffffffffffffffffffffffffffffffffffffffffffffffff8262000558565b620005a3868362000558565b95508019841693508086168417925050509392505050565b6000819050919050565b6000620005e6620005e0620005da84620003c3565b620005bb565b620003c3565b9050919050565b6000819050919050565b6200060283620005c5565b6200061a6200061182620005ed565b84845462000565565b825550505050565b600090565b6200063162000622565b6200063e818484620005f7565b505050565b5b8181101562000666576200065a60008262000627565b60018101905062000644565b5050565b601f821115620006b5576200067f8162000533565b6200068a8462000548565b810160208510156200069a578190505b620006b2620006a98562000548565b83018262000643565b50505b505050565b600082821c905092915050565b6000620006da60001984600802620006ba565b1980831691505092915050565b6000620006f58383620006c7565b9150826002028217905092915050565b6200071082620004c4565b67ffffffffffffffff8111156200072c576200072b620001fa565b5b620007388254620004fe565b620007458282856200066a565b600060209050601f8311600181146200077d576000841562000768578287015190505b620007748582620006e7565b865550620007e4565b601f1984166200078d8662000533565b60005b82811015620007b75784890151825560018201915060208501945060208101905062000790565b86831015620007d75784890151620007d3601f891682620006c7565b8355505b6001600288020188555050505b505050505050565b61155280620007fc6000396000f3fe608060405234801561001057600080fd5b50600436106100ea5760003560e01c8063900feb3b1161008c578063e5a6b10f11610066578063e5a6b10f146101f1578063e6400bbe1461020f578063ea8a1af014610219578063ef838f8814610223576100ea565b8063900feb3b1461019957806398b9f004146101b7578063cb2ef6f7146101d3576100ea565b806343d726d6116100c857806343d726d614610135578063633423be1461013f5780636720ceb11461015d57806384ab30a51461017b576100ea565b80630d0175a9146100ef57806310ccb04c1461010d57806324600fc31461012b575b600080fd5b6100f7610241565b6040516101049190610e19565b60405180910390f35b610115610267565b6040516101229190610eab565b60405180910390f35b61013361027a565b005b61013d61030c565b005b61014761043e565b6040516101549190610e19565b60405180910390f35b610165610464565b6040516101729190610ee1565b60405180910390f35b61018361074c565b6040516101909190610f8c565b60405180910390f35b6101a16107da565b6040516101ae9190610ff6565b60405180910390f35b6101d160048036038101906101cc9190611042565b6107ed565b005b6101db6108d2565b6040516101e89190610f8c565b60405180910390f35b6101f9610960565b6040516102069190610e19565b60405180910390f35b610217610986565b005b610221610b2e565b005b61022b610c61565b6040516102389190610f8c565b60405180910390f35b600260009054906101000a900473ffffffffffffffffffffffffffffffffffffffff1681565b600460149054906101000a900460ff1681565b600260009054906101000a900473ffffffffffffffffffffffffffffffffffffffff1673ffffffffffffffffffffffffffffffffffffffff163373ffffffffffffffffffffffffffffffffffffffff161461030a576040517f08c379a0000000000000000000000000000000000000000000000000000000008152600401610301906110e1565b60405180910390fd5b565b600260009054906101000a900473ffffffffffffffffffffffffffffffffffffffff1673ffffffffffffffffffffffffffffffffffffffff163373ffffffffffffffffffffffffffffffffffffffff161461039c576040517f08c379a0000000000000000000000000000000000000000000000000000000008152600401610393906110e1565b60405180910390fd5b600360048111156103b0576103af610e34565b5b600460149054906101000a900460ff1660048111156103d2576103d1610e34565b5b03610412576040517f08c379a000000000000000000000000000000000000000000000000000000000815260040161040990611173565b60405180910390fd5b60048060146101000a81548160ff0219169083600481111561043757610436610e34565b5b0217905550565b600360009054906101000a900473ffffffffffffffffffffffffffffffffffffffff1681565b6000600260009054906101000a900473ffffffffffffffffffffffffffffffffffffffff1673ffffffffffffffffffffffffffffffffffffffff163373ffffffffffffffffffffffffffffffffffffffff16146104f6576040517f08c379a00000000000000000000000000000000000000000000000000000000081526004016104ed906110e1565b60405180910390fd5b6001600481111561050a57610509610e34565b5b600460149054906101000a900460ff16600481111561052c5761052b610e34565b5b1461056c576040517f08c379a000000000000000000000000000000000000000000000000000000000815260040161056390611205565b60405180910390fd5b60018081111561057f5761057e610e34565b5b600760009054906101000a900460ff1660018111156105a1576105a0610e34565b5b036105e1576040517f08c379a00000000000000000000000000000000000000000000000000000000081526004016105d890611271565b60405180910390fd5b61060f600360009054906101000a900473ffffffffffffffffffffffffffffffffffffffff16600654610cef565b6001600760006101000a81548160ff0219169083600181111561063557610634610e34565b5b021790555060048060146101000a81548160ff0219169083600481111561065f5761065e610e34565b5b02179055503073ffffffffffffffffffffffffffffffffffffffff167f960f80c1468168314e9bb3daa45c4819ef0a7969615e253bbc73477997b1eb5860405160405180910390a2600260009054906101000a900473ffffffffffffffffffffffffffffffffffffffff1673ffffffffffffffffffffffffffffffffffffffff16600360009054906101000a900473ffffffffffffffffffffffffffffffffffffffff1673ffffffffffffffffffffffffffffffffffffffff167f80cc066594d46a1c222dffb998d2a0b113cba551c911573a088260abc6cbebd660405160405180910390a36001905090565b60018054610759906112c0565b80601f0160208091040260200160405190810160405280929190818152602001828054610785906112c0565b80156107d25780601f106107a7576101008083540402835291602001916107d2565b820191906000526020600020905b8154815290600101906020018083116107b557829003601f168201915b505050505081565b600760009054906101000a900460ff1681565b6000600481111561080157610800610e34565b5b600460149054906101000a900460ff16600481111561082357610822610e34565b5b14610863576040517f08c379a000000000000000000000000000000000000000000000000000000000815260040161085a90611363565b60405180910390fd5b80600360006101000a81548173ffffffffffffffffffffffffffffffffffffffff021916908373ffffffffffffffffffffffffffffffffffffffff1602179055506001600460146101000a81548160ff021916908360048111156108ca576108c9610e34565b5b021790555050565b600580546108df906112c0565b80601f016020809104026020016040519081016040528092919081815260200182805461090b906112c0565b80156109585780601f1061092d57610100808354040283529160200191610958565b820191906000526020600020905b81548152906001019060200180831161093b57829003601f168201915b505050505081565b600460009054906101000a900473ffffffffffffffffffffffffffffffffffffffff1681565b600260009054906101000a900473ffffffffffffffffffffffffffffffffffffffff1673ffffffffffffffffffffffffffffffffffffffff163373ffffffffffffffffffffffffffffffffffffffff1614610a16576040517f08c379a0000000000000000000000000000000000000000000000000000000008152600401610a0d906110e1565b60405180910390fd5b60036004811115610a2a57610a29610e34565b5b600460149054906101000a900460ff166004811115610a4c57610a4b610e34565b5b03610a8c576040517f08c379a0000000000000000000000000000000000000000000000000000000008152600401610a8390611173565b60405180910390fd5b600480811115610a9f57610a9e610e34565b5b600460149054906101000a900460ff166004811115610ac157610ac0610e34565b5b03610b01576040517f08c379a0000000000000000000000000000000000000000000000000000000008152600401610af8906113f5565b60405180910390fd5b6002600460146101000a81548160ff02191690836004811115610b2757610b26610e34565b5b0217905550565b600260009054906101000a900473ffffffffffffffffffffffffffffffffffffffff1673ffffffffffffffffffffffffffffffffffffffff163373ffffffffffffffffffffffffffffffffffffffff1614610bbe576040517f08c379a0000000000000000000000000000000000000000000000000000000008152600401610bb5906110e1565b60405180910390fd5b60036004811115610bd257610bd1610e34565b5b600460149054906101000a900460ff166004811115610bf457610bf3610e34565b5b03610c34576040517f08c379a0000000000000000000000000000000000000000000000000000000008152600401610c2b90611173565b60405180910390fd5b6003600460146101000a81548160ff02191690836004811115610c5a57610c59610e34565b5b0217905550565b60008054610c6e906112c0565b80601f0160208091040260200160405190810160405280929190818152602001828054610c9a906112c0565b8015610ce75780601f10610cbc57610100808354040283529160200191610ce7565b820191906000526020600020905b815481529060010190602001808311610cca57829003601f168201915b505050505081565b6000600460009054906101000a900473ffffffffffffffffffffffffffffffffffffffff1690508073ffffffffffffffffffffffffffffffffffffffff1663a9059cbb84846040518363ffffffff1660e01b8152600401610d5192919061142e565b6020604051808303816000875af1158015610d70573d6000803e3d6000fd5b505050506040513d601f19601f82011682018060405250810190610d949190611483565b610dd3576040517f08c379a0000000000000000000000000000000000000000000000000000000008152600401610dca906114fc565b60405180910390fd5b505050565b600073ffffffffffffffffffffffffffffffffffffffff82169050919050565b6000610e0382610dd8565b9050919050565b610e1381610df8565b82525050565b6000602082019050610e2e6000830184610e0a565b92915050565b7f4e487b7100000000000000000000000000000000000000000000000000000000600052602160045260246000fd5b60058110610e7457610e73610e34565b5b50565b6000819050610e8582610e63565b919050565b6000610e9582610e77565b9050919050565b610ea581610e8a565b82525050565b6000602082019050610ec06000830184610e9c565b92915050565b60008115159050919050565b610edb81610ec6565b82525050565b6000602082019050610ef66000830184610ed2565b92915050565b600081519050919050565b600082825260208201905092915050565b60005b83811015610f36578082015181840152602081019050610f1b565b60008484015250505050565b6000601f19601f8301169050919050565b6000610f5e82610efc565b610f688185610f07565b9350610f78818560208601610f18565b610f8181610f42565b840191505092915050565b60006020820190508181036000830152610fa68184610f53565b905092915050565b60028110610fbf57610fbe610e34565b5b50565b6000819050610fd082610fae565b919050565b6000610fe082610fc2565b9050919050565b610ff081610fd5565b82525050565b600060208201905061100b6000830184610fe7565b92915050565b600080fd5b61101f81610df8565b811461102a57600080fd5b50565b60008135905061103c81611016565b92915050565b60006020828403121561105857611057611011565b5b60006110668482850161102d565b91505092915050565b7f596f7520617265206e6f7420616c6c6f77656420746f206361727279206f757460008201527f207468697320616374696f6e0000000000000000000000000000000000000000602082015250565b60006110cb602c83610f07565b91506110d68261106f565b604082019050919050565b600060208201905081810360008301526110fa816110be565b9050919050565b7f5468697320636f6e74726163742068617320616c7265616479206265656e206360008201527f616e63656c6c6564000000000000000000000000000000000000000000000000602082015250565b600061115d602883610f07565b915061116882611101565b604082019050919050565b6000602082019050818103600083015261118c81611150565b9050919050565b7f5468697320636f6e7472616374206973206e6f206c6f6e67657220616374697660008201527f6500000000000000000000000000000000000000000000000000000000000000602082015250565b60006111ef602183610f07565b91506111fa82611193565b604082019050919050565b6000602082019050818103600083015261121e816111e2565b9050919050565b7f5061796d656e742068617320616c7265616479206265656e2073656e74000000600082015250565b600061125b601d83610f07565b915061126682611225565b602082019050919050565b6000602082019050818103600083015261128a8161124e565b9050919050565b7f4e487b7100000000000000000000000000000000000000000000000000000000600052602260045260246000fd5b600060028204905060018216806112d857607f821691505b6020821081036112eb576112ea611291565b5b50919050565b7f5468697320636f6e7472616374206973206e6f206c6f6e6765722070656e646960008201527f6e67000000000000000000000000000000000000000000000000000000000000602082015250565b600061134d602283610f07565b9150611358826112f1565b604082019050919050565b6000602082019050818103600083015261137c81611340565b9050919050565b7f5468697320636f6e74726163742068617320616c7265616479206265656e206360008201527f6c6f736564000000000000000000000000000000000000000000000000000000602082015250565b60006113df602583610f07565b91506113ea82611383565b604082019050919050565b6000602082019050818103600083015261140e816113d2565b9050919050565b6000819050919050565b61142881611415565b82525050565b60006040820190506114436000830185610e0a565b611450602083018461141f565b9392505050565b61146081610ec6565b811461146b57600080fd5b50565b60008151905061147d81611457565b92915050565b60006020828403121561149957611498611011565b5b60006114a78482850161146e565b91505092915050565b7f546f6b656e207472616e73666572206661696c65640000000000000000000000600082015250565b60006114e6601583610f07565b91506114f1826114b0565b602082019050919050565b60006020820190508181036000830152611515816114d9565b905091905056fea264697066735822122060799b754133f8d775df50611b917c696e0373bbb53d3e383ecf6ddd8404de9b64736f6c63430008180033a26469706673582212202a85a7bbf966c6a680687088d5ce9f434e3f7557b9d595157bfb2b70a09a53ac64736f6c63430008180033",
  "linkReferences": {},
  "deployedLinkReferences": {}
}