{"abi":[{"type":"constructor","inputs":[{"name":"_employerId","type":"string","internalType":"string"},{"name":"_employeeId","type":"string","internalType":"string"},{"name":"_employerAddress","type":"address","internalType":"address"},{"name":"_currency","type":"address","internalType":"address"},{"name":"_contractType","type":"string","internalType":"string"}],"stateMutability":"nonpayable"},{"type":"function","name":"agreementStatus","inputs":[],"outputs":[{"name":"","type":"uint8","internalType":"enum Agreement.AgreementStatus"}],"stateMutability":"view"},{"type":"function","name":"cancel","inputs":[],"outputs":[],"stateMutability":"nonpayable"},{"type":"function","name":"close","inputs":[],"outputs":[],"stateMutability":"nonpayable"},{"type":"function","name":"collectTokens","inputs":[{"name":"tokenAddress","type":"address","internalType":"address"},{"name":"requiredAmount","type":"uint256","internalType":"uint256"}],"outputs":[{"name":"","type":"bool","internalType":"bool"}],"stateMutability":"nonpayable"},{"type":"function","name":"contractType","inputs":[],"outputs":[{"name":"","type":"string","internalType":"string"}],"stateMutability":"view"},{"type":"function","name":"currency","inputs":[],"outputs":[{"name":"","type":"address","internalType":"address"}],"stateMutability":"view"},{"type":"function","name":"employeeEnterContract","inputs":[],"outputs":[],"stateMutability":"nonpayable"},{"type":"function","name":"employeeId","inputs":[],"outputs":[{"name":"","type":"string","internalType":"string"}],"stateMutability":"view"},{"type":"function","name":"employerAddress","inputs":[],"outputs":[{"name":"","type":"address","internalType":"address"}],"stateMutability":"view"},{"type":"function","name":"employerId","inputs":[],"outputs":[{"name":"","type":"string","internalType":"string"}],"stateMutability":"view"},{"type":"function","name":"paymentAddress","inputs":[],"outputs":[{"name":"","type":"address","internalType":"address"}],"stateMutability":"view"},{"type":"function","name":"suspend","inputs":[],"outputs":[],"stateMutability":"nonpayable"},{"type":"function","name":"withdrawFunds","inputs":[],"outputs":[],"stateMutability":"view"},{"type":"event","name":"PaymentMade","inputs":[{"name":"agreementAddress","type":"address","indexed":true,"internalType":"address"}],"anonymous":false}],"bytecode":{"object":"0x608060405234801561001057600080fd5b50604051610c8d380380610c8d83398101604081905261002f9161016c565b600061003b86826102ab565b50600161004885826102ab565b50600280546001600160a01b0319166001600160a01b0385811691909117909155600480546001600160a81b031916918416919091179055600561008c82826102ab565b505050505050610369565b634e487b7160e01b600052604160045260246000fd5b600082601f8301126100be57600080fd5b81516001600160401b038111156100d7576100d7610097565b604051601f8201601f19908116603f011681016001600160401b038111828210171561010557610105610097565b60405281815283820160200185101561011d57600080fd5b60005b8281101561013c57602081860181015183830182015201610120565b506000918101602001919091529392505050565b80516001600160a01b038116811461016757600080fd5b919050565b600080600080600060a0868803121561018457600080fd5b85516001600160401b0381111561019a57600080fd5b6101a6888289016100ad565b602088015190965090506001600160401b038111156101c457600080fd5b6101d0888289016100ad565b9450506101df60408701610150565b92506101ed60608701610150565b60808701519092506001600160401b0381111561020957600080fd5b610215888289016100ad565b9150509295509295909350565b600181811c9082168061023657607f821691505b60208210810361025657634e487b7160e01b600052602260045260246000fd5b50919050565b601f8211156102a657806000526020600020601f840160051c810160208510156102835750805b601f840160051c820191505b818110156102a3576000815560010161028f565b50505b505050565b81516001600160401b038111156102c4576102c4610097565b6102d8816102d28454610222565b8461025c565b6020601f82116001811461030c57600083156102f45750848201515b600019600385901b1c1916600184901b1784556102a3565b600084815260208120601f198516915b8281101561033c578785015182556020948501946001909201910161031c565b508482101561035a5786840151600019600387901b60f8161c191681555b50505050600190811b01905550565b610915806103786000396000f3fe608060405234801561001057600080fd5b50600436106100cf5760003560e01c806384ab30a51161008c578063e5a6b10f11610066578063e5a6b10f14610192578063e6400bbe146101a5578063ea8a1af0146101ad578063ef838f88146101b557600080fd5b806384ab30a51461016d5780639fd0985414610182578063cb2ef6f71461018a57600080fd5b80630d0175a9146100d457806310ccb04c1461010457806324600fc3146101255780633fb4fe6f1461012f57806343d726d614610152578063633423be1461015a575b600080fd5b6002546100e7906001600160a01b031681565b6040516001600160a01b0390911681526020015b60405180910390f35b60045461011890600160a01b900460ff1681565b6040516100fb919061074a565b61012d6101bd565b005b61014261013d366004610772565b6101f2565b60405190151581526020016100fb565b61012d6103ea565b6003546100e7906001600160a01b031681565b61017561046c565b6040516100fb91906107aa565b61012d6104fa565b61017561059e565b6004546100e7906001600160a01b031681565b61012d6105ab565b61012d6106a6565b610175610727565b6002546001600160a01b031633146101f05760405162461bcd60e51b81526004016101e7906107f8565b60405180910390fd5b565b604051636eb1769f60e11b8152336004820152306024820152600090839083906001600160a01b0383169063dd62ed3e906044016020604051808303816000875af1158015610245573d6000803e3d6000fd5b505050506040513d601f19601f820116820180604052508101906102699190610844565b10156102b75760405162461bcd60e51b815260206004820152601c60248201527f496e73756666696369656e7420746f6b656e20616c6c6f77616e63650000000060448201526064016101e7565b6040516370a0823160e01b815233600482015283906001600160a01b038316906370a08231906024016020604051808303816000875af11580156102ff573d6000803e3d6000fd5b505050506040513d601f19601f820116820180604052508101906103239190610844565b10156103685760405162461bcd60e51b8152602060048201526014602482015273496e73756666696369656e742062616c616e636560601b60448201526064016101e7565b6040516323b872dd60e01b8152336004820152306024820152604481018490526001600160a01b038216906323b872dd906064016020604051808303816000875af11580156103bb573d6000803e3d6000fd5b505050506040513d601f19601f820116820180604052508101906103df9190610844565b506001949350505050565b6002546001600160a01b031633146104145760405162461bcd60e51b81526004016101e7906107f8565b600360048054600160a01b900460ff169081111561043457610434610734565b036104515760405162461bcd60e51b81526004016101e79061085d565b60048054819060ff60a01b1916600160a01b825b0217905550565b60018054610479906108a5565b80601f01602080910402602001604051908101604052809291908181526020018280546104a5906108a5565b80156104f25780601f106104c7576101008083540402835291602001916104f2565b820191906000526020600020905b8154815290600101906020018083116104d557829003601f168201915b505050505081565b600060048054600160a01b900460ff169081111561051a5761051a610734565b146105725760405162461bcd60e51b815260206004820152602260248201527f5468697320636f6e7472616374206973206e6f206c6f6e6765722070656e64696044820152616e6760f01b60648201526084016101e7565b600380546001600160a01b03191633179055600480546001919060ff60a01b1916600160a01b83610465565b60058054610479906108a5565b6002546001600160a01b031633146105d55760405162461bcd60e51b81526004016101e7906107f8565b600360048054600160a01b900460ff16908111156105f5576105f5610734565b036106125760405162461bcd60e51b81526004016101e79061085d565b6004808054600160a01b900460ff169081111561063157610631610734565b0361068c5760405162461bcd60e51b815260206004820152602560248201527f5468697320636f6e74726163742068617320616c7265616479206265656e20636044820152641b1bdcd95960da1b60648201526084016101e7565b600480546002919060ff60a01b1916600160a01b83610465565b6002546001600160a01b031633146106d05760405162461bcd60e51b81526004016101e7906107f8565b600360048054600160a01b900460ff16908111156106f0576106f0610734565b0361070d5760405162461bcd60e51b81526004016101e79061085d565b600480546003919060ff60a01b1916600160a01b83610465565b60008054610479906108a5565b634e487b7160e01b600052602160045260246000fd5b602081016005831061076c57634e487b7160e01b600052602160045260246000fd5b91905290565b6000806040838503121561078557600080fd5b82356001600160a01b038116811461079c57600080fd5b946020939093013593505050565b602081526000825180602084015260005b818110156107d857602081860181015160408684010152016107bb565b506000604082850101526040601f19601f83011684010191505092915050565b6020808252602c908201527f596f7520617265206e6f7420616c6c6f77656420746f206361727279206f757460408201526b103a3434b99030b1ba34b7b760a11b606082015260800190565b60006020828403121561085657600080fd5b5051919050565b60208082526028908201527f5468697320636f6e74726163742068617320616c7265616479206265656e2063604082015267185b98d95b1b195960c21b606082015260800190565b600181811c908216806108b957607f821691505b6020821081036108d957634e487b7160e01b600052602260045260246000fd5b5091905056fea264697066735822122054f129504bb590310525d09132499e6dc893698577b2d29b9aef61c74998a9b364736f6c634300081a0033","linkReferences":{}},"methodIdentifiers":{"agreementStatus()":"10ccb04c","cancel()":"ea8a1af0","close()":"43d726d6","collectTokens(address,uint256)":"3fb4fe6f","contractType()":"cb2ef6f7","currency()":"e5a6b10f","employeeEnterContract()":"9fd09854","employeeId()":"84ab30a5","employerAddress()":"0d0175a9","employerId()":"ef838f88","paymentAddress()":"633423be","suspend()":"e6400bbe","withdrawFunds()":"24600fc3"},"id":17}