{"abi":[{"type":"constructor","inputs":[{"name":"_employerId","type":"string","internalType":"string"},{"name":"_employeeId","type":"string","internalType":"string"},{"name":"_employerAddress","type":"address","internalType":"address"},{"name":"_currency","type":"address","internalType":"address"},{"name":"_fixedPayment","type":"uint256","internalType":"uint256"},{"name":"_wormholeRelayer","type":"address","internalType":"address"},{"name":"_tokenBridge","type":"address","internalType":"address"},{"name":"_wormhole","type":"address","internalType":"address"}],"stateMutability":"nonpayable"},{"type":"function","name":"agreementStatus","inputs":[],"outputs":[{"name":"","type":"uint8","internalType":"enum Agreement.AgreementStatus"}],"stateMutability":"view"},{"type":"function","name":"cancel","inputs":[],"outputs":[],"stateMutability":"nonpayable"},{"type":"function","name":"close","inputs":[],"outputs":[],"stateMutability":"nonpayable"},{"type":"function","name":"collectTokens","inputs":[{"name":"tokenAddress","type":"address","internalType":"address"},{"name":"requiredAmount","type":"uint256","internalType":"uint256"}],"outputs":[{"name":"","type":"bool","internalType":"bool"}],"stateMutability":"nonpayable"},{"type":"function","name":"contractType","inputs":[],"outputs":[{"name":"","type":"string","internalType":"string"}],"stateMutability":"view"},{"type":"function","name":"currency","inputs":[],"outputs":[{"name":"","type":"address","internalType":"address"}],"stateMutability":"view"},{"type":"function","name":"employeeEnterContract","inputs":[],"outputs":[],"stateMutability":"nonpayable"},{"type":"function","name":"employeeId","inputs":[],"outputs":[{"name":"","type":"string","internalType":"string"}],"stateMutability":"view"},{"type":"function","name":"employerAddress","inputs":[],"outputs":[{"name":"","type":"address","internalType":"address"}],"stateMutability":"view"},{"type":"function","name":"employerId","inputs":[],"outputs":[{"name":"","type":"string","internalType":"string"}],"stateMutability":"view"},{"type":"function","name":"paymentAddress","inputs":[],"outputs":[{"name":"","type":"address","internalType":"address"}],"stateMutability":"view"},{"type":"function","name":"paymentStatus","inputs":[],"outputs":[{"name":"","type":"uint8","internalType":"enum FixedRateAgreement.PaymentStatus"}],"stateMutability":"view"},{"type":"function","name":"quoteCrossChainPayment","inputs":[{"name":"targetChain","type":"uint16","internalType":"uint16"}],"outputs":[{"name":"cost","type":"uint256","internalType":"uint256"}],"stateMutability":"view"},{"type":"function","name":"receiveWormholeMessages","inputs":[{"name":"payload","type":"bytes","internalType":"bytes"},{"name":"additionalVaas","type":"bytes[]","internalType":"bytes[]"},{"name":"sourceAddress","type":"bytes32","internalType":"bytes32"},{"name":"sourceChain","type":"uint16","internalType":"uint16"},{"name":"deliveryHash","type":"bytes32","internalType":"bytes32"}],"outputs":[],"stateMutability":"payable"},{"type":"function","name":"sendCrossChainPayment","inputs":[{"name":"targetChain","type":"uint16","internalType":"uint16"},{"name":"targetHelloToken","type":"address","internalType":"address"},{"name":"recipient","type":"address","internalType":"address"}],"outputs":[],"stateMutability":"payable"},{"type":"function","name":"sendPayment","inputs":[],"outputs":[{"name":"","type":"bool","internalType":"bool"}],"stateMutability":"nonpayable"},{"type":"function","name":"setRegisteredSender","inputs":[{"name":"sourceChain","type":"uint16","internalType":"uint16"},{"name":"sourceAddress","type":"bytes32","internalType":"bytes32"}],"outputs":[],"stateMutability":"nonpayable"},{"type":"function","name":"suspend","inputs":[],"outputs":[],"stateMutability":"nonpayable"},{"type":"function","name":"tokenBridge","inputs":[],"outputs":[{"name":"","type":"address","internalType":"contract ITokenBridge"}],"stateMutability":"view"},{"type":"function","name":"withdrawFunds","inputs":[],"outputs":[],"stateMutability":"view"},{"type":"function","name":"wormhole","inputs":[],"outputs":[{"name":"","type":"address","internalType":"contract IWormhole"}],"stateMutability":"view"},{"type":"function","name":"wormholeRelayer","inputs":[],"outputs":[{"name":"","type":"address","internalType":"contract IWormholeRelayer"}],"stateMutability":"view"},{"type":"event","name":"FixedPaymentMade","inputs":[{"name":"employeeAddress","type":"address","indexed":true,"internalType":"address"},{"name":"employerAddress","type":"address","indexed":true,"internalType":"address"}],"anonymous":false},{"type":"event","name":"PaymentMade","inputs":[{"name":"agreementAddress","type":"address","indexed":true,"internalType":"address"}],"anonymous":false},{"type":"error","name":"NotAnEvmAddress","inputs":[{"name":"","type":"bytes32","internalType":"bytes32"}]}],"bytecode":{"object":"0x60e06040526009805460ff1916905534801561001a57600080fd5b50604051612c06380380612c06833981016040819052610039916101e1565b82828282818c8c8c8c6040518060400160405280600a8152602001696669786564207261746560b01b81525084600090816100749190610330565b5060016100818582610330565b50600280546001600160a01b0319166001600160a01b0385811691909117909155600480546001600160a81b03191691841691909117905560056100c58282610330565b5050506001600160a01b03948516608052505050811660a052600680546001600160a01b031916331790559190911660c052505050600892909255506103ee945050505050565b634e487b7160e01b600052604160045260246000fd5b600082601f83011261013357600080fd5b81516001600160401b0381111561014c5761014c61010c565b604051601f8201601f19908116603f011681016001600160401b038111828210171561017a5761017a61010c565b60405281815283820160200185101561019257600080fd5b60005b828110156101b157602081860181015183830182015201610195565b506000918101602001919091529392505050565b80516001600160a01b03811681146101dc57600080fd5b919050565b600080600080600080600080610100898b0312156101fe57600080fd5b88516001600160401b0381111561021457600080fd5b6102208b828c01610122565b60208b015190995090506001600160401b0381111561023e57600080fd5b61024a8b828c01610122565b97505061025960408a016101c5565b955061026760608a016101c5565b94506080890151935061027c60a08a016101c5565b925061028a60c08a016101c5565b915061029860e08a016101c5565b90509295985092959890939650565b600181811c908216806102bb57607f821691505b6020821081036102db57634e487b7160e01b600052602260045260246000fd5b50919050565b601f82111561032b57806000526020600020601f840160051c810160208510156103085750805b601f840160051c820191505b818110156103285760008155600101610314565b50505b505050565b81516001600160401b038111156103495761034961010c565b61035d8161035784546102a7565b846102e1565b6020601f82116001811461039157600083156103795750848201515b600019600385901b1c1916600184901b178455610328565b600084815260208120601f198516915b828110156103c157878501518255602094850194600190920191016103a1565b50848210156103df5786840151600019600387901b60f8161c191681555b50505050600190811b01905550565b60805160a05160c05161277961048d600039600081816102ed0152818161081a015281816108f701528181610a69015281816114d30152818161190f015281816119900152611b5501526000818161027d01528181610750015281816109810152818161120701528181611425015281816119bf0152611ac2015260008181610349015281816111960152818161175801526117c701526127796000f3fe6080604052600436106101355760003560e01c80639fd09854116100ab578063dd12d68b1161006f578063dd12d68b1461036b578063e508fe8b1461038b578063e5a6b10f146103b9578063e6400bbe146103d9578063ea8a1af0146103ee578063ef838f881461040357600080fd5b80639fd09854146102c6578063c6328a46146102db578063cb2ef6f71461030f578063cc165fe114610324578063da25b7251461033757600080fd5b8063529dca32116100fd578063529dca3214610201578063633423be146102145780636720ceb11461023457806384ab30a51461024957806384acd1bb1461026b578063900feb3b1461029f57600080fd5b80630d0175a91461013a57806310ccb04c1461017757806324600fc3146101a55780633fb4fe6f146101bc57806343d726d6146101ec575b600080fd5b34801561014657600080fd5b5060025461015a906001600160a01b031681565b6040516001600160a01b0390911681526020015b60405180910390f35b34801561018357600080fd5b5060045461019890600160a01b900460ff1681565b60405161016e9190611ba9565b3480156101b157600080fd5b506101ba610418565b005b3480156101c857600080fd5b506101dc6101d7366004611bdb565b61044d565b604051901515815260200161016e565b3480156101f857600080fd5b506101ba610647565b6101ba61020f366004611d7b565b6106c9565b34801561022057600080fd5b5060035461015a906001600160a01b031681565b34801561024057600080fd5b506101dc610be2565b34801561025557600080fd5b5061025e610da1565b60405161016e9190611ecd565b34801561027757600080fd5b5061015a7f000000000000000000000000000000000000000000000000000000000000000081565b3480156102ab57600080fd5b506009546102b99060ff1681565b60405161016e9190611ee0565b3480156102d257600080fd5b506101ba610e2f565b3480156102e757600080fd5b5061015a7f000000000000000000000000000000000000000000000000000000000000000081565b34801561031b57600080fd5b5061025e610ed3565b6101ba610332366004611ef4565b610ee0565b34801561034357600080fd5b5061015a7f000000000000000000000000000000000000000000000000000000000000000081565b34801561037757600080fd5b506101ba610386366004611f3f565b6110e3565b34801561039757600080fd5b506103ab6103a6366004611f5d565b611160565b60405190815260200161016e565b3480156103c557600080fd5b5060045461015a906001600160a01b031681565b3480156103e557600080fd5b506101ba611298565b3480156103fa57600080fd5b506101ba611393565b34801561040f57600080fd5b5061025e611414565b6002546001600160a01b0316331461044b5760405162461bcd60e51b815260040161044290611f7a565b60405180910390fd5b565b604051636eb1769f60e11b8152336004820152306024820152600090839083906001600160a01b0383169063dd62ed3e906044016020604051808303816000875af11580156104a0573d6000803e3d6000fd5b505050506040513d601f19601f820116820180604052508101906104c49190611fc6565b10156105125760405162461bcd60e51b815260206004820152601c60248201527f496e73756666696369656e7420746f6b656e20616c6c6f77616e6365000000006044820152606401610442565b6040516370a0823160e01b815233600482015283906001600160a01b038316906370a08231906024016020604051808303816000875af115801561055a573d6000803e3d6000fd5b505050506040513d601f19601f8201168201806040525081019061057e9190611fc6565b10156105c35760405162461bcd60e51b8152602060048201526014602482015273496e73756666696369656e742062616c616e636560601b6044820152606401610442565b6040516323b872dd60e01b8152336004820152306024820152604481018490526001600160a01b038216906323b872dd906064016020604051808303816000875af1158015610616573d6000803e3d6000fd5b505050506040513d601f19601f8201168201806040525081019061063a9190611fc6565b5060019150505b92915050565b6002546001600160a01b031633146106715760405162461bcd60e51b815260040161044290611f7a565b600360048054600160a01b900460ff169081111561069157610691611b93565b036106ae5760405162461bcd60e51b815260040161044290611fdf565b60048054819060ff60a01b1916600160a01b825b0217905550565b600084516001600160401b038111156106e4576106e4611c07565b60405190808252806020026020018201604052801561073d57816020015b6040805160a0810182526000808252602080830182905292820181905260608201819052608082015282526000199092019101816107025790505b50905060005b8551811015610bd95760007f00000000000000000000000000000000000000000000000000000000000000006001600160a01b031663a9e1189388848151811061078f5761078f612027565b60200260200101516040518263ffffffff1660e01b81526004016107b39190611ecd565b600060405180830381865afa1580156107d0573d6000803e3d6000fd5b505050506040513d6000823e601f3d908101601f191682016040526107f89190810190612181565b606081015160405163ad66a5f160e01b815261ffff90911660048201529091507f00000000000000000000000000000000000000000000000000000000000000006001600160a01b03169063ad66a5f190602401602060405180830381865afa158015610869573d6000803e3d6000fd5b505050506040513d601f19601f8201168201806040525081019061088d9190611fc6565b8160800151146108d85760405162461bcd60e51b81526020600482015260166024820152754e6f74206120546f6b656e204272696467652056414160501b6044820152606401610442565b60e081015160405163ea63738d60e01b81526000916001600160a01b037f0000000000000000000000000000000000000000000000000000000000000000169163ea63738d9161092a91600401611ecd565b600060405180830381865afa158015610947573d6000803e3d6000fd5b505050506040513d6000823e601f3d908101601f1916820160405261096f91908101906122ae565b9050308160800151148015610a1057507f00000000000000000000000000000000000000000000000000000000000000006001600160a01b0316639a8a05926040518163ffffffff1660e01b8152600401602060405180830381865afa1580156109dd573d6000803e3d6000fd5b505050506040513d601f19601f82011682018060405250810190610a019190612379565b61ffff168160a0015161ffff16145b610a675760405162461bcd60e51b815260206004820152602260248201527f546f6b656e20776173206e6f742073656e7420746f2074686973206164647265604482015261737360f01b6064820152608401610442565b7f00000000000000000000000000000000000000000000000000000000000000006001600160a01b031663c3f511c1898581518110610aa857610aa8612027565b60200260200101516040518263ffffffff1660e01b8152600401610acc9190611ecd565b6000604051808303816000875af1158015610aeb573d6000803e3d6000fd5b505050506040513d6000823e601f3d908101601f19168201604052610b139190810190612396565b506000610b2882606001518360400151611421565b90506000610b3582611554565b6020840151909150600860ff83161115610b6c57610b546008836123e0565b610b5f90600a6124e0565b610b6990826124ef565b90505b6040518060a0016040528085604001518152602001856060015161ffff168152602001846001600160a01b031681526020018281526020018560200151815250878781518110610bbe57610bbe612027565b60200260200101819052505050505050806001019050610743565b50505050505050565b6003546000906001600160a01b03163314610c535760405162461bcd60e51b815260206004820152602b60248201527f596f7520617265206e6f7420616c6f77656420746f206361727279206f75742060448201526a3a3434b99030b1ba34b7b760a91b6064820152608401610442565b600160048054600160a01b900460ff1690811115610c7357610c73611b93565b14610c905760405162461bcd60e51b815260040161044290612506565b600160095460ff166001811115610ca957610ca9611b93565b03610cf65760405162461bcd60e51b815260206004820152601d60248201527f5061796d656e742068617320616c7265616479206265656e2073656e740000006044820152606401610442565b600354600854610d0f916001600160a01b0316906115ef565b6009805460ff1916600117905560048054600160a21b60ff60a01b1990911617905560405130907f960f80c1468168314e9bb3daa45c4819ef0a7969615e253bbc73477997b1eb5890600090a26002546003546040516001600160a01b0392831692909116907f80cc066594d46a1c222dffb998d2a0b113cba551c911573a088260abc6cbebd690600090a350600190565b60018054610dae90612547565b80601f0160208091040260200160405190810160405280929190818152602001828054610dda90612547565b8015610e275780601f10610dfc57610100808354040283529160200191610e27565b820191906000526020600020905b815481529060010190602001808311610e0a57829003601f168201915b505050505081565b600060048054600160a01b900460ff1690811115610e4f57610e4f611b93565b14610ea75760405162461bcd60e51b815260206004820152602260248201527f5468697320636f6e7472616374206973206e6f206c6f6e6765722070656e64696044820152616e6760f01b6064820152608401610442565b600380546001600160a01b03191633179055600480546001919060ff60a01b1916600160a01b836106c2565b60058054610dae90612547565b600160048054600160a01b900460ff1690811115610f0057610f00611b93565b14610f1d5760405162461bcd60e51b815260040161044290612506565b600160095460ff166001811115610f3657610f36611b93565b03610f835760405162461bcd60e51b815260206004820152601d60248201527f5061796d656e742068617320616c7265616479206265656e2073656e740000006044820152606401610442565b6000610f8e84611160565b9050803414610ffd5760405162461bcd60e51b815260206004820152603560248201527f6d73672e76616c7565206d7573742062652071756f746543726f7373436861696044820152746e4465706f73697428746172676574436861696e2960581b6064820152608401610442565b604080516001600160a01b038416602082015260009101604051602081830303815290604052905061104f85858360006203d090600460009054906101000a90046001600160a01b03166008546116b3565b506009805460ff1916600117905560048054600160a21b60ff60a01b1990911617905560405130907f960f80c1468168314e9bb3daa45c4819ef0a7969615e253bbc73477997b1eb5890600090a26002546003546040516001600160a01b0392831692909116907f80cc066594d46a1c222dffb998d2a0b113cba551c911573a088260abc6cbebd690600090a35050505050565b6006546001600160a01b031633146111495760405162461bcd60e51b8152602060048201526024808201527f4e6f7420616c6c6f77656420746f207365742072656769737465726564207365604482015263373232b960e11b6064820152608401610442565b61ffff909116600090815260076020526040902055565b60405163c23ee3c360e01b815261ffff821660048201526000602482018190526203d09060448301529081906001600160a01b037f0000000000000000000000000000000000000000000000000000000000000000169063c23ee3c3906064016040805180830381865afa1580156111dc573d6000803e3d6000fd5b505050506040513d601f19601f820116820180604052508101906112009190612581565b50809150507f00000000000000000000000000000000000000000000000000000000000000006001600160a01b0316631a90a2196040518163ffffffff1660e01b8152600401602060405180830381865afa158015611263573d6000803e3d6000fd5b505050506040513d601f19601f820116820180604052508101906112879190611fc6565b61129190826125a5565b9392505050565b6002546001600160a01b031633146112c25760405162461bcd60e51b815260040161044290611f7a565b600360048054600160a01b900460ff16908111156112e2576112e2611b93565b036112ff5760405162461bcd60e51b815260040161044290611fdf565b6004808054600160a01b900460ff169081111561131e5761131e611b93565b036113795760405162461bcd60e51b815260206004820152602560248201527f5468697320636f6e74726163742068617320616c7265616479206265656e20636044820152641b1bdcd95960da1b6064820152608401610442565b600480546002919060ff60a01b1916600160a01b836106c2565b6002546001600160a01b031633146113bd5760405162461bcd60e51b815260040161044290611f7a565b600360048054600160a01b900460ff16908111156113dd576113dd611b93565b036113fa5760405162461bcd60e51b815260040161044290611fdf565b600480546003919060ff60a01b1916600160a01b836106c2565b60008054610dae90612547565b60007f00000000000000000000000000000000000000000000000000000000000000006001600160a01b0316639a8a05926040518163ffffffff1660e01b8152600401602060405180830381865afa158015611481573d6000803e3d6000fd5b505050506040513d601f19601f820116820180604052508101906114a59190612379565b61ffff168361ffff161461154b57604051630ff8f14360e11b815261ffff84166004820152602481018390527f00000000000000000000000000000000000000000000000000000000000000006001600160a01b031690631ff1e28690604401602060405180830381865afa158015611522573d6000803e3d6000fd5b505050506040513d601f19601f8201168201806040525081019061154691906125b8565b611291565b6112918261186d565b60408051600481526024810182526020810180516001600160e01b031663313ce56760e01b179052905160009182916001600160a01b03851691611597916125d5565b600060405180830381855afa9150503d80600081146115d2576040519150601f19603f3d011682016040523d82523d6000602084013e6115d7565b606091505b509150508080602001905181019061129191906125f1565b6004805460405163a9059cbb60e01b81526001600160a01b038581169382019390935260248101849052911690819063a9059cbb906044016020604051808303816000875af1158015611646573d6000803e3d6000fd5b505050506040513d601f19601f8201168201806040525081019061166a919061260c565b6116ae5760405162461bcd60e51b8152602060048201526015602482015274151bdad95b881d1c985b9cd9995c8819985a5b1959605a1b6044820152606401610442565b505050565b604080516001808252818301909252600091829190816020015b60408051606081018252600080825260208083018290529282015282526000199092019101816116cd57905050905061170884848b8b611899565b8160008151811061171b5761171b612027565b602090810291909101015260405163c23ee3c360e01b815261ffff8a16600482015260248101879052604481018690526000906001600160a01b037f0000000000000000000000000000000000000000000000000000000000000000169063c23ee3c3906064016040805180830381865afa15801561179e573d6000803e3d6000fd5b505050506040513d601f19601f820116820180604052508101906117c29190612581565b5090507f00000000000000000000000000000000000000000000000000000000000000006001600160a01b031663329a2be7828c8c8c8c8c896040518863ffffffff1660e01b815260040161181c9695949392919061262e565b60206040518083038185885af115801561183a573d6000803e3d6000fd5b50505050506040513d601f19601f8201168201806040525081019061185f91906126d9565b9a9950505050505050505050565b600060a082901c156118955760405163033b960d60e41b815260048101839052602401610442565b5090565b60408051606081018252600080825260208201819052918101919091526118d285858585604051806020016040528060008152506118db565b95945050505050565b604080516060810182526000808252602082018190529181019190915260405163095ea7b360e01b81526001600160a01b037f0000000000000000000000000000000000000000000000000000000000000000811660048301526024820187905287169063095ea7b3906044016020604051808303816000875af1158015611967573d6000803e3d6000fd5b505050506040513d601f19601f8201168201806040525081019061198b919061260c565b5060007f00000000000000000000000000000000000000000000000000000000000000006001600160a01b031663c5a5ebda7f00000000000000000000000000000000000000000000000000000000000000006001600160a01b0316631a90a2196040518163ffffffff1660e01b8152600401602060405180830381865afa158015611a1b573d6000803e3d6000fd5b505050506040513d601f19601f82011682018060405250810190611a3f9190611fc6565b8989896001600160a01b038a1660008a6040518863ffffffff1660e01b8152600401611a70969594939291906126f4565b60206040518083038185885af1158015611a8e573d6000803e3d6000fd5b50505050506040513d601f19601f82011682018060405250810190611ab391906126d9565b905060405180606001604052807f00000000000000000000000000000000000000000000000000000000000000006001600160a01b0316639a8a05926040518163ffffffff1660e01b8152600401602060405180830381865afa158015611b1e573d6000803e3d6000fd5b505050506040513d601f19601f82011682018060405250810190611b429190612379565b61ffff1681526020016001600160a01b037f0000000000000000000000000000000000000000000000000000000000000000168152602001826001600160401b031681525091505095945050505050565b634e487b7160e01b600052602160045260246000fd5b6020810160058310611bbd57611bbd611b93565b91905290565b6001600160a01b0381168114611bd857600080fd5b50565b60008060408385031215611bee57600080fd5b8235611bf981611bc3565b946020939093013593505050565b634e487b7160e01b600052604160045260246000fd5b604051608081016001600160401b0381118282101715611c3f57611c3f611c07565b60405290565b60405161016081016001600160401b0381118282101715611c3f57611c3f611c07565b60405161010081016001600160401b0381118282101715611c3f57611c3f611c07565b604051601f8201601f191681016001600160401b0381118282101715611cb357611cb3611c07565b604052919050565b60006001600160401b03821115611cd457611cd4611c07565b50601f01601f191660200190565b600082601f830112611cf357600080fd5b8135611d06611d0182611cbb565b611c8b565b818152846020838601011115611d1b57600080fd5b816020850160208301376000918101602001919091529392505050565b60006001600160401b03821115611d5157611d51611c07565b5060051b60200190565b61ffff81168114611bd857600080fd5b8035611d7681611d5b565b919050565b600080600080600060a08688031215611d9357600080fd5b85356001600160401b03811115611da957600080fd5b611db588828901611ce2565b95505060208601356001600160401b03811115611dd157600080fd5b8601601f81018813611de257600080fd5b8035611df0611d0182611d38565b8082825260208201915060208360051b85010192508a831115611e1257600080fd5b602084015b83811015611e535780356001600160401b03811115611e3557600080fd5b611e448d602083890101611ce2565b84525060209283019201611e17565b50965050505060408601359250611e6c60608701611d6b565b949793965091946080013592915050565b60005b83811015611e98578181015183820152602001611e80565b50506000910152565b60008151808452611eb9816020860160208601611e7d565b601f01601f19169290920160200192915050565b6020815260006112916020830184611ea1565b6020810160028310611bbd57611bbd611b93565b600080600060608486031215611f0957600080fd5b8335611f1481611d5b565b92506020840135611f2481611bc3565b91506040840135611f3481611bc3565b809150509250925092565b60008060408385031215611f5257600080fd5b8235611bf981611d5b565b600060208284031215611f6f57600080fd5b813561129181611d5b565b6020808252602c908201527f596f7520617265206e6f7420616c6c6f77656420746f206361727279206f757460408201526b103a3434b99030b1ba34b7b760a11b606082015260800190565b600060208284031215611fd857600080fd5b5051919050565b60208082526028908201527f5468697320636f6e74726163742068617320616c7265616479206265656e2063604082015267185b98d95b1b195960c21b606082015260800190565b634e487b7160e01b600052603260045260246000fd5b805160ff81168114611d7657600080fd5b805163ffffffff81168114611d7657600080fd5b8051611d7681611d5b565b80516001600160401b0381168114611d7657600080fd5b600082601f83011261209557600080fd5b81516120a3611d0182611cbb565b8181528460208386010111156120b857600080fd5b6120c9826020830160208701611e7d565b949350505050565b600082601f8301126120e257600080fd5b81516120f0611d0182611d38565b8082825260208201915060208360071b86010192508583111561211257600080fd5b602085015b83811015612177576080818803121561212f57600080fd5b612137611c1d565b81518152602080830151908201526121516040830161203d565b60408201526121626060830161203d565b60608201528352602090920191608001612117565b5095945050505050565b60006020828403121561219357600080fd5b81516001600160401b038111156121a957600080fd5b820161016081850312156121bc57600080fd5b6121c4611c45565b6121cd8261203d565b81526121db6020830161204e565b60208201526121ec6040830161204e565b60408201526121fd60608301612062565b60608201526080828101519082015261221860a0830161206d565b60a082015261222960c0830161203d565b60c082015260e08201516001600160401b0381111561224757600080fd5b61225386828501612084565b60e083015250612266610100830161204e565b6101008201526101208201516001600160401b0381111561228657600080fd5b612292868285016120d1565b6101208301525061014091820151918101919091529392505050565b6000602082840312156122c057600080fd5b81516001600160401b038111156122d657600080fd5b820161010081850312156122e957600080fd5b6122f1611c68565b6122fa8261203d565b8152602082810151908201526040808301519082015261231c60608301612062565b60608201526080828101519082015261233760a08301612062565b60a082015260c0828101519082015260e08201516001600160401b0381111561235f57600080fd5b61236b86828501612084565b60e083015250949350505050565b60006020828403121561238b57600080fd5b815161129181611d5b565b6000602082840312156123a857600080fd5b81516001600160401b038111156123be57600080fd5b6120c984828501612084565b634e487b7160e01b600052601160045260246000fd5b60ff8281168282160390811115610641576106416123ca565b6001815b600184111561243457808504811115612418576124186123ca565b600184161561242657908102905b60019390931c9280026123fd565b935093915050565b60008261244b57506001610641565b8161245857506000610641565b816001811461246e576002811461247857612494565b6001915050610641565b60ff841115612489576124896123ca565b50506001821b610641565b5060208310610133831016604e8410600b84101617156124b7575081810a610641565b6124c460001984846123f9565b80600019048211156124d8576124d86123ca565b029392505050565b600061129160ff84168361243c565b8082028115828204841417610641576106416123ca565b60208082526021908201527f5468697320636f6e7472616374206973206e6f206c6f6e6765722061637469766040820152606560f81b606082015260800190565b600181811c9082168061255b57607f821691505b60208210810361257b57634e487b7160e01b600052602260045260246000fd5b50919050565b6000806040838503121561259457600080fd5b505080516020909101519092909150565b80820180821115610641576106416123ca565b6000602082840312156125ca57600080fd5b815161129181611bc3565b600082516125e7818460208701611e7d565b9190910192915050565b60006020828403121561260357600080fd5b6112918261203d565b60006020828403121561261e57600080fd5b8151801515811461129157600080fd5b61ffff871681526001600160a01b038616602082015260c06040820181905260009061265c90830187611ea1565b606083018690526080830185905282810360a08401528351808252602080860192019060005b818110156126c957835161ffff8151168452602081015160208501526001600160401b03604082015116604085015250606083019250602084019350600181019050612682565b50909a9950505050505050505050565b6000602082840312156126eb57600080fd5b6112918261206d565b60018060a01b038716815285602082015261ffff8516604082015283606082015263ffffffff8316608082015260c060a0820152600061273760c0830184611ea1565b9897505050505050505056fea264697066735822122036862d1919639f76d6e4fd382ee338a89d56d0ac326966a84ad89f9dfc25292264736f6c634300081a0033","linkReferences":{}},"methodIdentifiers":{"agreementStatus()":"10ccb04c","cancel()":"ea8a1af0","close()":"43d726d6","collectTokens(address,uint256)":"3fb4fe6f","contractType()":"cb2ef6f7","currency()":"e5a6b10f","employeeEnterContract()":"9fd09854","employeeId()":"84ab30a5","employerAddress()":"0d0175a9","employerId()":"ef838f88","paymentAddress()":"633423be","paymentStatus()":"900feb3b","quoteCrossChainPayment(uint16)":"e508fe8b","receiveWormholeMessages(bytes,bytes[],bytes32,uint16,bytes32)":"529dca32","sendCrossChainPayment(uint16,address,address)":"cc165fe1","sendPayment()":"6720ceb1","setRegisteredSender(uint16,bytes32)":"dd12d68b","suspend()":"e6400bbe","tokenBridge()":"c6328a46","withdrawFunds()":"24600fc3","wormhole()":"84acd1bb","wormholeRelayer()":"da25b725"},"id":19}